:400000000010002011000000AD010000AD01000008B500F0CDF8C04638B5134C23688022D20213432360182000F068F922680F4B134023600E4A0F4B1A6010220E4B1A6011
:40004000802212060D4B1A60002525600C4A0D4B1A6009200C4900F00FF9092000F0F6F80A4B1D6038BDC04600010B40FFFFFBFF0600008004010B400C02024008010B401A
:400080000E000080000002400D0500000C020B4010B572B6002410E01F4863001A195200821891881B195B001A5AC31858880004104300F0C5F80134E4B2012CECD9EE2273
:4000C0001204164B1A60EE221202154B1A6099231B04144A1360144A1360144B197802220A431A70124802783C218A4328390A430270197816220A431A7030220D4B1A60C7
:40010000902292020C4B1A60D82212010B4B1A60FFF782FF10BDC046B00B0000000001400C00014000500F4030500F4000700F4001700F400000044008000440080304406C
:4001400010B5064C2378002B07D1054B002B02D0044800E000BF0123237010BDE000002000000000AC0B000008B5084B002B03D00748084900E000BF07480368002B00D154
:4001800008BD064B002BFBD09847F9E700000000AC0B0000E4000020C80000200000000008B562B600F01AFAFEE7C046FEE7C04670B50F4E0F4D13E029686B68AC680022B7
:4001C00002E001C901C30432A242FAD1E868002202E0002102C304328242FAD11035013E002EE9D100F0B4FCFFF7DAFFFEE7C04601000000100C000008B500230AE0032BD0
:4002000003D89A000A49505800E00A4899000A4A885001332F2BF2D9FFF73AFF0022074B1A608022D205116801230B43136008BD00000000AD01000000000020C000002097
:4002400008B50A1C002100F0A9FC08BD1F2318401E3B8340181C014B1860704700E100E01F2318401E3B8340181C014B1860704780E100E001BE704738B5041C0D1C1F2861
:4002800002D90020FFF7F6FFA400034B9C4664442068256038BDC0464000002070B5041C0E1E032E02D90020FFF7E4FF1F2C02D90020FFF7DFFF03252540ED00063500F03F
:4002C00031FAA408A400074B9C46644423680322AA409343AE40351C1D43256000F026FA70BDC04600E400E008B5034B1B7A584300F00EFA08BDC046CC000020F0B55746E0
:400300004E46C0B483B0041C00F00CFA0190E71E2D2F74D83F4B1B78DBB2A34208D33E4B1B78DBB29A463D4B1B78DBB2994631E03B4B1B78DBB2A34208D33A4B1B78DBB298
:400340009A46394B1B78DBB2994623E0374B1B78DBB2A34208D3364B1B78DBB29A46354B1B78DBB2994615E0334B1B78DBB2A34208D3324B1B78DBB29A46314B1B78DBB249
:40038000994607E02F4B1B78DBB29A462E4B1B78DBB299462D4BDE5D2F2E09D92A2C07D919222B4B1A60052000F0B2F9192503E0274B1D683F231D40AE4206D2234BDA5D2E
:4003C000234B1A60052000F0A3F91F4B9C4664442378DBB21F4A13601F4B52461A601F4B4A461A600520FFF77FFFAE420AD9174BDA5D174B1A60052000F08AF902E0002001
:40040000FFF738FF019800F091F903B00CBC91469A46F0BDC0F1FF0FC1F1FF0FC2F1FF0FC3F1FF0FC4F1FF0FC5F1FF0FC6F1FF0FC7F1FF0FC8F1FF0FC9F1FF0FCAF1FF0F31
:40044000CBF1FF0FCCF1FF0FCDF1FF0FBC0B00002CFF0B4028FF0B401CFF0B4020FF0B40034B1868C0231B02184000D00120704700010B4008B500F055F9044A1368C021DD
:4004800009020B43136000F051F908BD00010B4010B500F047F908490A68084B1A408024E40122430A600A6813408022120213430B6000F03BF910BD00010B40FF3FFFFFB3
:4004C00070B5061C00F02EF9041CFFF7C9FF002803D0FFF7DDFF012500E000250848331C0340084A106808490840184310601368012D01D1FFF7BEFF201C00F017F970BD21
:400500000404040010020B40FBFBFBFF10B5244B1B685B0715D5234B1B685B070ED5224B9969042001401F4C22688A4322609A6982439A61DB68002B00D098470420FFF717
:40054000BFFF174B1B685B0518D5164B1B685B0510D5154B99698022D2001140114802688A4302609969114A0A409A611B69002B00D098478020C000FFF7A2FF084B1B687C
:400580005B030CD5074B1B685B0304D5064B5B69002B00D098478020C002FFF791FF10BD10020B40DC000020FC000020FFFBFFFF08B50B20FFF74AFE08BDC04608B500F041
:4005C0003BF808BD08B5044A1368802109060B431360FFF7EDFF08BD0000074008B5064B1B78002B04D1FFF7E9FF0122024B1A70FFF7E8FF08BDC046180100200A4B1B68EC
:40060000DB050DD5094B1B685B0409D4064B1968074A0A401A601A68802149000A431A600222044B1A6070470000074060000740FFFEFFFF6C00074010B51E4A11680C23B6
:400640000B43136000241C4B1C601C4A1C4B1A601C4B1D4A13601D4A14601D491D4A11601D4A13601D4B1C600B20FFF7F9FD0B200321FFF713FE0B201949FFF7FDFD194B05
:400680001C60194B1C604C22FF32184B1A60184B1C60184B1C60184B1C603C3AFF3A174B1A70174B1C70174B1C60174B1C60174B1C7010BD70000740000007407708004008
:4006C000600007400701008000030740040307401000FE0010030740000207400402074039070000C80E0740880E0740480F0740080F0740C80F0740880F074020010020C2
:40070000300100204401002028010020240100200230800804D0C0460138FDD1C046C046C0467047EFF3108072B6704780F310887047C046C046C04610B5C04B1B68002B6E
:4007400000D09847BE4B1B68DB0702D50022BD4B1A60BD4B1B789B061FD4BC4B1A680223FF331A4219D0B84B1B78DB0709D5B84B1A7802218A431A70197809220A431A7095
:4007800008E0B34B1A7820218A431A70197890220A431A700022AC4B1A70AB4B1B789B0600D5B6E1A84B1B78DB0600D48AE1A74B1B689B073ED50222A64B1A60A64A13680C
:4007C0000F211940136880221202134000D00123CB18A24A1278D2B29A4205D99C4A117804230B43137006E09C4A12789B1A9C490A68D31A0B609A4B1A689A4B1A60002357
:40080000994A1360954A1370984B1A68802149020A431A601968964A0A401A608C4B1A7802218A431A70197801220A431A701022854B1A70854B1B681B0737D50822854B4E
:400840001A608C4B1B689B040CD414E08A4B1A688A4909688A188A490968C9B211701A6801321A60874B1B681B07EFD1814A1168854B0B401360854B1B689B0604D5744AF1
:40088000117840230B4313700022814B1A60814A7E4B1A606E4B1A7820218A431A70197810220A431A70684B10221A70674B1B685B0641D50122784B1A60784B1B68DB06E6
:4008C0000FD50F32684B1A60664B1A68644B1A605F4A117802230B43137012225A4B1A7024E06F4B1B68644A12689B1A072B03D80422674B1A6011E0082B06D15D4A136825
:40090000A02109020B43136008E05A4A1368802189010B43136008225D4B1A604C4A117820230B4313701122474B1A705D4A494B1A6001225C4B1A605C4B1B681B072AD525
:40094000574B1B684C4A1068181A0838082802D9002408200EE001240CE0474B1A68474909688A1846490968C9B211701A6801321A6001380028F0D1002C08D03D4A136872
:40098000802109020B4313600022414B1A6008223E4B1A6023E0454B1B685B071FD5384B1B68354A11683E4A126891420DD201213D4A1160304A1168304800684118DBB284
:4009C0000B7013680133136006E0FFF717FE204A117840230B43137004222C4B1A60344B1B68DB061FD494E01D4B1A68314B1B689A420CD21A4B1A682F4909688A18127842
:400A0000D2B22E490A601A6801321A600BE0FF222A4B1A60114B1B789B0604D40F4A13780133DBB213700C4B1B680F221340082BDAD10132224B1A606BE0C0461C010020B3
:400A40008C0E0740880E0740200100204C0F074030010020400F074008020740240100203801002044010020880F074004020740FFFFFEFF60000740280100204001002023
:400A80004003074008030740FF5FFFFFC00F0740C80F0740ED0F0000800E0740640007403C010020FF0F00006C000740CC0F07408C0F07402C010020340100204002074001
:400AC000800F0740134A13685B005B0813601021114B1970114B1868114901401960186810490140196000230F490B600F490B600F49104B19601049104B19601049114BC7
:400B000019601149114B19601368802109060B43136010BD000007402001002060000740FF5FFFFFFFFCFFFFC80F0740880F0740ED0F0000800F0740F3070000C00F0740F2
:400B4000FF0F0000400F074017030000000F07400E4B70B500251E1C0D4CE41AA410A54204D0AB00F35898470135F8E700F03EF8084B00251E1C084CE41AA410A54204D03B
:400B8000AB00F35898470135F8E770BDF80B0000F80B0000F80B0000000C0000031C8218934202D019700133FAE770470000000000300F40000400400F400004030405062C
:400BC0000708090A0B0C0E0F101112131415161718191B1C1D1E1F2021222325262728292A2B2E2F3031323334350000F8B5C046F8BC08BC9E46704769010000F9010000ED
:400C0000F8B5C046F8BC08BC9E46704741010000200C0000C80000201800000068000000000000000000E02EC05D00001800000000366E0104040400000000000000000024
:400C40000000000000000000000000000000000000000000000000000000000000000000000000000000000000000000000000000000000000000000000000000000000074
:400C80000000000000000000000000000000000000000000000000000000000000000000000000000000000000000000000000000000000000000000000000000000000034
:400CC00000000000000000000000000000000000000000000000000000000000000000000000000000000000000000000000000000000000000000000000000000000000F4
:400D000000000000000000000000000000000000000000000000000000000000000000000000000000000000000000000000000000000000000000000000000000000000B3
:0200000490303A
:02000000C09DA1
:0200000490402A
:200000000000000000000000000000000000000000000000000000000000000000000000E0
:0200000490501A
:0C000000000204C81193110104CBD2309F
:0200000490600A
:0100000001FE
:00000001FF