:400000000010002011000000990A0000990A000008B500F043FDC04638B5164C23688022D20213432360182000F010FE2268124B13402360114A124B1A602022114B1A60E0
:40004000103A114B1A6080221206104B1A60002525600F4A0F4B1A600F4A104B1A6009200F4900F099FD092000F080FD0D4B1D6038BDC04600010B40FFFFFBFF0600008095
:4000800004010B40080202400C02024008010B400E00008000000240CF000080400002405D0E00000C020B4010B572B60122364B1A70002410E0354863001A19520082186D
:4000C00091881B195B001A5AC31858880004104300F046FD0134E4B2012CECD92B49081C0C302C3100F022FDEE221204284B1A60EE221202274B1A600922274B1A609923AC
:400100001B04264A1360264A1360A8210904254A1160254A1360254A1360AA221206244B1A600522234B1A600132234B1A60234B1978043A0A431A70214C22783C2082432D
:4001400014210A432270197816220A431A7030221C4B1A601C4A1D4B1A600E221C4B1A601C4A1D4B1A601D4B18601D4A1D4B1A60F0221D4B1A601D4A1D4B1A6001221D4B06
:400180001A60FFF749FF10BD1C700F40B01B0000000001400C0001401000014000500F4010500F4014500F4020500F4030500F4034500F402000004000800F4000700F40E5
:4001C00001700F4000000440804102000800044000010440900418000801044000020440862401000802044000030440802D4900080304400804044010B5064C2378002BB6
:4002000007D1054B002B02D0044800E000BF0123237010BDF000002000000000601A000008B5084B002B03D00748084900E000BF07480368002B00D108BD064B002BFBD091
:400240009847F9E700000000601A0000F4000020C80000200000000010B5394B1B78002B6DD001F01FF9374B186000285ED0022802D003280AD052E0334C201C01F0E8FBEA
:40028000021C201C002101F0D1FB58E02C4B59682D4801F0D3FB002822D100F04DFB0020002100F059FB294800F08AFB0020012100F052FB264800F083FB234800F080FB73
:4002C000002000F0EDFE012000F0DEFE00221C4B1A70FA20C00000F097FC00F02DFB18E000F02AFB0020002100F036FB194800F067FB0020012100F02FFB154800F060FB68
:40030000114800F05DFB012000F0CAFE002000F0BBFE114B00229A6001321A730FE00E4A9368591C9160084AD05408E0012000F0B7FE012000F0A8FE012001F0C9F810BD1F
:40034000CC0000206C0100205C010020E81A0000F41A0000FC1A00000C01002010B5041C00F028FB034A537B591C5173024AD45410BDC0460C0100207001002010B5041CFE
:4003800001F066FB021C201C002101F04FFB0022044B5A7300F0D0FA0020012100F0DCFA10BDC0460C01002070B5041C01F046FB00282BD100F0C0FA0120002100F0CCFAF8
:4003C0001F4B5B78002B11D01E4800F0F9FA002000F066FE012000F057FE012001F078F8174B00225A7001329A7318E0002B16D1154800F0E5FA124D01266E70002000F0D7
:400400004FFE002000F040FEAE7308E000F094FA0120002100F0A0FA0C4800F0D1FA201C01F016FB021C201C002101F0FFFA0022034B5A730020012100F08EFA70BDC046F2
:400440000C010020081B0000181B0000281B000010B500F067F9244B18702338C3B2162B35D89800214B1B589F46214B99682148FFF79AFF37E01F48FFF780FF33E0312074
:40048000FFF76CFF2FE03220FFF768FF2BE03320FFF764FF27E03420FFF760FF23E03520FFF75CFF1FE03620FFF758FF1BE03720FFF754FF17E03820FFF750FF13E03920F0
:4004C000FFF74CFF0FE03020FFF748FF0BE0094C201C01F0BDFA021C201C002101F0A6FA202000F067FA10BD6A0100208C1A0000CC0000207001002008B53D4B5B78002BC0
:4005000041D000F0F9FF01281CD100F015FA0020002100F021FA0122354B1A70354800F04FFA012000F0BCFD002000F0ADFD00F0DBFF43425841C0B200F0CAFFC82000F00F
:4005400063FB54E000F0E0FF012850D100F0F4F90020002100F000FA0122254B1A70264800F02EFA012000F09BFD002000F08CFD00F0BAFF43425841C0B200F0A9FFC8202A
:4005800000F042FB33E0002B28D000F0B5FF00280BD000F0B9FF002807D000F0BDFF002803D000F069FD002818D100F0C5F90120002100F0D1F900220D4B1A700F4800F087
:4005C000FFF9002000F06CFD012000F05DFD012000F07EFFC82000F017FB08E00022044B1A70002000F05CFD012000F04DFD08BD0C010020381B00004C1B00005C1B0000DD
:4006000008B562B600F06EFD00F062F8C82000F0FBFA2C4B187B10210222002300F026F9C82000F0F1FA00F0DBF9C82000F0ECFA00F0C2FFC82000F0E7FA00F0DBFEC82082
:4006400000F0E2FAC82000F0DFFA00F075F90020012100F081F91C4800F0B2F9012000F01FFD012000F010FD012000F031FFFA20C00000F0C9FA00F05FF9144B5B78002B36
:4006800011D0FFF739FFFFF7E7FD0E4B1B78002B09D1FFF7DDFE0D4B9B7B002B03D00B4B00225A701A70094B5B78002BE5D1FFF7CFFE064B9B7B002BDFD00122034B5A7010
:4006C000DBE7C046CC000020681B00000C01002008B5034800F0AEFC00F078FC08BDC046C107000007490A78531CDBB20B7001380549085C05498854092B02D90022014B22
:400700001A7070471C010020901B000084010020034A13785078181A431E9841C0B270471C01002008B5FFF7F3FF0028FBD006494A78531CDBB24B700449885C092B02D9D9
:400740000022014B5A7008BD1C01002084010020002306E0C20701D5181C05E00133DBB24008072BF6D9FF207047C04638B50F2000F0C6FBF82000F06BFC00F0CDFB041EDD
:400780000F2C18D0072000F063FC201C00F0B8FB00F06AFC051E072D0FD0E043C0B2FFF7D7FF041CE843C0B2FFF7D2FF800020430130C0B202E0002000E0002038BDC046CD
:4007C00038B500F0BFFB284CA5786B1CA370FFF7CDFF65192871A378092B02D90022224B9A70FF24002305E05A1C1F49CB181B791C40D3B2092BF7D9E3B21B4A917BCAB2B4
:40080000181C104302D1184B9C732CE0101C984304D0154B9C730022DA7324E0934307D0201CFFF75FFF104B0022DA739C731AE0214218D00C4BDB7B4F2B05D80A4A01333C
:40084000D373002313740CE0074A137C0133DBB21374272B05D90022034B1A74201CFFF741FF014B9C7338BD1C01002010B5064C20700648017006490A70064A137008221B
:40088000054B1A7010BDC0468F0100209401002095010020910100208E01002010B50C1C002100F095FC201C00F044FD00F0FCFC10BDC04608B5054B1A78054B1B78011CB9
:4008C0001943101CFFF7EAFF08BDC0468F0100208E01002010B5041C04202043FFF7EAFF012000F0A9F90423201C9843FFF7E2FF322000F0A1F910BD10B5041CFFF7DAFFF7
:40090000201CFFF7E7FF10BD38B50D1C0F23021C9A43131C0001C4B20B43181CFFF7ECFF201C2843FFF7E8FF38BDC04608B50021FFF7EAFF08BDC04608B50120FFF7F6FFB6
:40094000022000F061F908BD08B50220FFF7EEFF022000F059F908BD70B584B06B460C4A70CA70C31C1C136823600A4B1B78994201D9591EC9B289006B46CB58C0188023F1
:400980005B421843C0B2FFF7D1FF04B070BDC046A01B00009501002008B5054A107804231843107004331843FFF7C0FF08BDC0469001002008B50121FFF7A6FF08BDC04611
:4009C00070B5061C01F044F8051C002403E0305DFFF7F0FF0134EBB2A342F8D870BDC04610B50022254B1A70254B1B78012B02D90821224A1170234A1278002A06D0012B0B
:400A000004D11E4A117804230B431370322000F0FBF81D4B1878FFF74DFFFA20800000F0F3F83020FFF768FF184C201C00F004F93020FFF761FF201C00F0FEF83020FFF7CC
:400A40005BFF962000F0F8F82020FFF755FF0B4B187820231843FFF769FF04220C4B1A70FFF79AFFFFF768FF02220A4B1A700620FFF75CFFFFF768FF10BDC04693010020C9
:400A800095010020910100208E010020941100009001002092010020FEE7C04670B50F4E0F4D13E029686B68AC68002202E001C901C30432A242FAD1E868002202E00021F6
:400AC00002C304328242FAD11035013E002EE9D100F086FFFFF794FDFEE7C046010000006C1D000008B500230AE0032B03D89A000A49505800E00A4899000A4A88500133FC
:400B00002F2BF2D9FFF7D0FA0022074B1A608022D205116801230B43136008BD00000000990A000000000020C0000020F0B50025002711E0BB00C658F3B2FF22964308E061
:400B40006A008A181478A419527822700135013BDBB2002BF4D10137072FEBD9F0BDC04608B50A1C002100F061FF08BD1F2318401E3B8340181C014B1860704700E100E0B1
:400B80001F2318401E3B8340181C014B1860704780E100E001BE704738B5041C0D1C1F2802D90020FFF7F6FFA400034B9C4664442068256038BDC0464000002070B5041C8D
:400BC0000E1E032E02D90020FFF7E4FF1F2C02D90020FFF7DFFF03252540ED00063500F005FDA408A400074B9C46644423680322AA409343AE40351C1D43256000F0FAFC5D
:400C000070BDC04600E400E010B5041C06E0084B186800F0E1FC074B9C46644480231B029C42F4D8024B5868604300F0D5FC10BDDC0000200080FFFF08B5034B1B7A584319
:400C400000F0CAFC08BDC046DC000020F0B557464E46C0B483B0041C00F0C8FC0190E71E2D2F74D83F4B1B78DBB2A34208D33E4B1B78DBB29A463D4B1B78DBB2994631E0DD
:400C80003B4B1B78DBB2A34208D33A4B1B78DBB29A46394B1B78DBB2994623E0374B1B78DBB2A34208D3364B1B78DBB29A46354B1B78DBB2994615E0334B1B78DBB2A342E9
:400CC00008D3324B1B78DBB29A46314B1B78DBB2994607E02F4B1B78DBB29A462E4B1B78DBB299462D4BDE5D2F2E09D92A2C07D919222B4B1A60052000F06EFC192503E055
:400D0000274B1D683F231D40AE4206D2234BDA5D234B1A60052000F05FFC1F4B9C4664442378DBB21F4A13601F4B52461A601F4B4A461A600520FFF77FFFAE420AD9174B82
:400D4000DA5D174B1A60052000F046FC02E00020FFF720FF019800F04DFC03B00CBC91469A46F0BDC0F1FF0FC1F1FF0FC2F1FF0FC3F1FF0FC4F1FF0FC5F1FF0FC6F1FF0FF3
:400D8000C7F1FF0FC8F1FF0FC9F1FF0FCAF1FF0FCBF1FF0FCCF1FF0FCDF1FF0F181D00002CFF0B4028FF0B401CFF0B4020FF0B40034B1868C0231B02184000D001207047F9
:400DC00000010B4008B500F011FC044A1368C02109020B43136000F00DFC08BD00010B4010B500F003FC08490A68084B1A408024E40122430A600A68134080221202134320
:400E00000B6000F0F7FB10BD00010B40FF3FFFFF70B5061C00F0EAFB041CFFF7C9FF002803D0FFF7DDFF012500E000250848331C0340084A10680849084018431060136893
:400E4000012D01D1FFF7BEFF201C00F0D3FB70BD0404040010020B40FBFBFBFF10B5244B1B685B0715D5234B1B685B070ED5224B9969042001401F4C22688A4322609A69EB
:400E800082439A61DB68002B00D098470420FFF7BFFF174B1B685B0518D5164B1B685B0510D5154B99698022D2001140114802688A4302609969114A0A409A611B69002BB8
:400EC00000D098478020C000FFF7A2FF084B1B685B030CD5074B1B685B0304D5064B5B69002B00D098478020C002FFF791FF10BD10020B40EC00002030010020FFFBFFFFD5
:400F0000044A11680F230B400001C0B2184310607047C04600030440024B18680006000F7047C04604030440024A117880230B431370704771000F40014B18707047C046F0
:400F400082000F40014B1878C0B2704762000F4008B5011C014800F053FB08BD20000F4008B5024800F056FB08BDC04640000F4008B5011C014800F043FB08BD00000F404E
:400F800008B501E0FFF7ECFFFFF7DCFF0307F9D408BDC04610B50B4C201CFFF7D9FF201CFFF7E6FF00F022FB074A117810230B43137000F01FFBFFF7E3FF0120FFF7BCFF63
:400FC00010BDC046BFD4010092000F4008B5064B1B78002B04D1FFF7DDFF0122024B1A70FFF7A2FF08BDC0464C010020014B98647047C0460000002010B5041C00F0F6FA83
:40100000044A1168044B0B40A4051C43146000F0F1FA10BD00E400E0FFFF3FFF0422014B1A60704700E100E00422014B1A60704780E100E010B5041CFFF7F6FF201CFFF7E1
:40104000D5FF0320FFF7D8FFFFF7E8FF10BDC04604490A68F1231A404000E33B184010430860704700010440024B18680007400F7047C04604010440024B18684007C00F56
:401080007047C0460402044004490A68BF231A4080017F3B18401043086070470001044004490A68FB231A408000F73B18401043086070470000044008B50B20FFF756FDBC
:4010C00008BDC04608B500F01DF808BD08B5044A1368802109060B431360FFF7EDFF08BD0000074008B5064B1B78002B04D1FFF7E9FF0122024B1A70FFF7E8FF08BDC04698
:401100005001002010B51D4A11680C230B43136000241B4B1C601B4A1B4B1A601B4B1C4A13601C4A14601C4A14601C4A13601C4B1C600B20FFF724FD0B200321FFF73EFDED
:401140000B201849FFF728FD174B1C60174B1C60174B1C601422FF32164B1A60164B1C60164B1C60043AFF3A154B1A70154B1C80154B1C60154B1C6010BDC0467000074093
:4011800000000740770800806000074007010080000307400403074010030740000207400402074025160000C80E0740880E0740480F0740080F0740C80F0740880F074005
:4011C00096010020A4010020B40100209C01002038B52E4B1B78102B53D12D4B1B68DB0751D40D1C041C0B20FFF7CAFC6000FF231840002D03D12422244B1A7004E0252212
:40120000224B1A7001231843224B1860224A234B1A600222224B1A60204B1A680823FF331A42F9D01D4B1B685B0714D41B4B1B689B0713D4194B1B68DB0705D51022134BAB
:401240001A70012001210BE01022104B1A7080204000012104E00020002101E0022000210822FF320D4B1A6000290DD00D4A13685B005B0813601368802109060B43136032
:4012800002E0042000E0082038BDC04696010020640007404002074017030000000F074068000740000007401D4B1B789B0634D51C4B1B689B0601D5182200E010221A4B1D
:4012C0001A601A4B1A681223FF331A42F9D0174B1B68DB0606D4154B1B68DB0705D50120012105E00020002102E08020400001211222FF320D4B1A60023AFF3A084B1A70EC
:4013000000290BD00A4A13685B005B0813601368802109060B43136000E004207047C046960100206400074068000740000F074000000740214B1B789B063CD5204B1860BA
:40134000204B1A680823FF331A42F9D01D4B1B685B0705D56022194B1A700020002119E0184B1B689B0705D56022144B1A70022000210FE0134B1B68DB0705D510220F4B05
:401380001A700120012105E010220C4B1A708020400001210822FF320A4B1A6000290BD0094A13685B005B0813601368802109060B43136000E004207047C04696010020D5
:4013C00040020740000F07400000074008B500F067F808BD08B500F01DF808BD08B5044A1368802109060B431360FFF7EFFF08BD0000064008B5064B1B78002B04D1FFF7F2
:40140000E9FF0122024B1A70FFF7E8FF08BDC04658010020114A124B1A600023114A13600121114A11601148114A1060072211480260114803601148016011490A60114AFB
:401440001360114A1360114A1360114A1360114A1360114A1360114A136070470B000002000006404000064048000640070000800003064004030640100306404400064007
:401480000002064004020640880E0640C80E0640480F0640080F0640C80F0640880F06407047C04608B500F093FA002802D000F089FA00E00020054B1A68D8239B001A4284
:4014C00003D01A1C014B1A60002008BDC00F0640031C04490868FE2202400120184010430860704700020440024B1868012318407047C04604020440024B18688006C00F42
:401500007047C04604020440024B1868C006C00F7047C04604020440024B18680007C00F7047C04604020440024A117880230B431370704773000F40014B18707047C0463E
:4015400083000F40014B1878C0B2704763000F40014B18707047C04623000F40014B1878C0B2704743000F40014B18707047C04603000F4008B501E0FFF7F0FFFFF7E2FF0B
:401580000307F9D408BDC04608B5EF20FFF7E0FFEF20FFF7E9FF00F029F8064A117810230B43137000F026F8FFF7E4FF0020FFF7C3FF08BD93000F4008B5064B1B78002BDB
:4015C00004D1FFF7E1FF0122024B1A70FFF7ACFF08BDC046590100200230800804D0C0460138FDD1C046C046C0467047EFF3108072B6704780F310887047C046C046C046D7
:40160000CBB203700B0ADBB24370090CC9B281707047C046027843781B021343807800041843704710B5C04B1B68002B00D09847BE4B1B68DB0702D50022BD4B1A60BD4B53
:401640001B789B0628D5BC4B1B68DB0507D5BB4A1188C0239B000B431380012300E00023B54A1268D20706D5B44A118890239B000B4313800123002B0FD0AE4A1278D20753
:4016800001D5012200E00222AC49088802430A800021A84A117000E00023A64A1278920600D414E1A44A1268D20611D51022A44B1A60A04B1B78DB0701D5012300E0022347
:4016C0009E4A11880B43138010229A4B1A7029E1984A1278120720D5974A126892070AD50222974B1A60954A118888239B000B431380012311E08F4A1278D20703D5252102
:401700008C4A117009E024218A4A11708D4A1268002A02D014398C4A1160864A1278520700D4ABE0834A1278D20749D5874A1268120727D5864A1268864909680F240C4025
:40174000854909686418141B082C09D8002C16D1824A1168824B0B401360012308340EE008240CE07C4A11687E48006841187E480068C0B20870116801311160013C002CBE
:40178000F0D119E0714A1268520715D5724A116874480068411874480068C0B2087011680131116011686A4A1268914203D204216E4A116000E001236D496E4A11605DE05E
:4017C0005D4A1268920726D502225D4B1A606A4A13680F211940136880221202134000D00123CB18654A1168CB1A13601268644B1A60524A118884239B000B431380614BB4
:401800001A68802149020A431A6019685E4A0A401A60012332E05D4A1268D20612D424E0564A1168474A1268914211D2534A11685748006841180978C9B2564801601168A9
:40184000013111604C4A12680F210A40082AE7D14A4A11683B4A1268914202D140213A4A11604D494D4A116008E0484A1268520604D5424B1A68424B1A600123002B51D000
:40188000364A1168364B0B4013600023444A13602D4A1360434B1B789B070ED5254B1B78DB0701D5092300E00A23244A11880B43138060221F4B1A7034E03B4B1B689B062C
:4018C00001D5182200E01022284B1A602AE0194B1B78DB0626D4354A13685B005B0813601021144B19701D4B18683149014019601868304901401960002329490B6012498F
:401900000B601B49254B196023491A4B19602A492A4B19602A490A4B19601368802109060B43136010BDC046540100208C0E0740880E0740960100200C0F0740A401002033
:40194000000F0740A0010020880F0740CC0F0740B001002008030740B401002060000740FFFEFFFFA80100204003074068000740ED0F0000C00F0740080207409801002098
:401980009C01002004020740FFFFFEFF8C0F0740B801002040020740F3070000800F0740C80F0740AC0100206400074000000740FF5FFFFFFFFCFFFFFF0F0000400F074038
:4019C00017030000014B18687047C04640030640024B1B680F2018407047C046080306400E4B70B500251E1C0D4CE41AA410A54204D0AB00F35898470135F8E700F0A4F93C
:401A0000084B00251E1C084CE41AA410A54204D0AB00F35898470135F8E770BD541D0000541D0000541D00005C1D0000031C8218934202D019700133FAE7704702780B789E
:401A4000002A03D0013001319A42F7D0D01A70470023C25C0133002AFBD1581E704700001000000000000000017A5200027C0E011B0C0D001000000018000000C0FFFFFFA7
:401A800014000000000000000000000076040000CE040000CE040000CE040000CE040000CE040000CE0400006A040000CE040000CE040000CE040000CE040000CE04000024
:401AC000C60400007E040000860400008E040000960400009E040000A6040000AE040000B6040000BE040000426F78206F70656E6564000049443A200000000057726F6E19
:401B000067206B6579000000416C61726D2064697361626C65640000416C61726D20656E61626C656400000057726F6E672070617373776F726400004775657374726F6FC0
:401B40006D20414C41524D2100000000426564726F6F6D20414C41524D2100004E4F204D4F54494F4E00000053797374656D206973207265616479003039303038423331E4
:401B8000364244380000000031313131000000003134372A3235383033363923000000000000000040000000140000005400000000300F40000400400F40000402000F4004
:401BC00028300F400A310F403F320F4021330F4005400F4003410F4002600F40820D830D405149FF4AFF4BFF4F0150185A045D095F016040624064406540668068806A80CF
:401C00006C806E80C041C9FFCAFFCBFFCD83CE03CF01D018D280DA04DB04DD99DF01E040E240E440E540E680E880EA80EC80EE804202468248017401768077808F10D098D5
:401C4000D208E2100E012E01300136013E01404145EC4720482349FF4AFF4BFF4D834E034F015018540158045A045B045C095D995F016040624064406540668068806A800F
:401C80006C806E809201AA01B001B401BE01C046C5ECC702C813C9FFCAFFCBFFCF01D018D280D401D804DA04DB04DC09DD99DF01E040E240E440E540E680E880EA80EC804F
:401CC000EE8006020902100817801A401B101E801F4041024682480849054D044F015008560259055A405D045E805F01710287409A809B809E02A710C080C208C482D0912A
:401D0000D204D6DB6F0871208F08DA80DC208520A520E21002011101030405060708090A0B0C0E0F101112131415161718191B1C1D1E1F2021222325262728292A2B2E2FF5
:401D40003031323334350000F8B5C046F8BC08BC9E46704721020000E50A0000F8B5C046F8BC08BC9E467047F9010000801D0000C800002028000000D0000000000000001F
:401D80000000000001000000781B0000881B0000270000000000E02EC05D00001800000000366E0104040400000000000000000000000000000000000000000000000000D1
:401DC00000000000000000000000000000000000000000000000000000000000000000000000000000000000000000000000000000000000000000000000000000000000E3
:401E000000000000000000000000000000000000000000000000000000000000000000000000000000000000000000000000000000000000000000000000000000000000A2
:401E40000000000000000000000000000000000000000000000000000000000000000000000000000000000000000000000000000000000000000000000000000000000062
:401E80000000000000000000000000000000000000000000000000000000000000000000000000000000000000000000000000000000000000000000000000000000000022
:0200000490303A
:02000000CE8EA2
:0200000490402A
:200000000000000000000000000000000000000000000000000000000000000000000000E0
:0200000490501A
:0C000000000204C81193110104D1E0219A
:0200000490600A
:0100000001FE
:00000001FF