:400000000010002011000000DD020000DD02000008B500F015FA00F063F90000F7B572B6624B01221A70E02200219200604800F0FAFF80220021D2005E4800F0F4FF5E4980
:400040005E48802200F0E6FF0023191C5C4C18592434C2B20192071CFF2297434A00A4180022019ED5B2AE4209D05500665D6519B446BC446D78664635700132F1E7C0B21B
:4000800004330918242BE1D14E4B802252001A804D4B01221A704D4B30221A604C4BC02292041A604B4BEE2212021A604A4B02221A604A4B31211960494B40211960494BC5
:4000C000C02149031960484BD821090119604749474B80201960474B802189021960464BC02109031960454999231B040B6044498005086043490C200B60434B0521196044
:40010000424B06211960424B19780A431A70414A117881430420014311701A7816210A431A703D4A80231168DB020B4313603B4B141C18783A4BC0B219783A4BC9B21A789B
:40014000172A05D9384A58789978033B9342F6D1364B19221860364B05201960354B1A6000F042FC344B05201A78344BD2B21A6000F082FD2268324B13402360314A324BB1
:400180001A60324B30221A60314B10221A60314B802212061A60304A304B1A60304A314B1A60314A314B1A60F7BDC0461C700F4080300F4000400F404410000000300F405E
:4001C000C410000000600F4002600F4000000140040001400C00014000000440080004400001044008010440080304400400990000500F4004500F4008500F4010500F4052
:4002000018500F4030500F402000004000800F4000700F4001700F4000010B40CCF1FF0FCDF1FF0FC9F1FF0FBDF1FF0F1CFF0B4020FF0B402CFF0B40E5F1FF0F28FF0B4087
:40024000FFFFFBFF0600008004010B40200202403002024008010B4033000080000002403F010080400002402B0100C08000024010B5064C2378002B07D1054B002B02D09D
:40028000044800E000BF0123237010BDF0000020000000004010000008B5084B002B03D00748084900E000BF07480368002B03D0064B002B00D0984708BDC0460000000074
:4002C00040100000F4000020D00000200000000008B500F079FB00F08BFAFEE7FEE7000070B51048104B0138421C15D01E685C689D680022A118AA4203D0B158A1500432DD
:40030000F8E7DA680D1C4C1B944202D0002410C1F9E710330138E7E700F056FEFFF7D8FFFEE7C046010000003013000008B500239A00032B02D80D49895800E00C490D48C2
:4003400001338150302BF3D1FFF768FE0A4B00221A600A4B1A68002A00D11A608023DB051A6801210A431A6008BDC04600000000DD02000000000020C8000020C000002040
:40038000004770B5051C0E1C141C002802D0002000F04EFC0020002C05D0013CAA19125D8318D8B2F7E770BD013808B509282AD8C901494200F0F4FD0507090B0D0F16147D
:4003C000181B154B08E0154B12E0154B0DE0154B0EE0154B00E0154BC9180878C0B21AE0134B02E0134B00E0134BC9180FE0134BC9180B7848788A78000212041043184332
:40040000CB781B0606E0002000F012FC00210B7848780002184308BDC07F0000C17F0000C57F0000C97F0000D07F0000D17F0000D67F0000D27F0000D47F0000D87F0000D4
:400440000C4B10B51A6810231A400B4B00D11A601A68802A0DD100240220211C1C60FFF7A3FFA04205D0211C0220FFF79DFFFFF787FF10BD00030B40C0000020F8B5051C22
:40048000291C0320FFF790FF291C041C0420FFF78BFF671CFF013F18291C0320FFF784FF00240130C001261CB84209D203785A1ED2B2FD2A00D801261C19E4B20130F3E7EB
:4004C0000120291CFFF770FF6442E4B20623844203D17242564176423340181CF8BD0000F0B5BB4CA544029000F0B6F962B600250A2403942F1C029B002B00D1FF2305AC54
:40050000962108A84900221C00F0C0F9029E002E03D0039B013BDBB20393039E002E02D00028E8D102E0002800D099E02188062900D83FE108A802780423012A5FD12322F0
:400540006A44222614786E4432782402144302195079E61D844610798E4200D92CE19279172A4CD1E3189BB20022002B09D09EAEF118984E013B891909789BB2521892B2C4
:40058000F3E7614652420B0292B218430823904235D16EE0342B00D0AAE0012D00D009E1032C00D006E153A80021802200F03BFD8027E21E53AD69463C19E8192731A4B262
:4005C00000F028FD832C00D0F1E026266E442521307869440B78000218437F4B019C1B6827021A68C019D30980B29BB2550601D001339BB2012598427FD200270A230021E1
:40060000012008AC20706846213003706B4622336A4600201632197058700B1D11809BB29EAEF4186B4E013BA41924789BB2001980B2002BF4D19EAC684E63189C1940428E
:40064000674E80B220709C19000A2070654807311B181720187089B208A8962300F004F9029C002C00D146E7012D00D0ACE0012541E708AE307901907378181C31380A2802
:4006800001D90523BBE700F095FC0B001800FCFF85FF3E00FCFF4100510085FF5F008700012D00D086E0002C00D083E0201CFFF7E5FE4342434133716BE0012D7AD1012CC8
:4006C00078D1019C002C75D1434B1B681B68DA0BD2B2DB09DBB2002A01D080235B0033711B0A7371FF23B3710023F371042187E7012D5FD1022C5DD95BE753A900F088F9BD
:40070000071E11D079E7012D54D157E0012D51D196233E195B009E424ED853A9C819221C09A900F077FCB7B2002368E7002C41D106AB2D4A191C60CA60C109AA21CB21C295
:4007400008210125231C5BE7012D33D1032C31D1B379019C76791B021E4321027118C90100208022FFF70DFE041C019800280DD1FF2E0BD101990520FFF716FE0199241A6E
:400780000620FFF711FEE4B2241AE4B2644208AB1C710023012133E70020FFF76FFE002802D1124B80221A6000F044FA02E00125002701E0042322E7032320E7029C002708
:4007C000BC4200D197E652E79F239B009D44F0BD84FDFFFFA7FDFFFFD4000020ACFDFFFFADFDFFFFAEFDFFFF04130000C000002038B50020FFF742FE0025A84200D0062538
:40080000134C00202368C0211A68C03AFFF7B9FD62681378181AC0B2984203D123681B68002B02D1002000F003FA0A4C2368402B01D0002D03D000202060FFF751FEC820FB
:40084000FFF74EFE8023236000F0F4F938BDC046D4000020C000002008B500F06BFA00F0C9FA00F01BFB08BDF8B5061C0D1C171C00F0C0FA341C2078013400F0E1FAA31B59
:400880009BB2AB42F7D33D800020F8BDF0B50A255D4385B001900391171C0024AC4214DA00F08CFA00280AD000F088FA041C192000F0CCF900F082FAA042F5D808E0012085
:4008C000013400F0C3F9A4B2E8E70521009101E00022009200243C8000F070FA002825D000F06CFA3B880399C21892B2061C3A808A421AD2251C2B1B9BB2B34209D2019AA9
:400900005219029200F02EFA029B01351870ADB2F1E734190199A4B20B19013B1B78172BDAD0052000F092F9D6E73B80009805B0F0BD00000D4B8022D2041A601A680021F3
:400940001A600B4A11601A681A600A4B0C221A60094B01221A60094B31221A60084BFE221A60084B7F221A607047C04600010540080105402401054038010540280105402A
:40098000140105400C01054038B50C1C051C00F035F8034BA5401D6000F034F838BDC0460800054010B500F029F8064B01241A6822431A6000F026F8201C1821FFF7E4FF1B
:4009C00010BDC0460000054010B5054C2378002B03D1FFF7AFFF01232370FFF7E3FF10BD0C010020000000000230800804D0C0460138FDD1C046C046C0467047EFF310802C
:400A000072B6704780F310887047C046C046C046F0B50024CBB0069404900794FF2800D9A4E0A14200D1A1E008AD8022281C00F0F1FA231C211C221C029498002858002837
:400A400002D01218014302930133202BF5D1002A05D1002900D08EE00191039102E0002001900390484F7F2328AE291C80222AA82897464C736000F0CDFA454A454B266061
:400A800013602168090F0A2903D022680F23134000E000230693069F002F69D1FFF7AEFF3D4A3E4B116807971960069B0590002B14D13B4A04982892289A01040A43289231
:400AC00028AA22603249374A0A602268120F0A2A03D02E4B1A680F2313400693069F002F38D1019A002A35D0391C8022281C00F09AFA0298039A08A983005A50224B2AA8B7
:400B0000289380227F23736000F084FA214820492660086023681B0F0A2B03D01B4B1F680F231F400697069B002B13D11E4A04982892289A01040A43289215491B4A266058
:400B40000A602268120F0A2A03D0104B1A680F2313400693079B002B04D1104A0E481268026007930598FFF74DFF01E00423069306984BB0F0BD02998B00E85801210390B5
:400B8000EA5001916EE7C046B6D7000008000040040000400400008008010B4010010020B6D8000005000080B6D90000060000801F2800D901BE034A800083181868196084
:400BC0007047C0464000002038B5041C0D1E032D00D901BE1F2C00D901BEFFF70FFFA308084A9B009B1803221440944019680634A2409143A5400C1C2C431C60FFF702FFF9
:400C000038BDC04600E400E01F23184001238340181C014B1860704700E100E01F23184001238340181C014B1860704780E100E001BE7047034B04491A6892B20A431A60F5
:400C40007047C0460CED00E00400FA0510B5041C8022074B1202944205D91868FFF7C4FE044BE418F4E758686043FFF7BDFE10BDDC0000200080FFFF08B5034B1B7A584346
:400C8000FFF7B2FE08BDC046DC00002008B510490020FFF78DFF00200321FFF795FF0D4B72221A700C4B20221A700C490220FFF77FFF02200321FFF787FF094B07221A70F4
:400CC000084B48221A70084B02221A7008BDC046D10E000080000F4081000F40410F000023000F4033000F4082000F4038B5FFF785FE0D4B20211A7810240A431A700B4B5C
:400D0000051C1A78002022431A70FFF77DFF084B02201A7814431C70FFF776FF00F036F9281CFFF76FFE38BD90000F4091000F4092000F4010B5054C2378002B03D1FFF729
:400D4000A5FF01232370FFF7D1FF10BD1401002008B50020FFF758FF08BD08B50020FFF75DFF08BD38B5FFF7F8FF114A53789178D078DBB2C9B2002801D18B4211D00D4916
:400D80003F20CC5C00210133DBB20D1C98424D41684203405370D378E4B28B4204D0D17002E0054B1C78E4B2FFF7D2FF201C38BD140100201C01002040000F4010B5FFF7B6
:400DC000CCFF0B4B59789A78914204D1DC78631E9C41A40108E059789A789C785B78914200D34034E41AE4B2FFF7B2FF201C10BD1401002008B5FFF701FE0A4B01221978F0
:400E000011431970197891431970FFF7FBFDFFF7A4FF054B00225A709A70DA701A71FFF797FF08BD90000F401401002008B50220FFF7EAFE08BD08B50220FFF7EFFE08BDD7
:400E400030B512498B794A79D2B2934202D2541E1C1B01E09C1A3F3C65426C41E4B2002CF1D19A4206D10A4A1278540702D4094B187009E000223F249C4252415242134047
:400E8000054AD05401338B7130BDC0461401002062000F4042000F405C01002008B5FFF7ADFD094B0122197811431970197891431970FFF7A7FDFFF7BEFF044B00225A71EF
:400EC0009A71FFF7B3FF08BD92000F401401002010B5144A1378111CDBB29A0621D51248124B1A7804781248D2B2E4B28454114A1078002802D010480124047018780130C6
:400F0000C0B2187018783F2801D90020187018780A4B1B78984201D1012313700B78DBB2DBE710BD61000F4040000F40160100201C0100201701002018010020150100207A
:400F40000D4B0E491A780978914214D00C4A117804220A400FD119783F2900D91A701A780849D2B2895C084AC9B211701A780132D2B21A70E4E77047190100201A01002009
:400F800062000F405C01002042000F40034B8022196812060A431A607047C0460000024002B4714649084900095C49008E4402BC7047C04603B47146490840004900095E72
:400FC00049008E4403BC704770B50E4B0E4D0024ED1AAD101E1CAC4204D0A300F35898470134F8E700F092F9084B094D0024ED1AAD101E1CAC4204D0A300F35898470134B8
:40100000F8E770BD1813000018130000181300002013000010B50023934203D0CC5CC4540133F9E710BD031C8218934202D019700133FAE770470000601300009A0000007D
:401040000000000000100000F3180C000008F300827F0000413C00420F3CF041C36700181C00E30408000000040000030C040000FF000000C01F2C200F401C0000202802CF
:401080000000000463050400010E00C021FFFFFF62A0F0410C00000000000212040404040000000100000000000040020010301000101012000000000000000000000000AB
:4010C0000000000003000F4013300F403C310F4062320F4041330F400B400F4008410F4004430F4002600F4080728138820F83018C0892029A01A004AA01AE02B002B1014B
:40110000B201B408B604BE55D418D604D804D904DB04DF0100440308048009010A260D010F8410801140132815201641180419161A201B401E091F052110220527402820AD
:401140002920311432013340382839C03A023B803D02402141014210430849104B8452015A085D02674A680469046A4070947202732887408A01C087C25FC4DFCA06CC0FE1
:40118000CE8FD00BD20CD682D8B0E680010602030309040906F0071D089C09200A2214301507164C1718181419071B082480251226102701282C2AD1301F3101331E34E0CD
:4011C000352037203A203B083F414034410245EB47C0482349FF4AFF4BFF4EF04F44500C54015604580459045A045B045F0166C06A406B0284E7871789188B038C448E313C
:401200009080951897059801990E9A0EA022A251A4E7A902B060B280B318B407B507B618B908BBA0BE40BF04C003C501C705C811C9FFCA07CBFFCC40CD20CEF0CF05D0085F
:40124000D804D904DA04DF01E040E1A8E240E32000480404051106400A440D080F0811061520161018411A141D111F102174222024042508260827822A102B082F103118B5
:401280003628380439203C243F0241044528470248104C404D014F08530857015D115E085F806780874089108B019104924094C1958096149E40A004A101A204A921C07599
:4012C000C26AC46CCA44CC66CEE6D0E2D6F0D880E61003405F106E80712086408B10C010D620DA80DC20E640620485208E04A520AB40D840E210EC8018808C40C608E60821
:40130000100111019311C804111E0101F8B5C046F8BC08BC9E467047990200002D030000F8B5C046F8BC08BC9E4670477102000040130000D000002020000000B00000000C
:4013400000000000381000003C1000000000E02EC05D00001800000000366E01000000000000000000000000000000000000000000000000000000000000000000000000F1
:401380000010002091130000991F0000991F000008B5024B83F3088800F000FE0010002038B5164C23688022D20213432360182000F0D4FE2268124B13402360114A124B23
:4013C0001A601022114B1A601032114B1A6080221206104B1A60002525600F4A0F4B1A600F4A104B1A6009200F4900F05DFE092000F044FE0D4B1D6038BDC04600010B407C
:40140000FFFFFBFF0600008004010B40080202400C02024008010B400E00008000000240CF000080400002406D2300000C020B4010B572B60122364B1A70002410E03548B8
:4014400063001A195200821891881B195B001A5AC31858880004104300F00AFE0134E4B2012CECD92B49081C0C302C3100F0E6FD90221203284B1A60EE221202274B1A603F
:40148000EE22274B1A6099231B04264A1360264A1360A8210904254A1160254A1360254A1360AA221206244B1A600522234B1A600132234B1A60234B1978043A0A431A700A
:4014C000214C22783C20824314210A432270197816220A431A701D4A1D4B1A603E221D4B1A601D4A1D4B1A601D4B18601D4A1E4B1A60F0221D4B1A601D4A1E4B1A600322AF
:401500001D4B1A6021321D4B1A60FFF749FF10BD1C700F4078310000000001400C0001401000014000500F4010500F4014500F4020500F4030500F4034500F402000004064
:4015400000800F4000700F4001700F40B01100000800044000010440902401000801044000020440469200000802044000030440802D490008030440000404400804044039
:4015800010B5064C2378002B07D1054B002B02D0044800E000BF0123237010BDF800002000000000F02F000008B5084B002B03D00748084900E000BF07480368002B00D180
:4015C00008BD064B002BFBD09847F9E700000000F02F0000FC000020D00000200000000010B50C1C0C4B187000F026FC0020002100F032FC094800F063FC0020012100F0E6
:401600002BFC201C00F05CFC012000F0C9FF002000F0BAFF10BDC046140100207830000008B51D4B1B78002B33D101F08DFA012803D11A49FFF7D4FF2BE001F08DFA012879
:4016400004D101301649FFF7CBFF22E001F064FA012804D102301349FFF7C2FF19E001F063FA012804D103300F49FFF7B9FF10E001F062FA012804D104300C49FFF7B0FFCA
:4016800007E001F041FA012803D105300849FFF7A7FF014B187808BD140100208C300000A0300000B0300000B8300000C0300000CC30000008B50D4B1B78002B13D00B4AD7
:4016C00001235370536801335360094A93420AD101F08AF9031C58425841C0B201F078F90022024B5A60014B587808BD1401002050C3000010B5FFF7DDFF002824D0134A62
:40170000936801339360124A93421DD10F4C002363702370012001F05BF900F08DFB0020002100F099FB237B002B03D1094800F0C7FB02E0084800F0C3FB0020012100F02F
:401740008BFB0022014B9A6010BDC0461401002020A10700D4300000E430000008B5002001F036F9322000F0D7FC012001F030F908BDC04610B5041C074B1B78002B01D1B4
:40178000FFF7ECFF201C00F095FB034A537B591C5173024AD45410BD140100208001002010B5041C104B1B78002B01D1FFF7D6FF201C01F015FC021C201C002101F0FEFBE3
:4017C0000022094B5A730020012100F045FB002403E0202000F06EFB01340F2CF9DD0020012100F039FB10BD1401002008B5002001F0EEF8642000F08FFC012001F0E8F841
:40180000642000F089FC002001F0E2F8642000F083FC012001F0DCF808BDC04610B5354B9B7B002B62D101F0BDF8334B186000285CD0022802D003280AD051E02F4C201C8E
:4018400001F0CEFB021C201C002101F0B7FB4DE02B4B1968294801F0B9FB002829D100F0EBFA0020002100F0F7FA264800F028FB0020012100F0F0FA234800F021FB1F48C2
:4018800000F01EFB1B4B1B78002B01D1FFF7AEFF0122184B9A73FA20400000F03DFC00F0CBFA1A4800F00CFB0020012100F0D4FA12E000F0C1FA0020002100F0CDFA144871
:4018C00000F0FEFA0020012100F0C6FA0E4800F0F7FA0A4800F0F4FA0022064B1A6105E0044A1369591C1161044AD054014B987B10BDC046140100207C0100206C01002020
:40190000D4000020F0300000FC300000043100001431000008B5002001F05AF8322000F0FBFB012001F054F8642000F0F5FB002001F04EF89620400000F0EEFB012001F09B
:4019400047F808BD38B5041C01F040FB002809D1FFF74CFF00F070FA0020002100F07CFA01250FE0FFF7D6FF00F066FA0020002100F072FA0C4800F0A3FA0020012100F006
:401980006BFA0025201C01F02BFB021C201C002101F014FB0022054B5A730020012100F05BFA281C38BDC046203100001401002010B500F037F92A4B18702338C3B2162B51
:4019C00040D89800274B1B589F462748FFF7E8FE002044E03120FFF7CDFE00203FE03220FFF7C8FE00203AE03320FFF7C3FE002035E03420FFF7BEFE002030E03520FFF785
:401A0000B9FE00202BE03620FFF7B4FE002026E03720FFF7AFFE002021E03820FFF7AAFE00201CE03920FFF7A5FE002017E03020FFF7A0FE002012E00C4B59680A48FFF714
:401A400081FF0CE0084C201C01F0CAFA021C201C002101F0B3FA202000F02CFA002010BD7A0100201C30000080010020D400002008B562B600F03EFF00F0B4FD00F0A8F8AA
:401A80004C4B187A10210222002300F06FF900F027FA00F0F9FF484801F028F8002000F07FFD012000F070FD012000F091FF0020002100F0D1F9414800F002FA404800F000
:401AC0002BFB00F0B9F90020002100F0C5F93D4800F0F6F90020012100F0BEF93A4B1B7B002B49D0FFF79CFD002822D0FFF796FE0028F3D0FFF75CFF0028EFD0324B00228E
:401B00001A731A70002000F04BFD012000F03CFD012000F05DFF00F08FF90020002100F09BF9284800F0CCF90020012100F094F9D4E7FFF773FE0028D0D0FFF739FF00281E
:401B4000CCD0214B00221A731A70002000F028FD012000F019FD012000F03AFF00F06CF90020002100F078F9164800F0A9F90020012100F071F9B1E7FFF71AFF0028ADD0AF
:401B8000114B01221A7300229A731A70002000F007FD012000F0F8FC00F04EF90020002100F05AF9094800F08BF90020012100F053F993E7D4000020F5160000303100006F
:401BC00070170000D430000014010020E430000008B5034800F0B6FC00F080FC08BDC046C11C000007490A78531CDBB20B7001380549085C05498854092B02D90022014B78
:401C00001A7070472C0100205831000094010020034A13785078181A431E9841C0B270472C01002008B5FFF7F3FF0028FBD006494A78531CDBB24B700449885C092B02D9B6
:401C40000022014B5A7008BD2C01002094010020002306E0C20701D5181C05E00133DBB24008072BF6D9FF207047C04638B50F2000F0CEFBF82000F073FC00F0D5FB041E90
:401C80000F2C18D0072000F06BFC201C00F0C0FB00F072FC051E072D0FD0E043C0B2FFF7D7FF041CE843C0B2FFF7D2FF800020430130C0B202E0002000E0002038BDC046A0
:401CC00038B500F0C7FB284CA5786B1CA370FFF7CDFF65192871A378092B02D90022224B9A70FF24002305E05A1C1F49CB181B791C40D3B2092BF7D9E3B21B4A917BCAB297
:401D0000181C104302D1184B9C732CE0101C984304D0154B9C730022DA7324E0934307D0201CFFF75FFF104B0022DA739C731AE0214218D00C4BDB7B4F2B05D80A4A013327
:401D4000D373002313740CE0074A137C0133DBB21374272B05D90022034B1A74201CFFF741FF014B9C7338BD2C01002010B5064C20700648017006490A70064A13700822F6
:401D8000054B1A7010BDC0469F010020A4010020A5010020A10100209E01002010B50C1C002100F095FC201C00F044FD00F0FCFC10BDC04608B5054B1A78054B1B78011C54
:401DC0001943101CFFF7EAFF08BDC0469F0100209E01002010B5041C04202043FFF7EAFF012000F0B1F90423201C9843FFF7E2FF322000F0A9F910BD10B5041CFFF7DAFFB2
:401E0000201CFFF7E7FF10BD38B50D1C0F23021C9A43131C0001C4B20B43181CFFF7ECFF201C2843FFF7E8FF38BDC04608B50021FFF7EAFF08BDC04608B50120FFF7F6FFA1
:401E4000022000F069F908BD08B50220FFF7EEFF022000F061F908BD70B584B06B460C4A70CA70C31C1C136823600A4B1B78994201D9591EC9B289006B46CB58C0188023CC
:401E80005B421843C0B2FFF7D1FF04B070BDC04668310000A501002008B5054A107804231843107004331843FFF7C0FF08BDC046A001002008B50121FFF7A6FF08BDC046FE
:401EC00070B5061C01F08CF8051C002403E0305DFFF7F0FF0134EBB2A342F8D870BDC04610B50022254B1A70254B1B78012B02D90821224A1170234A1278002A06D0012BAE
:401F000004D11E4A117804230B431370322000F003F91D4B1878FFF74DFFFA20800000F0FBF83020FFF768FF184C201C00F00CF93020FFF761FF201C00F006F93020FFF795
:401F40005BFF962000F000F92020FFF755FF0B4B187820231843FFF769FF04220C4B1A70FFF79AFFFFF768FF02220A4B1A700620FFF75CFFFFF768FF10BDC046A30100209B
:401F8000A5010020A10100209E01002094110000A0010020A2010020FEE7C04670B50F4E0F4D13E029686B68AC68002202E001C901C30432A242FAD1E868002202E0002191
:401FC00002C304328242FAD11035013E002EE9D100F0CEFFFFF74CFDFEE7C046010000003433000008B500230AE0032B03D89A000D49505800E00D4899000D4A8850013300
:402000002F2BF2D9FFF714FA00220A4B1A600A4B1B68002B01D1084B1A608022D205116801230B43136008BD80130000991F000000000020C8000020C0000020F0B500254B
:40204000002711E0BB00C658F3B2FF22964308E06A008A181478A419527822700135013BDBB2002BF4D10137072FEBD9F0BDC04608B50A1C002100F0A1FF08BD1F23184070
:402080001E3B8340181C014B1860704700E100E01F2318401E3B8340181C014B1860704780E100E001BE704738B5041C0D1C1F2802D90020FFF7F6FFA400034B9C46644499
:4020C0002068256038BDC0464000002070B5041C0E1E032E02D90020FFF7E4FF1F2C02D90020FFF7DFFF03252540ED00063500F045FDA408A400074B9C4664442368032225
:40210000AA409343AE40351C1D43256000F03AFD70BDC04600E400E010B5041C06E0084B186800F021FD074B9C46644480231B029C42F4D8024B5868604300F015FD10BD2C
:40214000E00000200080FFFF08B5034B1B7A584300F00AFD08BDC046E0000020F0B557464E46C0B483B0041C00F008FD0190E71E2D2F74D83F4B1B78DBB2A34208D33E4B21
:402180001B78DBB29A463D4B1B78DBB2994631E03B4B1B78DBB2A34208D33A4B1B78DBB29A46394B1B78DBB2994623E0374B1B78DBB2A34208D3364B1B78DBB29A46354BB3
:4021C0001B78DBB2994615E0334B1B78DBB2A34208D3324B1B78DBB29A46314B1B78DBB2994607E02F4B1B78DBB29A462E4B1B78DBB299462D4BDE5D2F2E09D92A2C07D994
:4022000019222B4B1A60052000F0AEFC192503E0274B1D683F231D40AE4206D2234BDA5D234B1A60052000F09FFC1F4B9C4664442378DBB21F4A13601F4B52461A601F4BFA
:402240004A461A600520FFF77FFFAE420AD9174BDA5D174B1A60052000F086FC02E00020FFF720FF019800F08DFC03B00CBC91469A46F0BDC0F1FF0FC1F1FF0FC2F1FF0F94
:40228000C3F1FF0FC4F1FF0FC5F1FF0FC6F1FF0FC7F1FF0FC8F1FF0FC9F1FF0FCAF1FF0FCBF1FF0FCCF1FF0FCDF1FF0FE03200002CFF0B4028FF0B401CFF0B4020FF0B40C7
:4022C000034B1868C0231B02184000D00120704700010B4008B500F051FC044A1368C02109020B43136000F04DFC08BD00010B4010B500F043FC08490A68084B1A40802402
:40230000E40122430A600A6813408022120213430B6000F037FC10BD00010B40FF3FFFFF70B5061C00F02AFC041CFFF7C9FF002803D0FFF7DDFF012500E000250848331C63
:402340000340084A106808490840184310601368012D01D1FFF7BEFF201C00F013FC70BD0404040010020B40FBFBFBFF10B5244B1B685B0715D5234B1B685B070ED5224B57
:402380009969042001401F4C22688A4322609A6982439A61DB68002B00D098470420FFF7BFFF174B1B685B0518D5164B1B685B0510D5154B99698022D20011401148026875
:4023C0008A4302609969114A0A409A611B69002B00D098478020C000FFF7A2FF084B1B685B030CD5074B1B685B0304D5064B5B69002B00D098478020C002FFF791FF10BDF2
:4024000010020B40F000002040010020FFFBFFFF044A11680F230B400001C0B2184310607047C04600030440024B18680006000F7047C04604030440024A117880230B43A0
:402440001370704771000F40014B18707047C04682000F40014B1878C0B2704762000F4008B5011C014800F093FB08BD20000F4008B5024800F096FB08BDC04640000F4093
:4024800008B5011C014800F083FB08BD00000F4008B501E0FFF7ECFFFFF7DCFF0307F9D408BDC04610B50B4C201CFFF7D9FF201CFFF7E6FF00F062FB074A117810230B43A0
:4024C000137000F05FFBFFF7E3FF0120FFF7BCFF10BDC046BFD4010092000F4008B5064B1B78002B04D1FFF7DDFF0122024B1A70FFF7A2FF08BDC0465C010020014B986489
:402500007047C0460000002010B5041C00F036FB044A1168044B0B40A4051C43146000F031FB10BD00E400E0FFFF3FFF0422014B1A60704700E100E00422014B1A607047EB
:4025400080E100E010B5041CFFF7F6FF201CFFF7D5FF0320FFF7D8FFFFF7E8FF10BDC04604490A68F1231A404000E33B184010430860704700010440024B18680007400FE7
:402580007047C0460401044004490A68FD231A404000FB3B18401043086070470000044004490A68FB231A408000F73B18401043086070470000044008B50A20FFF75EFD29
:4025C00008BDC04608B500F01DF808BD08B5044A1368802109060B431360FFF7EDFF08BD0000064008B5064B1B78002B04D1FFF7E9FF0122024B1A70FFF7E8FF08BDC04684
:402600006001002010B51D4A11680C230B43136000241B4B1C601B4A1B4B1A601B4B1C4A13601C4A14601C4A14601C4A13601C4B1C600A20FFF72CFD0A200321FFF746FDBA
:402640000A201849FFF730FD174B1C60174B1C60174B1C601422FF32164B1A60164B1C60164B1C60043AFF3A154B1A70154B1C80154B1C60154B1C6010BDC0467000064078
:40268000000006407708008060000640070100800003064004030640100306400002064004020640B52B0000C80E0640880E0640480F0640080F0640C80F0640880F064058
:4026C000A6010020B4010020C4010020AC01002038B52E4B1B78102B53D12D4B1B68DB0751D40D1C041C0A20FFF7D2FC6000FF231840002D03D12422244B1A7004E02522B6
:40270000224B1A7001231843224B1860224A234B1A600222224B1A60204B1A680823FF331A42F9D01D4B1B685B0714D41B4B1B689B0713D4194B1B68DB0705D51022134B96
:402740001A70012001210BE01022104B1A7080204000012104E00020002101E0022000210822FF320D4B1A6000290DD00D4A13685B005B0813601368802109060B4313601D
:4027800002E0042000E0082038BDC046A6010020640006404002064017030000000F064068000640000006401D4B1B789B0634D51C4B1B689B0601D5182200E010221A4BFD
:4027C0001A601A4B1A681223FF331A42F9D0174B1B68DB0606D4154B1B68DB0705D50120012105E00020002102E08020400001211222FF320D4B1A60023AFF3A084B1A70D7
:4028000000290BD00A4A13685B005B0813601368802109060B43136000E004207047C046A60100206400064068000640000F064000000640214B1B789B063CD5204B186099
:40284000204B1A680823FF331A42F9D01D4B1B685B0705D56022194B1A700020002119E0184B1B689B0705D56022144B1A70022000210FE0134B1B68DB0705D510220F4BF0
:402880001A700120012105E010220C4B1A708020400001210822FF320A4B1A6000290BD0094A13685B005B0813601368802109060B43136000E004207047C046A6010020B0
:4028C00040020640000F06400000064008B500F067F808BD08B500F01DF808BD08B5044A1368802109060B431360FFF7EFFF08BD0000074008B5064B1B78002B04D1FFF7DF
:40290000E9FF0122024B1A70FFF7E8FF08BDC04668010020114A124B1A600023114A13600121114A11601148114A1060072211480260114803601148016011490A60114AD6
:402940001360114A1360114A1360114A1360114A1360114A1360114A136070470B0000020000074040000740480007400700008000030740040307401003074044000740EB
:402980000002074004020740880E0740C80E0740480F0740080F0740C80F0740880F07407047C04608B500F0DBFA002802D000F0D1FA00E00020054B1A68D8239B001A42D7
:4029C00003D01A1C014B1A60002008BDC00F0740031C04490868FE2202400120184010430860704700020440024B1868012318407047C04604020440024A117880230B4388
:402A00001370704773000F40014B18707047C04683000F40014B1878C0B2704763000F40014B18707047C04623000F40014B1878C0B2704743000F40014B18707047C04655
:402A400003000F4008B501E0FFF7F0FFFFF7E2FF0307F9D408BDC04608B5EF20FFF7E0FFEF20FFF7E9FF00F089F8064A117810230B43137000F086F8FFF7E4FF0020FFF7CF
:402A8000C3FF08BD93000F4008B5064B1B78002B04D1FFF7E1FF0122024B1A70FFF7ACFF08BDC04669010020014B18647047C0460000002010B5041C00F060F8044A1368AB
:402AC000C0218B43A4011C43146000F05BF810BD00E400E00122014B1A60704700E100E00122014B1A60704780E100E010B5041CFFF7F6FF201CFFF7D7FF0320FFF7DAFFCF
:402B0000FFF7E8FF10BDC046024B18684007C00F7047C04604020440024B18688006C00F7047C04604020440024B1868C006C00F7047C04604020440024B18680007C00FC6
:402B40007047C04604020440024B1868C006C00F7047C04604010440024B18688006C00F7047C046040104400230800804D0C0460138FDD1C046C046C0467047EFF31080E8
:402B800072B6704780F310887047C046C046C046CBB203700B0ADBB24370090CC9B281707047C046027843781B021343807800041843704710B5C04B1B68002B00D09847FC
:402BC000BE4B1B68DB0702D50022BD4B1A60BD4B1B789B0628D5BC4B1B68DB0507D5BB4A1188C0239B000B431380012300E00023B54A1268D20706D5B44A118890239B0037
:402C00000B4313800123002B0FD0AE4A1278D20701D5012200E00222AC49088802430A800021A84A117000E00023A64A1278920600D414E1A44A1268D20611D51022A44B20
:402C40001A60A04B1B78DB0701D5012300E002239E4A11880B43138010229A4B1A7029E1984A1278120720D5974A126892070AD50222974B1A60954A118888239B000B4395
:402C80001380012311E08F4A1278D20703D525218C4A117009E024218A4A11708D4A1268002A02D014398C4A1160864A1278520700D4ABE0834A1278D20749D5874A1268AC
:402CC000120727D5864A1268864909680F240C40854909686418141B082C09D8002C16D1824A1168824B0B401360012308340EE008240CE07C4A11687E48006841187E48E2
:402D00000068C0B20870116801311160013C002CF0D119E0714A1268520715D5724A116874480068411874480068C0B2087011680131116011686A4A1268914203D204213A
:402D40006E4A116000E001236D496E4A11605DE05D4A1268920726D502225D4B1A606A4A13680F211940136880221202134000D00123CB18654A1168CB1A13601268644B53
:402D80001A60524A118884239B000B431380614B1A68802149020A431A6019685E4A0A401A60012332E05D4A1268D20612D424E0564A1168474A1268914211D2534A11686A
:402DC0005748006841180978C9B2564801601168013111604C4A12680F210A40082AE7D14A4A11683B4A1268914202D140213A4A11604D494D4A116008E0484A12685206F6
:402E000004D5424B1A68424B1A600123002B51D0364A1168364B0B4013600023444A13602D4A1360434B1B789B070ED5254B1B78DB0701D5092300E00A23244A11880B43FE
:402E4000138060221F4B1A7034E03B4B1B689B0601D5182200E01022284B1A602AE0194B1B78DB0626D4354A13685B005B0813601021144B19701D4B186831490140196040
:402E80001868304901401960002329490B6012490B601B49254B196023491A4B19602A492A4B19602A490A4B19601368802109060B43136010BDC046640100208C0E06403C
:402EC000880E0640A60100200C0F0640B4010020000F0640B0010020880F0640CC0F0640C001002008030640C401002060000640FFFEFFFFB801002040030640680006400D
:402F0000ED0F0000C00F064008020640A8010020AC01002004020640FFFFFEFF8C0F0640C801002040020640F3070000800F0640C80F0640BC010020640006400000064048
:402F4000FF5FFFFFFFFCFFFFFF0F0000400F064017030000014B18687047C04640030740024B1B680F2018407047C046080307400E4B70B500251E1C0D4CE41AA410A542F7
:402F800004D0AB00F35898470135F8E700F0C0F9084B00251E1C084CE41AA410A54204D0AB00F35898470135F8E770BD1C3300001C3300001C33000024330000031C821823
:402FC000934202D019700133FAE7704702780B78002A03D0013001319A42F7D0D01A70470023C25C0133002AFBD1581E704700001000000000000000017A5200027C0E0132
:403000001B0C0D001000000018000000C0FFFFFF140000000000000000000000CA190000441A0000441A0000441A0000441A0000441A0000441A0000381A0000441A00009C
:40304000441A0000441A0000441A0000441A00002E1A0000D4190000DE190000E8190000F2190000FC190000061A0000101A00001A1A0000241A00004D6F74696F6E2074C5
:4030800072696767657265640000000046726F6E74646F6F72206F70656E6564000000004261636B646F6F72206F70656E65640048616C6C00000000426564726F6F6D0066
:4030C0004775657374526F6F6D0000004B69746368656E004E6F74206F6273657276696E670000004F6273657276696E67000000426F78206F70656E6564000049443A20EB
:4031000000000000496E7075742070617373776F72643A0057726F6E67206B657900000057726F6E672070617373776F7264000041646A7573746D656E742E2E2E000000F3
:403140003039303038423331364244380000000031313131000000003134372A3235383033363923000000000000000040000000140000005400000000300F40000400402B
:403180000F40000402000F4028300F400A310F403F320F4021330F4005400F4003410F4002600F40820D830D405149FF4AFF4BFF4F0150185A045D095F01604062406440B2
:4031C0006540668068806A806C806E80C041C9FFCAFFCBFFCD83CE03CF01D018D280DA04DB04DD99DF01E040E240E440E540E680E880EA80EC80EE80420246824801740197
:40320000768077808F10D098D208E2100E012E01300136013E01404145EC4720482349FF4AFF4BFF4D834E034F015018540158045A045B045C095D995F01604062406440A2
:403240006540668068806A806C806E809201AA01B001B401BE01C046C5ECC702C813C9FFCAFFCBFFCF01D018D280D401D804DA04DB04DC09DD99DF01E040E240E440E540C0
:40328000E680E880EA80EC80EE8006020902100817801A401B101E801F4041024682480849054D044F015008560259055A405D045E805F01710287409A809B809E02A71061
:4032C000C080C208C482D091D204D6DB6F0871208F08DA80DC208520A520E21002011101030405060708090A0B0C0E0F101112131415161718191B1C1D1E1F2021222325BF
:40330000262728292A2B2E2F3031323334350000F8B5C046F8BC08BC9E467047A9150000E51F0000F8B5C046F8BC08BC9E4670478115000048330000D00000202800000097
:40334000D800000000000000000000004031000050310000270000000000E02EC05D00001800000000366E0104040400000000000000000000000000000000000000000068
:40338000000000000000000000000000000000000000000000000000000000000000000000000000000000000000000000000000000000000000000000000000000000000D
:4033C00000000000000000000000000000000000000000000000000000000000000000000000000000000000000000000000000000000000000000000000000000000000CD
:40340000000000000000000000000000000000000000000000000000000000000000000000000000000000000000000000000000000000000000000000000000000000008C
:40344000000000000000000000000000000000000000000000000000000000000000000000000000000000000000000000000000000000000000000000000000000000004C
:407FC000EA911300002600000000200000000000000000000000000000000000000000000000000000000000000000000000000000000000000000000000000000000000AD
:0200000490303A
:02000000F60AFE
:0200000490402A
:200000000000000000000000000000000000000000000000000000000000000000000000E0
:0200000490501A
:0C000000000204C81193110104D9079DEF
:0200000490600A
:0100000001FE
:00000001FF