:400000000010002011000000A50A0000A50A000008B500F049FDC04638B5164C23688022D20213432360182000F016FE2268124B13402360114A124B1A602022114B1A60BC
:40004000103A114B1A6080221206104B1A60002525600F4A0F4B1A600F4A104B1A6009200F4900F09FFD092000F086FD0D4B1D6038BDC04600010B40FFFFFBFF0600008089
:4000800004010B40080202400C02024008010B401400008000000240CF00008040000240690E00000C020B4010B572B60122364B1A70002410E0354863001A19520082185B
:4000C00091881B195B001A5AC31858880004104300F04CFD0134E4B2012CECD92B49081C0C302C3100F028FDEE221204284B1A60EE221202274B1A600922274B1A609923A0
:400100001B04264A1360264A1360A8210904254A1160254A1360254A1360AA221206244B1A600522234B1A600132234B1A60234B1978043A0A431A70214C22783C2082432D
:4001400014210A432270197816220A431A7030221C4B1A601C4A1D4B1A600E221C4B1A601C4A1D4B1A601D4B18601D4A1D4B1A60F0221D4B1A601D4A1D4B1A6001221D4B06
:400180001A60FFF749FF10BD1C700F40101C0000000001400C0001401000014000500F4010500F4014500F4020500F4030500F4034500F402000004000800F4000700F4084
:4001C00001700F4000000440804102000800044000010440900418000801044000020440862401000802044000030440802D4900080304400804044010B5064C2378002BB6
:4002000007D1054B002B02D0044800E000BF0123237010BDF000002000000000D01A000008B5084B002B03D00748084900E000BF07480368002B00D108BD064B002BFBD021
:400240009847F9E700000000D01A0000F4000020C80000200000000008B5144B1B78002B23D0134B1B78002B1FD0104A536801335360104A934218D101220D4B5A700B4B52
:4002800000221A705A6000F05DFB012000F00EFF002000F0FFFE0020012100F063FB064800F094FB002001F019F908BD0C010020CC00002040420F00C41B000010B5364B51
:4002C0005B78002B67D001F0F3F8344B1860002858D0022802D003280AD04CE0304C201C01F0EEFB021C201C002101F0D7FB52E0294B59682A4801F0D9FB00281CD100F006
:4003000021FB0020002100F02DFB264800F05EFB0020012100F026FB234800F057FB204800F054FB002000F0C1FE012000F0B2FE0022194B5A7018E000F004FB00200021E2
:4003400000F010FB194800F041FB0020012100F009FB154800F03AFB114800F037FB012000F0A4FE002000F095FE114B00229A6001321A730FE00E4A9368591C9160084A3A
:40038000D05408E0012000F091FE012000F082FE012001F0A3F810BDCC0000206C0100205C010020581B0000641B00006C1B00000C01002010B5041C00F002FB034A537BFD
:4003C000591C5173024AD45410BDC0460C0100207001002010B5041C01F072FB021C201C002101F05BFB0022044B5A7300F0AAFA0020012100F0B6FA10BDC0460C01002006
:4004000010B5041C01F052FB002822D100F09AFA0120002100F0A6FA1A4B1B78002B0FD0194800F0D3FA002000F040FE012000F031FE0022134B1A700132144B9A7311E0E0
:40044000002B0FD1124800F0C1FA01220D4B1A7008E000F077FA0120002100F083FA0D4800F0B4FA201C01F02BFB021C201C002101F014FB0022054B5A730020012100F03D
:4004800071FA10BDCC000020781B00000C010020881B0000981B000010B500F049F9244B18702338C3B2162B35D89800214B1B589F46214B99682148FFF7A2FF37E01F48AF
:4004C000FFF788FF33E03120FFF774FF2FE03220FFF770FF2BE03320FFF76CFF27E03420FFF768FF23E03520FFF764FF1FE03620FFF760FF1BE03720FFF75CFF17E0382028
:40050000FFF758FF13E03920FFF754FF0FE03020FFF750FF0BE0094C201C01F0D1FA021C201C002101F0BAFA202000F049FA10BD6A010020FC1A0000CC000020700100209F
:4005400008B53D4B1B78002B41D000F0DBFF01281CD100F0F7F90020002100F003FA0122364B1A70364800F031FA012000F09EFD002000F08FFD00F0BDFF43425841C0B22E
:4005800000F0ACFFC82000F045FB54E000F0C2FF012850D100F0D6F90020002100F0E2F90122264B1A70274800F010FA012000F07DFD002000F06EFD00F09CFF4342584158
:4005C000C0B200F08BFFC82000F024FB33E0002B28D000F097FF00280BD000F09BFF002807D000F09FFF002803D000F04BFD002818D100F0A7F90120002100F0B3F900226E
:400600000E4B1A70104800F0E1F9002000F04EFD012000F03FFD012000F060FFC82000F0F9FA08E00022054B1A70002000F03EFD012000F02FFD08BDCC0000200C01002088
:40064000A81B0000BC1B0000CC1B000008B562B600F044F81E4B187B10210222002300F00BF900F0C3F900F0ADFF00F041FD00F0C7FE184800F0D8FF00F064F900200121AF
:4006800000F070F9012000F011FD012000F002FD012000F023FFFFF753FF0D4B1B78002BF9D00D4B1B78002BF5D0FFF707FE084B5B78002BEFD1FFF7EFFE074B9B7B002BFB
:4006C000E9D00023024A1370034A1370E3E7C046CC000020590200000C01002008B5034800F0AEFC00F078FC08BDC046CD07000007490A78531CDBB20B7001380549085C62
:4007000005498854092B02D90022014B1A7070471C010020F01B000084010020034A13785078181A431E9841C0B270471C01002008B5FFF7F3FF0028FBD006494A78531C5A
:40074000DBB24B700449885C092B02D90022014B5A7008BD1C01002084010020002306E0C20701D5181C05E00133DBB24008072BF6D9FF207047C04638B50F2000F0C6FB9E
:40078000F82000F06BFC00F0CDFB041E0F2C18D0072000F063FC201C00F0B8FB00F06AFC051E072D0FD0E043C0B2FFF7D7FF041CE843C0B2FFF7D2FF800020430130C0B281
:4007C00002E0002000E0002038BDC04638B500F0BFFB284CA5786B1CA370FFF7CDFF65192871A378092B02D90022224B9A70FF24002305E05A1C1F49CB181B791C40D3B23D
:40080000092BF7D9E3B21B4A917BCAB2181C104302D1184B9C732CE0101C984304D0154B9C730022DA7324E0934307D0201CFFF75FFF104B0022DA739C731AE0214218D042
:400840000C4BDB7B4F2B05D80A4A0133D373002313740CE0074A137C0133DBB21374272B05D90022034B1A74201CFFF741FF014B9C7338BD1C01002010B5064C20700648C6
:40088000017006490A70064A13700822054B1A7010BDC0468F0100209401002095010020910100208E01002010B50C1C002100F095FC201C00F044FD00F0FCFC10BDC04621
:4008C00008B5054B1A78054B1B78011C1943101CFFF7EAFF08BDC0468F0100208E01002010B5041C04202043FFF7EAFF012000F0A9F90423201C9843FFF7E2FF322000F073
:40090000A1F910BD10B5041CFFF7DAFF201CFFF7E7FF10BD38B50D1C0F23021C9A43131C0001C4B20B43181CFFF7ECFF201C2843FFF7E8FF38BDC04608B50021FFF7EAFF2F
:4009400008BDC04608B50120FFF7F6FF022000F061F908BD08B50220FFF7EEFF022000F059F908BD70B584B06B460C4A70CA70C31C1C136823600A4B1B78994201D9591EB0
:40098000C9B289006B46CB58C01880235B421843C0B2FFF7D1FF04B070BDC046001C00009501002008B5054A107804231843107004331843FFF7C0FF08BDC04690010020A2
:4009C00008B50121FFF7A6FF08BDC04670B5061C01F076F8051C002403E0305DFFF7F0FF0134EBB2A342F8D870BDC04610B50022254B1A70254B1B78012B02D90821224A38
:400A00001170234A1278002A06D0012B04D11E4A117804230B431370322000F0FBF81D4B1878FFF74DFFFA20800000F0F3F83020FFF768FF184C201C00F004F93020FFF7F0
:400A400061FF201C00F0FEF83020FFF75BFF962000F0F8F82020FFF755FF0B4B187820231843FFF769FF04220C4B1A70FFF79AFFFFF768FF02220A4B1A700620FFF75CFFE5
:400A8000FFF768FF10BDC0469301002095010020910100208E010020941100009001002092010020FEE7C04670B50F4E0F4D13E029686B68AC68002202E001C901C3043236
:400AC000A242FAD1E868002202E0002102C304328242FAD11035013E002EE9D100F0B8FFFFF7B4FDFEE7C04601000000CC1D000008B500230AE0032B03D89A000A49505851
:400B000000E00A4899000A4A885001332F2BF2D9FFF7CAFA0022074B1A608022D205116801230B43136008BD00000000A50A000000000020C0000020F0B50025002711E090
:400B4000BB00C658F3B2FF22964308E06A008A181478A419527822700135013BDBB2002BF4D10137072FEBD9F0BDC04608B50A1C002100F093FF08BD1F2318401E3B83408F
:400B8000181C014B1860704700E100E01F2318401E3B8340181C014B1860704780E100E001BE704738B5041C0D1C1F2802D90020FFF7F6FFA400034B9C46644420682560BD
:400BC00038BDC0464000002070B5041C0E1E032E02D90020FFF7E4FF1F2C02D90020FFF7DFFF03252540ED00063500F037FDA408A400074B9C46644423680322AA40934395
:400C0000AE40351C1D43256000F02CFD70BDC04600E400E010B5041C06E0084B186800F013FD074B9C46644480231B029C42F4D8024B5868604300F007FD10BDDC0000202F
:400C40000080FFFF08B5034B1B7A584300F0FCFC08BDC046DC000020F0B557464E46C0B483B0041C00F0FAFC0190E71E2D2F74D83F4B1B78DBB2A34208D33E4B1B78DBB238
:400C80009A463D4B1B78DBB2994631E03B4B1B78DBB2A34208D33A4B1B78DBB29A46394B1B78DBB2994623E0374B1B78DBB2A34208D3364B1B78DBB29A46354B1B78DBB2C8
:400CC000994615E0334B1B78DBB2A34208D3324B1B78DBB29A46314B1B78DBB2994607E02F4B1B78DBB29A462E4B1B78DBB299462D4BDE5D2F2E09D92A2C07D919222B4B18
:400D00001A60052000F0A0FC192503E0274B1D683F231D40AE4206D2234BDA5D234B1A60052000F091FC1F4B9C4664442378DBB21F4A13601F4B52461A601F4B4A461A60D2
:400D40000520FFF77FFFAE420AD9174BDA5D174B1A60052000F078FC02E00020FFF720FF019800F07FFC03B00CBC91469A46F0BDC0F1FF0FC1F1FF0FC2F1FF0FC3F1FF0F0D
:400D8000C4F1FF0FC5F1FF0FC6F1FF0FC7F1FF0FC8F1FF0FC9F1FF0FCAF1FF0FCBF1FF0FCCF1FF0FCDF1FF0F781D00002CFF0B4028FF0B401CFF0B4020FF0B40034B18684D
:400DC000C0231B02184000D00120704700010B4008B500F043FC044A1368C02109020B43136000F03FFC08BD00010B4010B500F035FC08490A68084B1A408024E4012243C5
:400E00000A600A6813408022120213430B6000F029FC10BD00010B40FF3FFFFF70B5061C00F01CFC041CFFF7C9FF002803D0FFF7DDFF012500E000250848331C0340084A49
:400E4000106808490840184310601368012D01D1FFF7BEFF201C00F005FC70BD0404040010020B40FBFBFBFF10B5244B1B685B0715D5234B1B685B070ED5224B99690420E9
:400E800001401F4C22688A4322609A6982439A61DB68002B00D098470420FFF7BFFF174B1B685B0518D5164B1B685B0510D5154B99698022D2001140114802688A43026081
:400EC0009969114A0A409A611B69002B00D098478020C000FFF7A2FF084B1B685B030CD5074B1B685B0304D5064B5B69002B00D098478020C002FFF791FF10BD10020B40D9
:400F0000EC00002030010020FFFBFFFF044A11680F230B400001C0B2184310607047C04600030440024B18680006000F7047C04604030440024A117880230B4313707047EC
:400F400071000F40014B18707047C04682000F40014B1878C0B2704762000F4008B5011C014800F085FB08BD20000F4008B5024800F088FB08BDC04640000F4008B5011C24
:400F8000014800F075FB08BD00000F4008B501E0FFF7ECFFFFF7DCFF0307F9D408BDC04610B50B4C201CFFF7D9FF201CFFF7E6FF00F054FB074A117810230B43137000F038
:400FC00051FBFFF7E3FF0120FFF7BCFF10BDC046BFD4010092000F4008B5064B1B78002B04D1FFF7DDFF0122024B1A70FFF7A2FF08BDC0464C010020014B98647047C04672
:401000000000002010B5041C00F028FB044A1168044B0B40A4051C43146000F023FB10BD00E400E0FFFF3FFF0422014B1A60704700E100E00422014B1A60704780E100E098
:4010400010B5041CFFF7F6FF201CFFF7D5FF0320FFF7D8FFFFF7E8FF10BDC04604490A68F1231A404000E33B184010430860704700010440024B18680007400F7047C04680
:4010800004010440024B18684007C00F7047C0460402044004490A68BF231A4080017F3B18401043086070470001044004490A68FB231A408000F73B184010430860704705
:4010C0000000044008B50B20FFF756FD08BDC04608B500F01DF808BD08B5044A1368802109060B431360FFF7EDFF08BD0000074008B5064B1B78002B04D1FFF7E9FF0122A2
:40110000024B1A70FFF7E8FF08BDC0465001002010B51D4A11680C230B43136000241B4B1C601B4A1B4B1A601B4B1C4A13601C4A14601C4A14601C4A13601C4B1C600B2005
:40114000FFF724FD0B200321FFF73EFD0B201849FFF728FD174B1C60174B1C60174B1C601422FF32164B1A60164B1C60164B1C60043AFF3A154B1A70154B1C80154B1C6062
:40118000154B1C6010BDC0467000074000000740640800806000074007010080000307400403074010030740000207400402074095160000C80E0740880E0740480F07409C
:4011C000080F0740C80F0740880F074096010020A4010020B40100209C01002038B52E4B1B78102B53D12D4B1B68DB0751D40D1C041C0B20FFF7CAFC6000FF231840002DF6
:4012000003D12422244B1A7004E02522224B1A7001231843224B1860224A234B1A600222224B1A60204B1A680823FF331A42F9D01D4B1B685B0714D41B4B1B689B0713D4A0
:40124000194B1B68DB0705D51022134B1A70012001210BE01022104B1A7080204000012104E00020002101E0022000210822FF320D4B1A6000290DD00D4A13685B005B085E
:4012800013601368802109060B43136002E0042000E0082038BDC04696010020640007404002074017030000000F074068000740000007401D4B1B789B0634D51C4B1B68E6
:4012C0009B0601D5182200E010221A4B1A601A4B1A681223FF331A42F9D0174B1B68DB0606D4154B1B68DB0705D50120012105E00020002102E08020400001211222FF32E8
:401300000D4B1A60023AFF3A084B1A7000290BD00A4A13685B005B0813601368802109060B43136000E004207047C046960100206400074068000740000F0740000007402A
:40134000214B1B789B063CD5204B1860204B1A680823FF331A42F9D01D4B1B685B0705D56022194B1A700020002119E0184B1B689B0705D56022144B1A70022000210FE09A
:40138000134B1B68DB0705D510220F4B1A700120012105E010220C4B1A708020400001210822FF320A4B1A6000290BD0094A13685B005B0813601368802109060B43136024
:4013C00000E004207047C0469601002040020740000F07400000074008B500F067F808BD08B500F01DF808BD08B5044A1368802109060B431360FFF7EFFF08BD0000064011
:4014000008B5064B1B78002B04D1FFF7E9FF0122024B1A70FFF7E8FF08BDC04658010020114A124B1A600023114A13600121114A11601148114A10600722114802601148A0
:4014400003601148016011490A60114A1360114A1360114A1360114A1360114A1360114A1360114A136070470B0000020000064040000640480006400700008000030640FB
:401480000403064010030640440006400002064004020640880E0640C80E0640480F0640080F0640C80F0640880F06407047C04608B500F0C5FA002802D000F0BBFA00E0D4
:4014C0000020054B1A68D8239B001A4203D01A1C014B1A60002008BDC00F0640031C04490868FE2202400120184010430860704700020440024B1868012318407047C046CA
:4015000004020440024B18688006C00F7047C04604020440024B1868C006C00F7047C04604020440024B18680007C00F7047C04604020440024A117880230B431370704725
:4015400073000F40014B18707047C04683000F40014B1878C0B2704763000F40014B18707047C04623000F40014B1878C0B2704743000F40014B18707047C04603000F4012
:4015800008B501E0FFF7F0FFFFF7E2FF0307F9D408BDC04608B5EF20FFF7E0FFEF20FFF7E9FF00F05BF8064A117810230B43137000F058F8FFF7E4FF0020FFF7C3FF08BDCB
:4015C00093000F4008B5064B1B78002B04D1FFF7E1FF0122024B1A70FFF7ACFF08BDC04659010020014B18647047C0460000002010B5041C00F032F8044A1368C0218B4396
:40160000A4011C43146000F02DF810BD00E400E00122014B1A60704700E100E00122014B1A60704780E100E010B5041CFFF7F6FF201CFFF7D7FF0320FFF7DAFFFFF7E8FFA3
:4016400010BDC046000000000230800804D0C0460138FDD1C046C046C0467047EFF3108072B6704780F310887047C046C046C046CBB203700B0ADBB24370090CC9B2817048
:401680007047C046027843781B021343807800041843704710B5C04B1B68002B00D09847BE4B1B68DB0702D50022BD4B1A60BD4B1B789B0628D5BC4B1B68DB0507D5BB4A1D
:4016C0001188C0239B000B431380012300E00023B54A1268D20706D5B44A118890239B000B4313800123002B0FD0AE4A1278D20701D5012200E00222AC49088802430A80FE
:401700000021A84A117000E00023A64A1278920600D414E1A44A1268D20611D51022A44B1A60A04B1B78DB0701D5012300E002239E4A11880B43138010229A4B1A7029E10A
:40174000984A1278120720D5974A126892070AD50222974B1A60954A118888239B000B431380012311E08F4A1278D20703D525218C4A117009E024218A4A11708D4A126863
:40178000002A02D014398C4A1160864A1278520700D4ABE0834A1278D20749D5874A1268120727D5864A1268864909680F240C40854909686418141B082C09D8002C16D1BE
:4017C000824A1168824B0B401360012308340EE008240CE07C4A11687E48006841187E480068C0B20870116801311160013C002CF0D119E0714A1268520715D5724A1168E9
:4018000074480068411874480068C0B2087011680131116011686A4A1268914203D204216E4A116000E001236D496E4A11605DE05D4A1268920726D502225D4B1A606A4A95
:4018400013680F211940136880221202134000D00123CB18654A1168CB1A13601268644B1A60524A118884239B000B431380614B1A68802149020A431A6019685E4A0A403A
:401880001A60012332E05D4A1268D20612D424E0564A1168474A1268914211D2534A11685748006841180978C9B2564801601168013111604C4A12680F210A40082AE7D1BA
:4018C0004A4A11683B4A1268914202D140213A4A11604D494D4A116008E0484A1268520604D5424B1A68424B1A600123002B51D0364A1168364B0B4013600023444A13603B
:401900002D4A1360434B1B789B070ED5254B1B78DB0701D5092300E00A23244A11880B43138060221F4B1A7034E03B4B1B689B0601D5182200E01022284B1A602AE0194B8A
:401940001B78DB0626D4354A13685B005B0813601021144B19701D4B18683149014019601868304901401960002329490B6012490B601B49254B196023491A4B19602A4916
:401980002A4B19602A490A4B19601368802109060B43136010BDC046540100208C0E0740880E0740960100200C0F0740A4010020000F0740A0010020880F0740CC0F074011
:4019C000B001002008030740B401002060000740FFFEFFFFA80100204003074068000740ED0F0000C00F074008020740980100209C01002004020740FFFFFEFF8C0F074048
:401A0000B801002040020740F3070000800F0740C80F0740AC0100206400074000000740FF5FFFFFFFFCFFFFFF0F0000400F074017030000014B18687047C0464003064072
:401A4000024B1B680F2018407047C046080306400E4B70B500251E1C0D4CE41AA410A54204D0AB00F35898470135F8E700F09CF9084B00251E1C084CE41AA410A54204D07C
:401A8000AB00F35898470135F8E770BDB41D0000B41D0000B41D0000BC1D0000031C8218934202D019700133FAE7704702780B78002A03D0013001319A42F7D0D01A70476D
:401AC0000023C25C0133002AFBD1581E704700001000000000000000017A5200027C0E011B0C0D001000000018000000C0FFFFFF140000000000000000000000BE040000F5
:401B0000160500001605000016050000160500001605000016050000B204000016050000160500001605000016050000160500000E050000C6040000CE040000D60400003D
:401B4000DE040000E6040000EE040000F6040000FE04000006050000426F78206F70656E6564000049443A200000000057726F6E67206B6579000000416C61726D206469A5
:401B80007361626C65640000416C61726D20656E61626C656400000057726F6E672070617373776F726400004775657374726F6F6D20414C41524D21000000004265647252
:401BC0006F6F6D20414C41524D2100004E4F204D4F54494F4E0000003039303038423331364244380000000031313131000000003134372A323538303336392300000000A0
:401C00000000000040000000140000005400000000300F40000400400F40000402000F4028300F400A310F403F320F4021330F4005400F4003410F4002600F40820D830D0A
:401C4000405149FF4AFF4BFF4F0150185A045D095F016040624064406540668068806A806C806E80C041C9FFCAFFCBFFCD83CE03CF01D018D280DA04DB04DD99DF01E04045
:401C8000E240E440E540E680E880EA80EC80EE804202468248017401768077808F10D098D208E2100E012E01300136013E01404145EC4720482349FF4AFF4BFF4D834E03B8
:401CC0004F015018540158045A045B045C095D995F016040624064406540668068806A806C806E809201AA01B001B401BE01C046C5ECC702C813C9FFCAFFCBFFCF01D01815
:401D0000D280D401D804DA04DB04DC09DD99DF01E040E240E440E540E680E880EA80EC80EE8006020902100817801A401B101E801F4041024682480849054D044F01500825
:401D4000560259055A405D045E805F01710287409A809B809E02A710C080C208C482D091D204D6DB6F0871208F08DA80DC208520A520E21002011101030405060708090ADC
:401D80000B0C0E0F101112131415161718191B1C1D1E1F2021222325262728292A2B2E2F3031323334350000F8B5C046F8BC08BC9E46704721020000F10A0000F8B5C046D0
:401DC000F8BC08BC9E467047F9010000E01D0000C800002028000000D0000000000000000000000001010000D81B0000E81B0000270000000000E02EC05D00001800000097
:401E000000366E01040404000000000000000000000000000000000000000000000000000000000000000000000000000000000000000000000000000000000000000000F1
:401E40000000000000000000000000000000000000000000000000000000000000000000000000000000000000000000000000000000000000000000000000000000000062
:401E80000000000000000000000000000000000000000000000000000000000000000000000000000000000000000000000000000000000000000000000000000000000022
:401EC00000000000000000000000000000000000000000000000000000000000000000000000000000000000000000000000000000000000000000000000000000000000E2
:401F000000000000000000000000000000000000000000000000000000000000000000000000000000000000000000000000000000000000000000000000000000000000A1
:0200000490303A
:02000000D3111A
:0200000490402A
:200000000000000000000000000000000000000000000000000000000000000000000000E0
:0200000490501A
:0C000000000204C81193110104D1E4A413
:0200000490600A
:0100000001FE
:00000001FF