:400000000010002011000000990200009902000008B500F043F9C04638B50F4C23688022D20213432360182000F00EFA22680B4B134023600A4A0B4B1A60063A0A4B1A601F
:40004000002525600920094900F0E2F9092000F0D3F9074B1D6038BD00010B40FFFFFBFF0600008004010B4008010B40590600000C020B4010B572B601222D4B1A7000248B
:4000800010E02C4863001A195200821891881B195B001A5AC31858880004104300F060F90134E4B2012CECD92249081C0C302C3100F03CF9EE2212021F4B1A6099231B04F6
:4000C0001E4A1360802109061D4A11601D4A13601D4A136002231D4A13601D4A13601D4B197802220A431A701B4802783C218A4328390A430270197816220A431A708422AF
:40010000164B1A60164A174B1A6080221202164B1A604022154B1A60C0225203144B1A60D8221201134B1A60FFF776FF10BDC0461C700F40B80800000C00014000500F4021
:4001400004500F4010500F4030500F402000004000800F4000700F4001700F40000004408001C000080004400C00044000010440080104400803044010B5064C2378002BD1
:4001800007D1054B002B02D0044800E000BF0123237010BDE800002000000000B408000008B5084B002B03D00748084900E000BF07480368002B00D108BD064B002BFBD0D8
:4001C0009847F9E700000000B4080000EC000020C80000200000000008B5002000F09AFA012000F08BFA044800F0E4F800F0EAFA00F0F8FA08BDC0463D02000008B50248BA
:4002000000F01CFB62B6FEE7D901000008B50022034B1A6043425841C0B200F06FFA08BD0401002010B5041C60426041C0B200F071FA014B1C6010BDCC00002008B5144AD5
:40024000536801335360FA22920093421FD1114B1B68002B0CD00E4A136801331360022B12D10020FFF7DEFF0120FFF7CFFF0BE0074A136801331360052B05D10120FFF7A6
:40028000D1FF0020FFF7C2FF0022014B5A6008BD04010020CC000020FEE7C04670B50F4E0F4D13E029686B68AC68002202E001C901C30432A242FAD1E868002202E0002179
:4002C00002C304328242FAD11035013E002EE9D100F0C2FAFFF792FFFEE7C04601000000380A000008B500230AE0032B03D89A000A49505800E00A4899000A4A8850013314
:400300002F2BF2D9FFF7B6FE0022074B1A608022D205116801230B43136008BD000000009902000000000020C0000020F0B50025002711E0BB00C658F3B2FF22964308E087
:400340006A008A181478A419527822700135013BDBB2002BF4D10137072FEBD9F0BDC04608B50A1C002100F09DFA08BD014B58647047C0460000002010B5041C00F032F8C4
:40038000044A1168044B0B40A4031C43146000F02DF810BD00E400E0FF3FFFFF0222014B1A60704700E100E00222014B1A60704780E100E010B5041CFFF7F6FF201CFFF73A
:4003C000D5FF0320FFF7D8FFFFF7E8FF10BDC0460230800804D0C0460138FDD1C046C046C0467047EFF3108072B6704780F310887047C046C046C0461F2318401E3B83404A
:40040000181C014B1860704700E100E001BE704738B5041C0D1C1F2802D90020FFF7F6FFA400034B9C4664442068256038BDC0464000002008B5034B1B7A5843FFF7C8FF97
:4004400008BDC046D0000020F0B557464E46C0B483B0041CFFF7C6FF0190E71E2D2F74D83F4B1B78DBB2A34208D33E4B1B78DBB29A463D4B1B78DBB2994631E03B4B1B7887
:40048000DBB2A34208D33A4B1B78DBB29A46394B1B78DBB2994623E0374B1B78DBB2A34208D3364B1B78DBB29A46354B1B78DBB2994615E0334B1B78DBB2A34208D3324BB2
:4004C0001B78DBB29A46314B1B78DBB2994607E02F4B1B78DBB29A462E4B1B78DBB299462D4BDE5D2F2E09D92A2C07D919222B4B1A600520FFF76CFF192503E0274B1D68B7
:400500003F231D40AE4206D2234BDA5D234B1A600520FFF75DFF1F4B9C4664442378DBB21F4A13601F4B52461A601F4B4A461A600520FFF77FFFAE420AD9174BDA5D174BE1
:400540001A600520FFF744FF02E00020FFF75EFF0198FFF74BFF03B00CBC91469A46F0BDC0F1FF0FC1F1FF0FC2F1FF0FC3F1FF0FC4F1FF0FC5F1FF0FC6F1FF0FC7F1FF0F82
:40058000C8F1FF0FC9F1FF0FCAF1FF0FCBF1FF0FCCF1FF0FCDF1FF0FE40900002CFF0B4028FF0B401CFF0B4020FF0B40034B1868C0231B02184000D00120704700010B40C3
:4005C00008B5FFF70FFF044A1368C02109020B431360FFF70BFF08BD00010B4010B5FFF701FF08490A68084B1A408024E40122430A600A6813408022120213430B60FFF7FE
:40060000F5FE10BD00010B40FF3FFFFF70B5061CFFF7E8FE041CFFF7C9FF002803D0FFF7DDFF012500E000250848331C0340084A106808490840184310601368012D01D1EE
:40064000FFF7BEFF201CFFF7D1FE70BD0404040010020B40FBFBFBFF10B5244B1B685B0715D5234B1B685B070ED5224B9969042001401F4C22688A4322609A6982439A612C
:40068000DB68002B00D098470420FFF7BFFF174B1B685B0518D5164B1B685B0510D5154B99698022D2001140114802688A4302609969114A0A409A611B69002B00D09847D1
:4006C0008020C000FFF7A2FF084B1B685B030CD5074B1B685B0304D5064B5B69002B00D098478020C002FFF791FF10BD10020B40E000002010010020FFFBFFFF04490A68F9
:40070000BF231A4080017F3B18401043086070470001044004490A68FB231A408000F73B184010430860704700000440024A117880230B431370704771000F40014B1870A8
:400740007047C04683000F40014B1878C0B2704763000F40014B18607047C04680200F40014B18687047C04600210F40014B18607047C04600200F4008B501E0FFF7F0FF57
:40078000FFF7E2FF0307F9D408BDC04610B50B4C201CFFF7DFFF201CFFF7E8FFFFF722FE074A117810230B431370FFF71FFEFFF7E3FF0020FFF7C2FF10BDC046BF5D0000D6
:4007C00093000F4008B5064B1B78002B04D1FFF7DDFF0122024B1A70FFF7A8FF08BDC0462C010020034A1068802318401060C009C0B2704710000440014B18647047C046FA
:400800000000002010B5041CFFF7ECFD044A1368C0218B43A4011C431460FFF7E7FD10BD00E400E00122014B1A60704700E100E00122014B1A60704780E100E010B5041C52
:40084000FFF7F6FF201CFFF7D7FF0320FFF7DAFFFFF7E8FF10BDC0460E4B70B500251E1C0D4CE41AA410A54204D0AB00F35898470135F8E700F0CEF8084B00251E1C084C9A
:40088000E41AA410A54204D0AB00F35898470135F8E770BD200A0000200A0000200A0000280A0000031C8218934202D019700133FAE770470000000000300F40000400408C
:4008C0000F40000401000F4028300F4007310F4034320F4015330F4002400F4002410F4002600F40830D405449FF4AFF4BFF4F0150185A045D095F016040624064406540A1
:40090000668068806A806C806E80C041C9FFCAFFCBFFCD83CE03CF01D018D280DA04DB04DD99DF01E040E240E440E540E680E880EA80EC80EE804101468148017401768031
:40094000D091D208404149FF4AFF4BFF4D834E034F0150185A045D095F016040624064406540668068806A806C806E8082018E01B001B201BE01C054C5ECC720C823C9FF32
:40098000CAFFCBFFCD83CE03CF01D018D401D804DA04DB04DC09DD99DF01E040E240E440E540E680E880EA80EC80EE80000202011A60410146814801490551015201590563
:4009C0005A40950296209A809E01A001AA10C009D091D208D60B6F20DA80AB20EE20020111010000030405060708090A0B0C0E0F101112131415161718191B1C1D1E1F205A
:400A000021222325262728292A2B2E2F3031323334350000F8B5C046F8BC08BC9E467047A1010000E5020000F8B5C046F8BC08BC9E46704779010000480A0000C8000020E3
:400A4000200000004800000000000000010000000000E02EC05D00001800000000366E01040404000000000000000000000000000000000000000000000000000000000019
:400A80000000000000000000000000000000000000000000000000000000000000000000000000000000000000000000000000000000000000000000000000000000000036
:400AC00000000000000000000000000000000000000000000000000000000000000000000000000000000000000000000000000000000000000000000000000000000000F6
:400B000000000000000000000000000000000000000000000000000000000000000000000000000000000000000000000000000000000000000000000000000000000000B5
:400B40000000000000000000000000000000000000000000000000000000000000000000000000000000000000000000000000000000000000000000000000000000000075
:0200000490303A
:02000000B43B0F
:0200000490402A
:200000000000000000000000000000000000000000000000000000000000000000000000E0
:0200000490501A
:0C000000000204C81193110104CBC5CE0E
:0200000490600A
:0100000001FE
:00000001FF