:4000000000100020110000001D0600001D06000008B500F01FFBC04610B50F4C23688022D20213432360182000F0BCFB22680B4B134023600A4A0B4B1A60063A0A4B1A60AA
:4000400009200A4900F07AFB092000F06BFB0022074B1A6010BDC04600010B40FFFFFBFF0600008004010B4008010B40B50900000C020B4010B572B60122324B1A7000249F
:4000800010E0314863001A195200821891881B195B001A5AC31858880004104300F03CFB0134E4B2012CECD92749081C0C302C3100F018FBEE221202244B1A6099231B042B
:4000C000234A136080210906224A1160224A1360AA218904214A1160214A1360214A1360AA221206204B1A600122204B1A6001321F4B1A601F4B19780A431A701E4802782A
:400100003C218A4328390A430270197816220A431A708022194B1A608022D203184B1A601E22184B1A60184A184B1A60184A194B1A60F022184B1A60184A194B1A60FFF740
:400140006BFF10BD1C700F40286600000C00014000500F4004500F4010500F4014500F4020500F4030500F4034500F402000004000800F4000700F4001700F40000004409B
:4001800008000440000104409024000008010440B66D1B000802044000030440802D49000803044010B5064C2378002B07D1054B002B02D0044800E000BF0123237010BD24
:4001C00080010020000000009065000008B5084B002B03D00748084900E000BF07480368002B00D108BD064B002BFBD09847F9E7000000009065000084010020C800002019
:400200000000000008B50C480021102202F074FB0A480021102202F06FFB09480021202202F06AFB074B01221A7000225A709A70012000F0C5FC08BD140200200002002009
:40024000E00100209C01002010B50C1C074B9B78002B09D100F0A2FC044B9C70197801224A401A7000225A7010BDC0469C01002010B5041C00F0A0FC084B1B78002B06D0E4
:40028000064A5378591C5170054AD45405E0034A5378591C5170034AD45410BD9C010020140200200002002010B5021C0B1C044C201C044902F0AAFF201C00F06FFC10BD0A
:4002C000E0010020E865000038B562B600F0C4FC00F0D6F8FFF796FF00F0FCF85B4B18702A38C3B2132B00D9A2E09800584B1B589F4658482B21FFF7A7FFEDE756482D2155
:40030000FFF7A2FFE8E755482A21FFF79DFFE3E753482F21FFF798FFDEE70120002100F0ABFC504800F03AFC4F4B9B782B2B10D14E4802F0AFFA041C0D1C4D4802F0AAFAB6
:40034000021C0B1C201C291C00F026FEFFF7ACFFC2E72D2B10D1454802F09CFA041C0D1C434802F097FA021C0B1C201C291C01F0F9FEFFF799FFAFE72A2B10D13B4802F037
:4003800089FA041C0D1C3A4802F084FA021C0B1C201C291C01F04CFCFFF786FF9CE72F2B10D1324802F076FA041C0D1C304802F071FA021C0B1C201C291C01F015F9FFF792
:4003C00073FF89E7FFF71EFF0020052100F054FC284800F0E3FB7FE72E20FFF749FF7BE73120FFF745FF77E73220FFF741FF73E73320FFF73DFF6FE73420FFF739FF6BE776
:400400003520FFF735FF67E73620FFF731FF63E73720FFF72DFF5FE73820FFF729FF5BE73920FFF725FF57E73020FFF721FF53E711480021102202F05FFA0020002100F039
:400440001BFC0E4800F0AAFB46E7C0461002002098650000F0650000F4650000F8650000FC650000006600009C010020140200200002002004660000E00100200C66000054
:4004800008B5034800F0AEFC00F07AFC08BDC0467105000007490A78531CDBB20B7001380549085C05498854092B02D90022014B1A707047A401002018660000240200204E
:4004C000034A13785078181A431E9841C0B27047A401002008B5FFF7F3FF0028FBD006494A78531CDBB24B700449885C092B02D90022014B5A7008BDA4010020240200205A
:40050000002306E0C20701D5181C05E00133DBB24008072BF6D9FF207047C04638B50F2000F0C8FBF02000F06BFC00F0CFFB041E0F2C18D00F2000F063FC201C00F0BAFB80
:4005400000F06AFC051E0F2D0FD0E043C0B2FFF7D7FF041CE843C0B2FFF7D2FF800020430130C0B202E0002000E0002038BDC04638B500F0C1FB284CA5786B1CA370FFF7C5
:40058000CDFF65192871A378092B02D90022224B9A70FF24002305E05A1C1F49CB181B791C40D3B2092BF7D9E3B21B4A917BCAB2181C104302D1184B9C732CE0101C9843CF
:4005C00004D0154B9C730022DA7324E0934307D0201CFFF75FFF104B0022DA739C731AE0214218D00C4BDB7B4F2B05D80A4A0133D373002313740CE0074A137C0133DBB2E1
:400600001374272B05D90022034B1A74201CFFF741FF014B9C7338BDA4010020FEE7C04608B5031C094A1068C318094A9A1A802189008A4202DC054A136005E002F030F974
:400640000C2303600120404208BDC046CC0000203802002070B50F4E0F4D13E029686B68AC68002202E001C901C30432A242FAD1E868002202E0002102C304328242FAD175
:400680001035013E002EE9D102F010F9FFF71CFEFEE7C04601000000B469000008B500230AE0032B03D89A000A49505800E00A4899000A4A885001332F2BF2D9FFF7DAFC36
:4006C0000022074B1A608022D205116801230B43136008BD000000001D06000000000020C0000020F0B50025002711E0BB00C658F3B2FF22964308E06A008A181478A419B6
:40070000527822700135013BDBB2002BF4D10137072FEBD9F0BDC04608B50A1C002102F0EBF808BD1F2318401E3B8340181C014B1860704700E100E001BE704738B5041C42
:400740000D1C1F2802D90020FFF7F6FFA400034B9C4664442068256038BDC0464000002010B5041C06E0084B186800F05DFB074B9C46644480231B029C42F4D8024B586806
:40078000604300F051FB10BDD00000200080FFFF08B5034B1B7A584300F046FB08BDC046D0000020F0B557464E46C0B483B0041C00F044FB0190E71E2D2F74D83F4B1B78D1
:4007C000DBB2A34208D33E4B1B78DBB29A463D4B1B78DBB2994631E03B4B1B78DBB2A34208D33A4B1B78DBB29A46394B1B78DBB2994623E0374B1B78DBB2A34208D3364B37
:400800001B78DBB29A46354B1B78DBB2994615E0334B1B78DBB2A34208D3324B1B78DBB29A46314B1B78DBB2994607E02F4B1B78DBB29A462E4B1B78DBB299462D4BDE5D62
:400840002F2E09D92A2C07D919222B4B1A60052000F0EAFA192503E0274B1D683F231D40AE4206D2234BDA5D234B1A60052000F0DBFA1F4B9C4664442378DBB21F4A1360D1
:400880001F4B52461A601F4B4A461A600520FFF77FFFAE420AD9174BDA5D174B1A60052000F0C2FA02E00020FFF746FF019800F0C9FA03B00CBC91469A46F0BDC0F1FF0F6F
:4008C000C1F1FF0FC2F1FF0FC3F1FF0FC4F1FF0FC5F1FF0FC6F1FF0FC7F1FF0FC8F1FF0FC9F1FF0FCAF1FF0FCBF1FF0FCCF1FF0FCDF1FF0F2C6700002CFF0B4028FF0B406F
:400900001CFF0B4020FF0B40034B1868C0231B02184000D00120704700010B4008B500F08DFA044A1368C02109020B43136000F089FA08BD00010B4010B500F07FFA084920
:400940000A68084B1A408024E40122430A600A6813408022120213430B6000F073FA10BD00010B40FF3FFFFF70B5061C00F066FA041CFFF7C9FF002803D0FFF7DDFF0125AA
:4009800000E000250848331C0340084A106808490840184310601368012D01D1FFF7BEFF201C00F04FFA70BD0404040010020B40FBFBFBFF10B5244B1B685B0715D5234B88
:4009C0001B685B070ED5224B9969042001401F4C22688A4322609A6982439A61DB68002B00D098470420FFF7BFFF174B1B685B0518D5164B1B685B0510D5154B9969802200
:400A0000D2001140114802688A4302609969114A0A409A611B69002B00D098478020C000FFF7A2FF084B1B685B030CD5074B1B685B0304D5064B5B69002B00D098478020FA
:400A4000C002FFF791FF10BD10020B40E0000020B8010020FFFBFFFF10B50B4C23686022934323602368513A93432360226810231843104320600120FFF78AFE23681022FB
:400A80009343236010BDC0460002044038B5051C0E4C226820231343236023684022934323600020FFF774FE23680F2293432360236810202843184320600120FFF768FE55
:400AC000236810229343236038BDC04600020440F8B5274A13687F218B43136025490B681B0B1B03244803430B60136820218B431360116840230B431360CA277F000020B9
:400B0000FFF746FE1A4C23681026334323600120FFF73EFE194B1D682368B34323600020FFF736FE08231D402368334323600120FFF72EFE2368B3432360002D02D10A2054
:400B4000FFF726FE013F002D01D0002FD7D1084B1A6840218A431A601A683F318A431A60044A13681B0B1B0305490B431360F8BD0002044008020440490200000402044096
:400B8000B60D000010B5041CFFF7A2FF2009FFF77DFF0F202040FFF779FF10BD38B5051C0078012404E0FFF7EDFF285D0134E4B20028F8D138BDC04608B5FFF7E3FF08BD8A
:400BC00010B5041CFFF784FF2009FFF745FF0F202040FFF741FF10BD08B52820FFF7C0FD0320FFF739FF0520FFF7BAFD0320FFF733FF0F20FFF7B4FD0320FFF72DFF012040
:400C0000FFF7AEFD0220FFF727FF0520FFF7A8FD0620FFF7D5FF0E20FFF7D2FF2C20FFF7CFFF0820FFF7CCFF0120FFF7C9FF0C20FFF7C6FF0320FFF7C3FF0520FFF790FDEE
:400C400008BDC04608B50C20FFF7BAFF0122014B1A7008BDD401002008B5064B5B78002B04D1FFF7B9FF0122024B5A70FFF7EAFF08BDC046D401002008B501280BD000280D
:400C800004D002280CD003280FD012E08039C8B2FFF796FF0DE04039C8B2FFF791FF08E06C39C8B2FFF78CFF03E02C39C8B2FFF787FF08BD04490A68E1231A404000C33B54
:400CC000184010430860704700010440024B1868C006000F7047C04604010440024A117880230B431370704771000F40014B18707047C04682000F40014B1878C0B2704716
:400D000062000F4008B5011C014800F0A1F808BD20000F4008B5024800F0A4F808BDC04640000F4008B5011C014800F091F808BD00000F4008B501E0FFF7ECFFFFF7DCFF35
:400D40000307F9D408BDC04610B50B4C201CFFF7D9FF201CFFF7E6FF00F070F8074A117810230B43137000F06DF8FFF7E3FF0120FFF7BCFF10BDC046BFD4010092000F4017
:400D800008B5064B1B78002B04D1FFF7DDFF0122024B1A70FFF7A2FF08BDC046D6010020014B18647047C0460000002010B5041C00F044F8044A1368C0218B43A4011C433B
:400DC000146000F03FF810BD00E400E00122014B1A60704700E100E00122014B1A60704780E100E010B5041CFFF7F6FF201CFFF7D7FF0320FFF7DAFFFFF7E8FF10BDC0460B
:400E0000044A11680F230B400001C0B2184310607047C04600030440024B18680006000F7047C046040304400230800804D0C0460138FDD1C046C046C0467047EFF310806C
:400E400072B6704780F310887047C046C046C046CBB203700B0ADBB24370090CC9B281707047C046027843781B0213438078000418437047002243088B4274D303098B422C
:400E80005FD3030A8B4244D3030B8B4228D3030C8B420DD3FF22090212BA030C8B4202D31212090265D0030B8B4219D300E0090AC30B8B4201D3CB03C01A5241830B8B42B1
:400EC00001D38B03C01A5241430B8B4201D34B03C01A5241030B8B4201D30B03C01A5241C30A8B4201D3CB02C01A5241830A8B4201D38B02C01A5241430A8B4201D34B0244
:400F0000C01A5241030A8B4201D30B02C01A5241CDD2C3098B4201D3CB01C01A524183098B4201D38B01C01A524143098B4201D34B01C01A524103098B4201D30B01C01A78
:400F40005241C3088B4201D3CB00C01A524183088B4201D38B00C01A524143088B4201D34B00C01A5241411A00D20146524110467047FFE701B5002000F00CF802BDC046E9
:400F80000029F7D003B5FFF775FF0EBC4243891A1847C0467047C046F0B5454657464E4694464C000A03C90FE0B488460E1C1903470FC500480A6146490F01436046520A45
:400FC0001743C0005A00640D520DDB0F8446984500D1A7E0A01A002800DC01E1002A3DD163460B4300D0D4E06B0700D188E00F232B40042B00D183E02A1DAA42AD41802302
:401000006D427F191B043B404646151C002B00D17CE0CC4B01349C4200D1FDE03A1CCA4BED081A405007640552020543120B640D002112030B0D1B056405120B1A43630882
:40104000C24CF60714401C43640064083443281C211C1CBC90469946A246F0BDB94B9C42C2D080231B041943382800DDECE01F2800DD21E120220E1C6346121A9640C340ED
:40108000334366469640321C561EB24113430A1CC240EB1A9D42B6411D1CBA1A7642971B3B0200D497E07A02560A002E00D1B6E0301C01F0D1FB031C083B1F2B00DDB7E091
:4010C0009E40371C28262A1C361AF240161C9D403E439C4200DDB2E01C1B621C1F2A00DDD8E01F23291C1C1B331CA540A340D1406C1EA541D64019430D43371C002473E750
:4011000080231B043B40464600D082E78D4BED0878070543FA089C4232D012036405120B640D85E7A31A002B00DC94E0002A3CD0844A944200D157E7802212041143382B2F
:4011400000DC05E163461943481E81410022C8B24019A8429B41051CD2195B42D7183B0239D5784B01349C4200D14CE10120764A6B083A4028401843D5070543570833E7E0
:401180002B1C134348D080231B031A431203120B4EE70138002878D16346EE1AB5429B417A1A5B42D71A351C7AE7021C0A4300D11AE7013B002B00D0F2E04019A8429B418E
:4011C000CA195B42D718051CC9E7131C334300D118E1171C351C46466B0700D007E795E700287AD1621C5205520D012A00DCFBE06246AA1A9542B6419146781A7242861A04
:40120000320200D493E06246551BAC458041CF1B40423E1A984648E70022002508E7281C01F01AFB2030031C083B1F2B00DC47E7283885402E1C00259C4200DC4CE7424A05
:40124000E41A1640371CCFE6634619434B1E99410022CBB21DE7002B00D0F2E0601C43055B0D012B00DCA4E0364B984200D121E163465C19AC429B41CF195B42FA18640889
:40128000D50725435708041CAEE62E4B9C4200D0EAE6A9E6211C331C1F39CB40191C202A00D182E03F231C1BA64035436E1EB54100270D4300248EE7031C0E1C203BDE4065
:4012C000202874D040231B1A99400B1C62461343591E8B4100223343DBE6002C50D0194CA24200D1A8E08024240440422743382800DDD9E01F2800DD39E120243E1C241A7A
:40130000A640B0462E1CA146C640444626434C46A5406C1EA541C74035436046451BCF1BAC45894149427F1A141C9846B8E64B464D46334300D0B8E6002600270024002528
:40134000E4E6C046FF070000FFFF7FFFFFFF0F801F2B5BDC2022081CD21A9040814660469246D8404A4610438146524660469040021C501E8241484610430A1CDA40E7E699
:401380003C1C2C4358D0C043002851D16046451BAC458041CF1B40423F1A141C98467FE68F4A944200D0CAE61EE600267DE700238CE73B1C2B43002C00D0BDE0002B00D154
:4013C000F5E063460B4300D10EE663465B19AB428041CA19404217183A0200D4FCE0814A1D1C17400134FFE53A1C2A43002C51D1002A00D085E062460A4303D00F1C65468F
:401400009846F1E50026002700257FE6181C0A1C2038C240202B00D1A7E04020C01A8140081C63461843411E8841104300228FE66B4CA24200D05AE70F1C6546141C984605
:40144000D2E5002C3AD1381C284371D0DB43002B18D0634882426BD0382B00DD9DE01F2B00DDA7E020203C1CC01A8440A1462C1C8246DC404846044350468540681E854173
:40148000DF402543654465459B417F185B42FF18141C64E6002A19D162460A4377D00F1C654698464E4C9FE53D436F1EBD410027EDB232E7041C0027002527E648488242D8
:4014C00036D0802000045B420743C5E762460A4349D08024ED087807FA0824032843224209D0CE08264206D162464F07381CD20810439846321CD200470F1743C500384C2D
:4015000072E562460A4300D16EE56246AE1AB5429241781A5242821A100200D455E66246551BAC458041CA1B4042171A98465BE50F1C6546141C57E5002B34D063460B4336
:4015400011D08024ED087807FA08240328432242D1D0CB082342CED162464F07381CD20810431A1CC7E71E4C3EE5002059E7041C3E1C203CE640341C20282BD04026301A73
:4015800087403D436F1EBD4100272543C5E680270026FF03124C0025B8E53D436F1EBD410027EDB26EE70F1C65460D4C1CE50F1C654619E51C1C381C203CE040041C202B93
:4015C0000CD04020C31A9F403D436F1EBD410027254357E70027D4E71D1CFCE50027F3E7FF070000FFFF7FFFF0B55F4656464D464446F0B40F0387B098464D003B0BCC0F60
:40160000061C924681469B466D0D01946BD0664B9D4235D080275B467F031F43F3009946624BFF00400F9C4607430023BB46002665440093424617035000D20F53463F0BC8
:40164000400D904600D172E0574A904267D080235B031F435346554A5B0FFF001F43944653460021DB0060444246624092462D1A0E430F2E00D9A1E04D48B60080598746DF
:401680005B461E4300D076E000239B469946023308260093CEE799464346BB4601930091009B022B6BD1019B9A46002153460122002789461A403C4B00213F030C0D24050D
:4016C0003F0B27433B4C1B0527401F437F00D2077F0817434846391C07B03CBC90469946A246AB46F0BD03433ED05B46002B00D19CE1584601F0B0F82823311C1B1A021C30
:401700005F46D940083A97400B1C96403B439B46B1460023284D00262D1A00938AE7524603213A43A0D10027002302219CE752463A4315D0002F00D185E1381C01F08CF8B3
:40174000021C28215046891A131CC8405146083B99409F400B1C074317480021801A83E70027002301217FE700239B4699460133042600935EE703230C2600935AE7032BC6
:4017800000D13CE2012B00D0BFE11A1C019B1A4000210023002789468EE700238027994600223F03004B87E7FF07000001FCFFFF5C670000FFFF0F800DFCFFFFBB4500D9CC
:4017C00051E100D14CE14A46039200225C469046013D180E3F0238431B020193030C994603041B0C4946061C201C1F1C0093FFF741FB021C7A4302904946201C171CFFF7BF
:40180000BFFB039B09041B0C19438F420CD9029B8919013B8E4200D952E18F4200D84FE1029B8919023B0293CC1B201C4946FFF721FB009F834647434946201CFFF7A0FBB7
:40184000039A0B041404240C23439F420DD95A469B19013A9E4200D930E19F4200D82DE10222524294469B19E344029ADB1B17045A463A439346019C170C220C101C049267
:401880005A4611042204120C141C090C7C4305924A43414347436118100C09188C4203D980204002844667440C0C12040804120C3C198118A34200D2E5E000D1DFE01F1BB6
:4018C00043465C1AA04592415242BF1AB74200D10EE1381C4946FFF7CDFA009B029043434946381C9846FFF74BFB230C0F041F43B8450CD9029BBF19013BBE4200D9FBE0D0
:40190000B84500D8F8E0029BBF19023B02934346FF1A4946381CFFF7ADFA009B039043434946381C9846FFF72BFB24040904240C214388450CD9039B8919013B8E4200D960
:40194000DCE0884500D8D9E0039B8919023B03934346C91A029B039A1B04059C1A43100C13049146221C049F1B0C5A4344437B437843E318170CDB199C4203D980246402F2
:40198000A44660441C0C12041B04120C00199B18814200D296E000D1FCE04A4601231A4391469B4BEB18002B00DC99E04A4652070AD00F2249460A40042A05D004314945B6
:4019C00092418946524293445A46D20106D55A46904B1A4080239346DB00EB188E4A934200DD62E64A465946D208490711435A4689465702514601225B053F0B5B0D0A4000
:401A00005AE680205A460003024208D0074206D107433F0399463F0B4246804B4CE65F4607433F033F0B221C7C4B45E600F014FF031C2030272800DC5EE6083B9E400023DD
:401A4000B346994665E6504600F006FF021C2032272A00DC75E657460838874000237BE6994500D2AFE65A46594654084A46C8075208024303924A46D2079046A9E6002730
:401A8000884500D31CE7019F5A46BC46E044B845BF417F42BF19FF18013ABE4206D2BC425FD800D19FE03F1B934609E7B742FAD1019B4345F3D9371B934601E79346D4E65B
:401AC0000293B1E64A468919013A8E4218D99146814200D061E7019A9A4200D05DE760E74F4F7F1B382F13DD012253461A404FE601235B42994654E7029308E7039327E72B
:401B000088423CD874D0914647E7019B9A4648E71F2F44DC434B4A469C465B466544FA40AB4013434A46AA40151C6A1E95415A46FA402B43171C5A0709D00F221A40042A29
:401B400005D01A1D9A429B415B42FF18131C3A023ED55346012200211A40002701238946AAE502235B429C46019AE3449446E04490459B415B429B19DF193F1BA0E6019FB1
:401B80004A467C00BC42BF417F42BF19023AC91901949CE7002B95D1002201929BE75A46214B5B1BDA40202F27D0204B9C465B466544AB4049460B43591E8B411343072281
:401BC00000271A4007D00F2200271A40042AB8D17A077F023F0BDB0813439946012253461A40002368E54145BBD89346002767E6019C9C42C3D391466DE70023DAE780270D
:401C00005B463F031F433F033F0B019A034B53E5FF030000FFFFFFFEFE070000FF07000002FCFFFF1E040000E2FBFFFF3E040000F0B55F4656464D464446F0B4051C061C85
:401C4000080387B099464F00030BCC0F92469B467F0D019467D06C4B9F4236D080205B4640031843C0006B0F1843684B83469C4600239846EE00674400934B4649461D031D
:401C8000C90F5B0052462D0B5B0D894600D16EE05D498B4264D080205C4940038C4600210543ED00500F0543D20063444846FF187B1C9A46009B604002900B430F2B00D90A
:401CC000ACE053489B00C3589F465B461D4300D082E00823009300239B46023300269846CBE7029B01934346022B59D1012400250026019B1C40444B00212D030A0D1205BB
:401D00002D0B1543434A1B0515401D436D00E4076D082543301C291C07B03CBC90469946A246AB46F0BD2B434ED05B46002B00D185E1584600F090FD021C2823291C9B1AF4
:401D4000161C5846D940083EB0400B1CB54003439B462E1C0023304F0093BF1A98468CE7514629432ED10025002202219EE75146294323D0002D00D154E1281C00F06CFDA1
:401D8000031C28215046C91A1A1CC8405146083A914095400A1C05431F480021C31A85E7032B00D1C2E1012B00D06DE14446019B00251C40E4B2002300269DE70025002209
:401DC000012173E7032171E70423009300239B4601330026984650E70C230093093B98464BE7802500242D030026074B84E74B46AB46161C0193884675E7029BAB46161C9A
:401E0000019388466FE7C046FF07000001FCFFFF9C670000FFFF0F800DFCFFFF330C3604360C9C46331C140C1204120C53439846634653439946634663430193331C4146C1
:401E40006343090C4B445B18994505D9802040028146019949440191190C039141460904090C1B045B1804932B0C9846331C2D04290C4B43604600934346654658435E43FB
:401E8000009B4D431B0C9946AE194E448446B54203D980235B029946CC44350C2B1C0398634484460593009B36041B041B0CF3189C446046039058460504060C280C8446EA
:401EC0005043351C81466046654344434846000C8346724314195C44A24203D98022520293465D44220CAD184A461204120C24044046A41862464A4371434643604600967E
:401F0000464670438046100C84468844E044414505D9802149028C46009961440091019803998446614499429B415B4299460598434684461204120C1B049B1863449C467F
:401F4000AB4683429B4140460A19CC44A2428941E344CC45B6415C46000C8046494276425B426418334398448C428941AB459B4149425B4219430D1C009B4544EE18760264
:401F8000E50D2E43B346049B56021E43731E9E415B46D20D324366021643DB010AD50123334076081E435B46DB071E435B465B089B465746634BFB18002B5ADD720709D03B
:401FC0000F223240042A05D0321DB242B6417642B344161C5A46D20106D55A465A4B1A4080239346DB00FB18584A934234DD0124029B00251C400026554B7DE680205B4694
:402000000003034208D0054206D105432D032D0B4C46161C4E4B6FE65D4605432D032D0B4B4B69E6504600F017FC031C2033272B00DCA6E65546083885400022ACE6281C6B
:4020400000F00AFC021C2032272A00DC75E6083885400026AB467DE65A46F608520716435A4601245502029A5B052D0B5B0D144042E6384DED1B382D0ADD0124029B0025AF
:402080001C400026002337E6019B5746029391E71F2D25DC304B321C9C466744BE405B46BB40371CEA407E1EB74113433B431E1C5B46EB401D1C730709D00F233340042B90
:4020C00005D0331DB342B6417642AD191E1C2B0220D50124029B00251C40002601230BE65A461E4BDB1BDA40131C202D1CD01C4A94465A466744BA40171C3E43721E964156
:402100001E4307230025334007D00F2300253340042BD6D16B076D022D0B0124F6081E43029B1C400023E7E50027E6E780255B4601242D031D43019B2D0323401C1C2D0BF2
:40214000034BD9E5FF030000FFFFFFFEFE070000FF07000002FCFFFF1E040000E2FBFFFF3E040000F0B54D4644465F465646F0B40E1C111C3203520A470F1743C5001A03EF
:402180005800DB0F9946520A4B0F83B01A43CB000193CF4B7400F60F640DB046400D984200D1E8E00123494659400B1C9E4200D1B1E0261A002E00DC1CE1002842D1131C39
:4021C00001990B4300D0E6E06B0700D18EE00F232B40042B00D189E02A1DAA42AD418023012641466D427F191B043B400E40151C002B00D183E0B64B01349C4200D116E19D
:402200003A1CB44BED081A405007640552020543120B640D002112030B0D1B056405120B1A436308AC4CF60714401C43640064083443281C211C03B03CBC90469946A2469C
:40224000AB46F0BDA24B9C42BED080231B041A43382E00DD03E11F2E00DD3FE12020831B9946131C49468B409C46019B6046F34003430198F2408840011C481E81410B43CE
:40228000EB1A9D4280411D1CBA1A4042171A3B0200D4A8E07A02560A002E00D1CAE0301C00F0DAFA031C083B1F2B00DDCBE02822291C121AD1409E400A1C9D4032439C4257
:4022C00000DDC8E01C1B671C1F2F00DDEDE01F23291C1C1B131CA540A340F9406C1EA541FA4019430D43171C00246DE78023012642461B043B401640002B00D07BE7744B5A
:40230000ED0878070543FA089C423BD012036405120B640D7EE7231A9A46002B00DCA5E0002844D06A48844200D14DE78020000402435346382B00DC1CE1019B1A43511EFD
:402340008A41D1B200224919A94280410D1CD219404217183B0246D55D4B01349C4200D169E101205B4A6B083A4028401843D5070543570828E7131C01990B4300D111E704
:402380004B4613E72B1C134351D080231B031A431203120B3EE7013E002E00D080E0691A8D429B41BA1A5B42D71A0D1C6FE7101C019B184300D107E701235B429C46E24408
:4023C0005346002B00D002E1019BD2195919A9429B415B42D7180D1CBCE76346034300D128E1071C65466B0700D0F0E6012643461E4084E7002E00D081E0601C4005400DB9
:40240000012800DC07E10199681A84466545B641B81A7642861B300200D4A1E08C464D1BAC458941D21B4942561A984634E700220025EFE6281C00F00FFA2030031C083B95
:402440001F2B00DC33E7021C283A95402A1C00259C4200DC36E71F4FE41A1740B4E6019B1A43511E8A41D3B2002209E7002B00D001E1601C43055B0D012B00DCB0E0144B5E
:40248000984200D11EE1019BD2195919A9429B415B42D2184908D5070D435708041C93E60B4B9C4200D0D3E68EE6211C131C1F39CB40191C202F00D18EE03F231C1BA24078
:4024C00015436A1E954100270D4300248BE7C046FF070000FFFF7FFFFFFF0F80331C101C203BD840202E79D040239B1B9A40131C019A1343591E8B4100220343C0E6002CEF
:4025000053D0C74CA04200D1B0E0802471428946240427434946382900DDCDE01F2900DD59E120243E1C611A8E408A46B04649462E1CCE405146B4468D40644646464946DA
:4025400026436C1EA541CF4035430199D71B8C464D1BAC4592415242BF1A041C984696E663466546334300D096E60026002700240025C4E61F2B61DC2020C31A9B46131C80
:4025800059468B4051469946019BCB409C464B46604603439C465B46019999406346481E814119435346DA40CDE63C1C2C435DD0F1438946002955D10199D21B8C464D1BA5
:4025C000AC4589414942571A041C98465FE69448844200D0ADE6F7E5002271E7002387E73B1C2B43002C00D0DAE0002B00D113E1131C01990B4300D1E6E54919A9429B41AE
:40260000D2195B42D7183B0200D421E1854B0D1C1F40041CD8E5381C2843002C40D1002800D083E0101C0199084303D0171C0D1C9846C9E500260027002560E65046131C3B
:402640002038C340181C5346202B00D1C1E0402351465B1A9A40019911434A1E91410022014370E66E4CA04200D053E7171C019D041C9846A8E5002C28D13C1C2C4300D189
:402680008AE0DB439A46002B00D082E0019BD2199C4665449D42894149425718041C59E600285BD1101C0199084300D1A4E0171C0D1C98465A4C87E53D436F1EBD41002709
:4026C000EDB242E7041C0027002518E6544CA04262D0534680245B429A46240427435346382B00DD8EE01F2B00DD9DE02024E31A9B463B1C59468B40514699462B1CCB4012
:402700009C464B46644623439C465B469D4063466C1EA541CF401D43019BBF189C4665449D4292415242BF18041C13E6101C0199084300D148E5681A844685428041BE1A3F
:402740004042301A060200D447E68C464D1BAC458941D21B4942571A984635E5101C0199084334D080247807ED08FF0824032843274208D0D608264205D1C90852070A4314
:40278000101C371C9846FF00420F1743C500244C1AE5234CA042A2D1171C019D041C13E5002B35D0131C01990B4310D080247807ED08FF08240328432742E4D0D3082342FC
:4027C000E1D1C90852070A43101C1F1CDBE7144CFAE400223FE74C463E1C203CE6404946341C202932D04026761AB7403D436F1EBD4100272543A8E680270026FF03084C31
:4028000000257CE53D436F1EBD410027EDB283E7171C019D024CD7E4171C019DD4E4C046FF070000FFFF7FFF54463B1C203CE3401C1C5346202B0DD0402351465B1A9F4035
:402840003D436F1EBD410027254365E70027CDE70D1CC8E50027F3E71C2101231B04984201D3000C10391B0A984201D3000A08391B09984201D30009043902A2105C40189F
:402880007047C0460403020201010101000000000000000008B5002101F026FB08BD0000014B18687047C046440100200E4B70B500251E1C0D4CE41AA410A54204D0AB005B
:4028C000F35898470135F8E704F062F8084B00251E1C084CE41AA410A54204D0AB00F35898470135F8E770BD9C6900009C6900009C690000A4690000031C8218934202D045
:4029000019700133FAE77047F0B58BB0141C1D1E129906DA802424062B191D1C141C2D2300E000230B702023149E03229E43462E07D0331C453B59424B411099013ACB1820
:402940001093109B00920193139B221C029308AB039309AB04932B1C01F05AFB071C472E02D1119BDB072CD5109BFB180793462E14D13B78302B0CD1201C291C00220023E5
:4029800003F0FCFB002804D10123109A9B1A139A1360139B079A1B68D3180793201C291C0022002303F0EAFB002801D0079B0993099B079A934204D25A1C099230221A7084
:4029C000F6E7381C099B159ADB1B13600BB0F0BDF7B52B23071C0C1C0270861C002901DA2D234C427B70092C1CDD6B46DD1D201C0A2103F0A9FB013D30312970201C0A21E6
:402A000003F0BCFA041E092CF1DC013D30342C706B460733301CAB4209D92B78013533700136F5E73023E4183370B01C7470C01BFEBD0000F0B593B00C1C08920993189EC2
:402A4000051C02F0FDFB0368181C0B9300F000FC0023216810930C90277E33680722C90501D59B1800E0073393431A1C083232601A685B68A264E364A06CE16C00F09EFB11
:402A8000012818D1A06CE16C0022002303F07CFB002803D0231C2D2243331A70B64B0A93472F01D9B54B0A9303232268236101339A43226012E0A06CE16C00F07FFB2668DE
:402AC00000280DD1AE4B0A93472F01D9AD4B0A930323311C2361013399432160002680E080216068C900431C01D1062309E0A26CE36C672F01D0472F04D1002800D0C0E12A
:402B000001236360636831430093232321600191002106AA9B1802930FAB039310AB05930497A26CE36C0691281CFFF7EDFE20233A1C0A909A43472A07D10F9BDA1C02DB3D
:402B4000626893422DDD023FFFB20F99652F12D8201C01393A1C50300F91FFF739FF109A061C83182361012A02DC2268D2072ED5013323612BE0662F14D16368002908DD0A
:402B80002161002B02D12268D2071DD50133CB1811E0002B03D101222168114213D09A1C11E067270F9B1098834206DB22682361D20709D50133236106E00122002B01DC9C
:402BC0000221CA1A8218226100260F9BA365232306AA9B181B78002B03D0231C2D2243331A70099B281C0093211C089B11AA00F05FF9431C02D10120404256E122685305C5
:402C000004D4281C08990A9A236916E1652F00D8D4E0A06CE16C0022002303F0AFFA00282BD00123281C0899574A099EB047431CE1D00F9B109A934207DB2368DB0704D48B
:402C400023689B0700D51AE113E1099E281C08990B9A0C9BB0470026431CCCD0109B013B9E42EDDA221C0123281C08991A32099FB847431CBFD00136F0E70F9B002B2BDCD3
:402C80000123281C0899404A099EB047431CB2D00F9B002B05D1109B002B02D12368DB07CED5099E281C08990B9A0C9BB0470026431CA0D00F9B281C5B4208999E4208DAEC
:402CC000221C01231A32099FB847431C93D00136F0E70A9A109BB0E0109BA66D9E4200DD1E1C002E01DC002314E0331C281C08990A9A099FB847431CF5D17CE7221C012390
:402D0000281C08991A32099FB847431C00D172E70D9B01330D93F343A26DDB170D993340D31A9942EADB0A9B9E180F9B109A93420EDB2368DB070BD4109B0A9AD7180F9A39
:402D4000BF1B9B1A9F4200DD1F1C002F09DC11E00C9B281C08990B9A099FB847431CEBD149E7321C3B1C281C0899099EB047431C00D140E7002315E0DE670000E26700007E
:402D8000E6670000EA670000EE670000221C0123281C08991A32099EB047431C00D12AE70A9B01330A930F9A109B9A1AFB43DB173B40D31A0A9A9A42E8DB41E7109B281C3E
:402DC0000899012B02DC01231A423CD001230A9A099FB847431C00D10DE70C9B281C08990B9A099FB847431C00D104E7A06CE16C0023002203F0C2F90023002812D10A9AF8
:402E0000109B0132013B281C08991DE0221C0123281C08991A32099FB847431C00D1EAE60A9B01330A93109B0A9A013B9A42EDDB221C281C331C08995032099EB047431CC6
:402E400000D0FDE6D7E60A9A099FB847431CEFD1D1E6221C0123281C08991932099FB847431C00D1C7E60136E368119A9B1A9E42EFDB119BE068984217DA181C15E0002611
:402E8000F2E73143216001912321009006A8091802910FA9039110A90591002104970691281CFFF731FD0A9047E613B0F0BDC046F7B5171C01930A698B6800900C1C934283
:402EC00000DA131C221C3B6043321278002A01D001333B6023689B0602D53B6802333B60062523681D401ED0231C43331B785A1E9341226892061CD53020E1184031C87017
:402F0000211C5A1C45310978A21840320233D1700FE0221C0123009801991932089EB047431C0ED00135E3683A689B1A9D42F0DBDAE7221C009801994332089DA847431C82
:402F400002D10120404220E006232068E1683A6803400025042B03D18D1AEB43DB171D40A3682269934201DD9B1AED180027AF420ADA221C0123009801991A32089EB04734
:402F8000431CDED00137F2E70020FEBDF0B58BB006920A1C43320793059004920A7E0C1C109B6E2A00D1A8E011D8632A22D009D8002A00D1B2E0582A00D0C2E045310A703A
:402FC0007C4A4FE0642A1DD0692A1BD0B9E0732A00D1A7E009D86F2A29D0702A00D0B0E0202209680A43226037E0752A1FD0782A33D0A6E00E1C1A684236111D1960136850
:403000003370A1E021681A68080606D4490604D5111D19600023D55E02E0111D19601568002D3BDA2D23049A6D42137036E021681A68080606D4490604D51568111D196097
:40304000ADB202E0111D196015685A4B227E03930A276F2A1DD108271BE0221C782145321170554A19680392081D226818600D68100602D4500600D5ADB2D30702D52023A4
:403080001A4322601027002D03D1202322689A432260231C002243331A7002E00A27454B03936368A360002B03DB0422216891432160002D02D1049E002B0ED0049E281CC7
:4030C000391CFDF75DFF039B013E5B5C281C3370391CFDF7CFFE051EF1D1082F09D12368DB0706D563682269934202DC3023013E3370049B9B1B23612BE009681A68080639
:4031000007D4490605D5111D19601368A28A1A8004E0111D1960136862691A600023049E236116E01A68111D196016680021301C626802F093F8002801D0801B606063689F
:4031400003E0261C42363270012323610023049A1370079B05980093211C069B09AAFFF7A7FE431C02D10120404221E0236905980699321C079DA847431CF4D023689B0757
:4031800005D4099BE068984212DA181C10E00025E368099A9B1A9D42F3DA221C0123059806991932079EB047431CDCD00135EFE70BB0F0BDF06700000168000030B50C1C1B
:4031C0000223044317D080242406A14201D1002811D00A4B49004908094ACC180423944209D9084A013B914205D9074A0023914201D143424341181C30BDC0460000F0FF74
:40320000FFFFDF7FFFFF0F000000F07F0EB410B59DB002A9029008610B48822488604861012040421FABC881084804CBA400006801938C8102F036FD0023029A13701DB0FC
:4032400010BC08BC03B01847FFFFFF7F440100200023C25C0133002AFBD1581E704730B503680C780133002C0AD01A78151C413D192D00D820320131A242F2D0002001E09B
:403280000360012030BD000070B5161C0D1C02F0D1FA002E0BD06B226B005B0DD31A002B05DD034D1C0500226319FEF7C1FC70BD0000F03F0023F0B5A3B01E9300260027C7
:4032C0000B1C0390069119921D931D9B1A780D2A05D8092A14D2002A00D1C3E112E02B2A06D02D2A02D0202A0CD109E0012200E000220D925A1C1D925B78002B04D1B1E168
:403300000133E1E700230D9300221D9D0A922B78302B5DD16B78582B01D0782B4CD11EAB00930D9B039801931DA9C24A1FAB01F0B8FC07240490044001D100F0A7FD062C24
:4033400005D1002301351D950D9300F09FFD1E9A002A07D020A8352102F060FB03981E9901F0C8FF1F9B062C1CD8201C02F0FCFD040A0714170A040000273E1C12E0209E8C
:40338000219F0FE0AC4A21999B18AC4A1B050A401343209E1F1C05E0A94F002602E00126A84F7642049B1B0701D400F06FFD80231B061F4300F06AFD1D9B5A1C1D925B7872
:4033C000302BF9D0002B01D100F060FD01230A931D9B0C9300230593079304931D9C23781A1C303A0893D3B2092B12D804990A23082904DC07994B43D318079303E005991A
:403400004B43D3180593049B0134013304931D94E4E7039801F014FF0568039801F010FF0068FFF715FF291C021C201C02F042FD051E05D00020089B049C011C08905AE02D
:40344000039801F0FDFE0068FFF702FF1D9B049A18181D900378101E41D1302B05D11D9B01305A1C1D925B78F7E71A1C313A082A3DD8011C0020041C1D9A0C92303B421C25
:40348000002B26D08918221C001982420FD00132541E082C04DC0A24079D65430795F4E7102AF2DC0A24059D65430595EDE7541C082A06DC0A2207984243D318079300223D
:4034C00007E00022102C04DC0A20059D6843C31805931D9B581C1D905B78101C02E0281C291C049C1A1C303A092AC7D901E00024211C0122089220221D1C95430022452D81
:4035000057D1231C0A9D03432B43934200D1A9E01D9B069301331D93069B5B782B2B06D02D2B01D0099208E00123099300E00992069B02331D93069B9B781A1C303A092AD1
:4035400034D8302B04D11D9B5A1C1D925B78F8E731256D42AC469C4465460022082D28D8303B0B931D9B0E9330256D42AC461D9B5A1C1D925B789C446546092D06D80A22D4
:403580000B9D6A43D318303B0B93EDE70E9D521B151E2D4A9446082D03DC0B9A624500DD6246099D002D04D0524202E0069A1D920022002C61D10A9A104301D000F066FC67
:4035C000089A002A4ED14E2B1CD002DC492B05D048E0692B02D06E2B14D043E01DA81B49FFF73DFE00283DD01D9B1DA8013B18491D93FFF734FE002802D11D9B01331D930E
:403600000F4F2CE01DA81349FFF729FE002829D01D9B1B78282B21D11DA80F4920AA01F076FD05281AD1219B054A209E1A43171C00F02CFC5068000033040000FFFFEFFF82
:403640000000F07FFFFFFF7F1F4E0000E367000067680000EB67000014680000924F002600F014FC069B1D9300230D93199B002B01D000F00EFC00F017FC531A0993049B9B
:40368000002B00D10494251E102D00DD1025079802F04CFF061C0F1C092D15DD2B1C834A093BDB00D3181A685B68FEF7C1FA061C05980F1C02F03AFF021C0B1C301C391C85
:4036C000FDF76AFC061C0F1C0F2C37DC099B002B00D1DBE324DD162B07DC7449DA008A18106851683B1C321C15E02523099A1B1B9A4223DC0F226D4D141BE300EB181868D2
:403700005968321C3B1CFEF793FA099B1C1BE4002D192A686B68FEF78BFA061C0F1CB5E3099B16330ADB099B301CDA005F4B391C9A1A53681268FDF757FFEEE7099B651B11
:403740005D19002D59DD0F232B400AD0574ADB00D31818685968321C3B1CFEF769FA061C0F1C0F239D4300D1B0E02633FF339D420EDD0023049305930B9308932223002649
:40378000039A4B4F13600B9BB34200D06AE37DE30023301C391C2D110593012D0EDDEB0707D5059BDA00434BD3181A685B68FEF73FFA059B6D1001330593EEE7061C3E4BF7
:4037C000CF18059BDA003B4B9B1818685968321C3B1CFEF72DFA364B0F1C0B403749061C8B42C6D836498B4203D90126354F76426CE0D4239B04FF1868E0002D66D00F23C8
:403800006D422B400AD0294ADB00D318301C1A685B68391CFDF7E8FE061C0F1C2D1155D01F2D05DD0023049305930B93089318E100230693EB0601D56A230693391C301CEF
:40384000214E002D08DDEB0703D532687368FEF7EFF96D100836F4E7069B061C0F1C002B19D06B224B005B0D081CD31A002B12DD1F2B0CDD0026342B02DDDC27BF040AE061
:403880000122203B52429A401040071C03E0012252429A401640301C391C0022002302F06DFC0028BED113E00000F8FF806800000000F07F486900000000B0FC0000A07C2D
:4038C0000000907CFFFFEF7F2868000000230693079B039800930C99049A231C01F05FFD0B90002800D144E7099B099A5B42D217134013930023049305930B9B039859688C
:4039000001F0C0FC0890002800D137E70B9B0B991B690C319A1C92000C30079301F0A9FC1FAB009320AB01930398321C3B1C0E960F9701F0F5FF1E90002800D11EE70398FA
:40394000012101F0B6FD0590002800D116E70023099A0A93934200DA0A921F9B002B00DA89E0139A0A9CD518069A20999B1A36225B18521AC84901208B4200DB85E0C91A79
:40398000521A1F297BDC8840002318901293AB180793069BA418E418079BAB4200DD2B1CA34200DD231C002B04DD079AE41AD21A0792ED1A139B002B6BD1079B002B00DD64
:4039C00080E00A9B002B00D086E0002C00DD8DE0002D00DD94E003981E99089A01F0BFFE0490002800D1C9E60022C3680599C2600C9301F099FE002800DB91E00C9B002B15
:403A000000D01AE2002E00D017E23B0300D014E2D622A24BD2043B40934200D80DE2049B5B690793002B75D004990398012201F029FE0599049001F077FE002800DCFCE194
:403A4000069A964B002A00D19AE01A1CD6213A40C9048A4200DD93E0DC239B049A4200DDEEE12223039A002613600B9B0027002B00D0F7E10AE20A9A139DD41A74E7884925
:403A8000CB1A011C9940129101E00023129318907DE71A1C0398059901F0A2FD0590031E00D16BE60398191C1E9A01F00BFD0C90002800D162E603981E9901F01BFC0C9B9D
:403AC0001E937AE703981E99079A01F0DBFD1E90002800D075E751E6039808990A9A01F07FFD0890002800D06FE747E603980899221C01F0C7FD0890002800D068E73DE62E
:403B0000039805992A1C01F0BDFD0590002800D061E733E6049B1B690793012B84DC8CE1002864D10C9A3B03002A24D05D4A391C1B0B93422DD1069A0138341C031C002AF1
:403B40000AD0D425554AED043A40AA4204D86C33120D9A1A031C93409C421AD1524B994202D1631C00D109E64C4B0026194080235B03CF1861E1002B0BD1002E09D15FE754
:403B800001264A4A3B409B18464A76421A43171C53E1129B002B03D03B4200D14DE103E0189B334200D148E10C9B301C391C069A002B0AD0FFF768FB021C0B1C0E980F990B
:403BC000FDF7EAF9061C0F1C37E1FFF75DFB021C0B1C0E980F99FEF7C5FA00220023061C0F1C02F0CBFA002800D03AE725E10498059901F0E9FE80230022DB05041C0D1C8C
:403C000002F0CCFA002836D00C9B002B02D00024274D0BE0002E02D13B0305D10BE0012E02D1002F00D11CE70024224D002307931F4B0A9348E0201C291C00221C4B02F0F7
:403C4000A3FA002808D1201C291C00221A4BFDF7EFFF07900A9103E00C9B0793164B0A93802212069446079B1A930A9B63441B931A9C1B9D28E0104B201C291C0022FDF723
:403C8000D7FF0C9B07900A91002B17D180231B06CB181490159315E003FCFFFF0000F07FE3FBFFFFFFFF0F00FFFFEF7F0000F0FF0000F03F0000F0BF0000E03F079A0A9B67
:403CC00014921593149C159D7A4B3B401293129A794B9A422BD10E9A0F9B10921193774B301CFF18391C01F0A5FD021C0B1C201C291CFDF79DFF021C0B1C301C391CFDF712
:403D00004BF96C4B6E4A061C0B4093420BD96D4B119A9A4203D1109B013300D12EE50126684F764278E0D4239B04CF1840E0069B002B2BD0D423129ADB049A4226D8079887
:403D40000A99614A614B02F029FA002819D007980A9902F041FA002800D1013002F0E6FB0C9B07900A91002B05D180231B06CB181690179303E0079A0A9B16921793169CB9
:403D8000179DD623129ADB04EB189D1A0E980F9901F050FD021C0B1C201C291CFDF748FF021C0B1C0E980F99FDF7F6F8061C0F1C069B0E97002B2FD13E4B129A3B409A42C5
:403DC0002AD10A99079802F03FFB02F073FB0B1C021C0A990798FEF7C5F90C9B041C0D1C002B04D1002E02D10E9B1B030ED0201C291C374A374B02F0C7F9002832D1201C8D
:403E0000291C354A354B02F0D3F903E0304A344B02F0BAF9002825D103981E9901F06AFA0398089901F066FA0398059901F062FA0398049901F05EFA5FE5069B002B11D0B5
:403E4000284B301C119300231093391C109A119BFDF7EEFE061C0F1E04D1002802D12223039A136003981E9901F044FA0398089901F040FA0398059901F03CFA03980B9993
:403E800001F038FA0398049901F034FA199B002B02D0199B1D9A1A600D9B002B04D080231B06321CFB1801E0321C3B1C101C191C23B0F0BD0000F07F0000E07F0000B0FC45
:403EC000FFFF9F7CFFFFEF7F0000C0FFFFFFDF419535A094FFFFDF3F35E5AF350000E03FFFFFCF3F0000503908B5031C0A1C03490868191CFFF7DEF908BDC04644010020A4
:403F0000F0B503690C6989B00026A3427CDB0B1C013C1433A50003935B190493031C143301935D19049B07911B680290591C28680593FCF79FFF071EB74235D0039B01982B
:403F40009C460596634604CB91B27943120C7A4371180E0C9C46B318069302881E0C059B89B2D2180368521A190C6B461B8BCB1A11145B18191492B21B041A43049B05911E
:403F800004C06345DED22B68002B0DD1231C019A043D954203D8029A1C1C136104E02A68002AF8D1013BF2E70298079901F0BCFB002828DB00200199039A013720CA0B889D
:403FC0001818ABB2C31A08682D0C000C451B1E14AD1928149BB22D042B4308C1049B9342ECD2019AA300D3181A68002A0BD1019A043B934202D8029B1C6104E01A68002A43
:40400000F9D1013CF3E73E1C301C09B0F0BD0000F0B5161C1F1C446A9BB00890239D06960797002C08D1102001F00EF9089B5862446084600460C460089B5B6A196800294A
:404040000BD05A68012393404A608B60089801F051F90022089B5B6A1A60079B002B05DA01232B607B005B08079301E000232B60079CC64B221C17931A409A4219D1C44B0B
:40408000229A1360069AC34B002A02D1240300D1C14B249A181C002A01D100F0B6FDD978DA1C002900D005322499181C0A6000F0ACFD069E079F0022301C391C002302F004
:4040C0005DF8051E0ED00123229A1360B34B249A181C002A01D100F098FDB14A24990A6000F093FD19AB009318AB01930898321C3B1C01F015FC61000A90490D09D03803AA
:40410000A84C000B0443A848321C231C0E1816951CE0189B199A9E18A44B9E4209DBA44BF018069BC340181CA24B9B1B9C40204304E0A148069B801B8340181C02F0F6F98E
:404140009E4C021C0B190121013E1691101C191C00229B4BFEF706F89A4A9B4BFDF768FD9A4A9B4BFCF718FF041C301C0D1C02F0A1F9984A984BFDF75BFD021C0B1C201C05
:40418000291CFCF709FF041C0D1C02F05DF9291C03900022201C002301F0F6FF00280DD0039802F087F9021C0B1C201C291C01F0E5FF43424341039AD31A0393012313934F
:4041C000039B162B11D8854ADB00D31818685968069A079B01F0ECFF002805D0039B013B03930023139300E01390189B9E1B00230D93013E0E9604D50E9B5B420D93002356
:404200000E93039B002B08DB039A0E9B944663440E93002312920F9307E00D9B039A9B1A0D9353420F9300231293209B0125092B27D8052B02DD0025043B2093209B981E35
:40424000032823D801F090FE020E0410002300E001231093219B002B21DC01230B9309931A1C1AE0002300E00123039A10939446219B63440B9301330993002B12DC0123EA
:4042800010E0002310952093013B02E001231093023B00220B9309931333219202E0219B0B930993089A546A002262600432111C1431994204D86168520001316160F6E7B6
:4042C0000898616800F0DEFF089B20605B6A1B680C93099B0E2B00D988E1002D00D185E1069B079C14931594039B002B30DD0F223A491340DB00CB185C681B680493059455
:40430000039B02271D11EB060AD514981599344B15401A6A5B6AFDF767F90690079101372F4C002D0DD0EB0708D50498059922686368FDF77DFC0490059101376D1008341C
:40434000EFE706980799049A059BFDF74DF949E0039B02275D42002D46D0149815990F231E4A2B40DB00D3181A685B68FDF760FC1B4C2D11002D35D0EB0704D5226863682E
:404380000137FDF755FC6D100834F3E70000F07F0F2700006D68000064680000EE670000EF6700000000F03F01FCFFFFEFFBFFFF120400000EFCFFFFEEFBFFFF000010FED7
:4043C0000000F83F61436F63A787D23FB3C8608B288AC63FFB799F501344D33F806800004869000006900791139B002B1ED0069C079D0022201C291CCE4B01F0C5FE00287C
:4044000014D0099B002B11D00B9B002B00DCE9E0039B291C013B1193201C0022C64BFDF707FC0137069007910B9D02E0039B099D1193381C069B079C0493059402F03AF885
:40444000049A059BFDF7F4FB0022BC4BFCF7A4FD06900791069E079F079BB94A9C18002D1CD1049805990022B64BFDF77BFE321C231C0490059101F09BFE002800D063E22B
:4044800004980599321CB04E079CB4466444231C01F07AFE002800D04CE2A3E0AB4A6B1E1099DB00D31800294ED01A685B680020A749FDF799F8321C231CFDF753FE049E5E
:4044C000059F0C9B069007910493391C301C01F0BBFF041C01F0EEFF021C0B1C301C391CFDF740FE049B303401330493013B1C70069A079B061C0F1C01F046FE002800D0F8
:4045000061E3321C3B1C00208A49FDF72BFE069A079B01F039FE002800D0CDE0049B0C9A9B1AAB425EDA069807990022824BFDF77FFB0022069007917F4B301C391CFDF70A
:4045400077FB061C0F1CC0E718685968321C231CFDF76EFB049E059F0C9C0690079163190493391C301C01F06FFF051C01F0A2FF0B1C021C391C301CFDF7F4FD3035049BF9
:4045800025700134061C0F1CA34224D10022069807996F4BFCF700FD021C0B1C301C391C01F006FE002800D086E0069A079B00206749FDF7D7FD021C0B1C301C391C01F016
:4045C000E3FD00280ED0049B013B1A78302A00D0F9E20493F7E70022574BFDF729FB061C0F1CBEE7149B159C06930794199B002B00DA86E0039A0E2A00DD82E0D300534AE9
:40460000D3181E685F68219B002B14DA099B002B11DC00D090E1301C391C0022494BFDF707FB069A079B01F0CDFD099F3E1C002800D083E18CE10C9B069C079D0493321C89
:404640003B1C201C291CFCF7CFFF01F0FDFE069001F030FF321C3B1CFDF7EAFA021C0B1C201C291CFDF77EFD0B1C0499021C0698013104913030013908700C980499091A90
:40468000099881422ED1101C191CFCF785FC321C3B1C041C0D1C01F08BFD002810D1201C291C321C3B1C01F069FD002800D18CE2069BDB0704D488E2119B039300E00493F0
:4046C000049B013B1A78392A08D10C9A9342F6D1039B0133039330231370131C1A7801321A7072E2101C191C0022134BFDF7A0FA00220023041C0D1C01F040FD00289ED0FE
:4047000063E2109A002A44D0209A012A0BDC169A002A02D00F4A9B1802E03623189A9B1A0F9D0D9C29E0099B5D1E0F9BAB4213DB5D1B18E00000F03F0000244000001C40C5
:404740000000C0FC000014400000C07C806800000000E03F330400000F9B0F95EA1A0025129B9B181293099B002B04DA0D9B099A9C1A002301E00D9C099B0D9A0898D21803
:404780000D920E9A0121D3180E9300F092FE061C02E00F9D0D9C109E002C0CD00E9B002B09DDA34200DD231C0D9AE41AD21A0D920E9AD31A0E930F9B002B21DD109B002BAB
:4047C00018D0002D10DD311C2A1C089800F008FF061C0A9A311C089800F074FE071C0A99089800F087FD0A970F9B5A1B08D008980A9902E008980A990F9A00F0F1FE0A907C
:404800000898012100F055FE129B071C002B0ADD391C1A1C089800F0E3FE209B071C0025012B1BDC03E0209B0025012B12DC0025069BAB420ED1079B1B03AB420AD1179BC6
:40484000079A134206D00D9B013501330D930E9B01330E93129B0120002B08D03B6903339B00FB18586800F0DAFD2023181A0E9BC0181F23184009D001331B1A042B02DD7C
:404880001C23181A03E0042B08D0181C1C300D9B24181B180D930E9B1B180E930D9B002B05DD08980A991A1C00F0ECFE0A900E9B002B05DD391C08981A1C00F0E3FE071C72
:4048C000139B002B1ED00A98391C00F02DFF002818DA039B0898013B03930A9900230A2200F021FD109B0A90002B00D17FE1311C002308980A2200F016FD0B9B061C002BE1
:404900003CDC7DE1099B002B2EDC209B022B2BDD099B0B930B9B002B10D1391C0898052200F001FD071C0A98391C00F0FDFE00280EDC03E02F1C00E000273E1C219BDB43BA
:4049400003930C9B04930CE02F1C2E1C119B03930C9B0C9A0133049331231370039B01330393099600261AE1109B002B04D1099B0B930C9D0A9CD0E0099B0B93002C05DD4D
:40498000311C0898221C00F07DFE061C0996002D12D07168089800F075FC311C041C33690C319A1C92000C3000F063FC0898211C012200F067FE09900C9B0C9A0E930B9B1C
:4049C0000A9C013BD3181093391C201CFFF798FA031C0F903033311C201C0D9300F0A4FE391C0B90099A089800F0B9FE01230493C368051C002B04D1201C291C00F094FE6E
:404A000004900898291C00F075FC049B209A134310D1069A013313420CD10D980A9439283DD00B9B002B01DD0F9831300E9B013304933EE00B9B002B05DA049B0D9D0A9475
:404A4000002B09DC1CE00B9D209B1D431ED10123069A13421AD1F0E7211C0898012200F011FE391C0A9000F05FFE002803DC07D10D9BDB0704D50D9B392B10D01D1C0135C5
:404A80000E9B013304930E9B1D7088E00E9B5D1C049B002B10DD0D9B0A94392B06D10E9B0E9A013304933923137060E00D98049501300E9B187072E06A4634215218127864
:404AC0000E9B04951A70109A93423FD0211C0A220023089800F027FC099B041C311C08980A229E4205D1002300F01DFC061C09900AE0002300F017FC0999061C0A22089803
:404B0000002300F010FC09900E955DE7211C08980A22002300F007FC041C201C391CFFF7EFF934226B4630309B180D901B780B9A2B700C9B0135EB1A9342E7DB131E00DC18
:404B40000123099600260C9AD3180493211C0898012200F097FD391C0A9000F0E5FD002805DC15D10D9BDB0701D411E00493049B013B1A78392A08D10C9A9342F6D1039B80
:404B8000013303933123137009E001321A7006E0049B013B1A78302A01D10493F8E70898391C00F0A7FB099B002B0ED0002E05D09E4203D00898311C00F09CFB0898099919
:404BC00000F098FB01E0119B039308980A9900F091FB0023049A0C981370039B229A01331360249B002B10D0049A1A600DE00B9B002B00DDBDE6209B022B00DD8AE6B8E674
:404C0000209B022B00DD85E6B8E61BB0F0BDC046F0B5061C056914364A11341CAA4225DA1F23AD00920019407519B218331C002916D0131C04CB2027CA40B4467F1A6446F7
:404C4000AB4208D21C68BC402243644604C404CBA446CA40F3E72260002A07D0043405E01C1CAA4202D202CA02C3F9E7A31B9B10036100D14361F0BD031C303B092B01D8EA
:404C800020380BE0031C613B052B01D8473805E0021C413A0023052A01D82738C3B2181C7047F0B58DB0099102920A93059000F0C7FA0368181C0793FEF7CAFA079B0490EB
:404CC0001B18013B1B780B93099B19688A1C01920198531A0078023B01323028F7D00893FFF7CAFF061E20D101980799049A01F0E1F800283CD1019B049A9C182078FFF7E8
:404D0000BBFF002837D00194019B1878302803D1019B01330193F7E7FFF7AEFF4342434103930123261C089302E000231E1C0393019C2078FFF7A0FF002801D00134F8E76C
:404D4000201C0799049A01F0B5F800280BD1002E0BD1049BE618341C2078FFF78DFF002801D00134F8E7371E08D0361BB70005E0019C371C00E0071C012303932378502B1C
:404D800001D0702B28D163782B2B07D02D2B03D00023651C069304E0012300E000230693A51C2878FFF768FF431EDBB2182B13D810380135061C2878FFF75EFF431EDBB21F
:404DC000182B03D80A235E433018F1E7069B002B00D07642BF1900E0251C099B1D60039B002B06D00020089B834200D07BE1063079E1019B0399E31A013B072B02DD0131A2
:404E00005B10FAE7059800F03DFA031C0026051C1433039308930696019B9C422AD9631E09930B9A1B78934209D0069B202B14D1089B1E6000260433089306960DE0099B51
:404E4000049A9C1A019B01349C42EED3201C079901F030F80028DFD0E7E7099B1878FFF70BFF0F231840069B099C9840043306430693D1E7089C039B40C4E41AA4102C61A2
:404E8000301C00F0CCFA029B64011B68261A01939E4225DDF61A281C311C00F0D5FD0024A04217D01F230134201C721E13409840031C511103988900095819420AD0A242D8
:404EC00001DC022406E0B11E281C00F0BDFD0028F7D00324281C311CFFF79AFEBF190EE0019B00249E420ADA9E1B291C0598321C00F0C8FB031C051C1433BF1B0393029B5D
:404F00009B6804939F4208DD0598291C00F0F2F90023129AA3201360E5E0029B5E68B7425ADA019BF61B9E4232DB029BDB68022B1ED0032B20D0012B21D1019B9E421ED1BE
:404F4000012B0DDC029B62205B680193019A0A9B1A600123039A2B611360129B1D60C2E00199281C013900F06FFD0028EAD106E0139B002BE6D002E0139B002BE2D1059889
:404F8000291C00F0B7F90023129A50201360AAE0771E002C07D1002F06DD281C391C00F053FD041C00E001241F237A111F401E3BBB401F1C039B9200D3583B4201D002239E
:404FC0001C43019B311C9B1B281C0193FFF720FE029B02265F6800E00126002C7ED0029BDB68022B0BD0032B0DD0012B74D1A20772D5039A126814431C4207D16CE0012352
:40500000139A9B1A1393139B002B65D02C69A30003932B1C039A143399181A68501C02D001321A6021E0002204C39942F5D8AB689C4212DB6B680598591C00F023F9291C9D
:405040002B6904909A1C0C3192000C3000F011F9291C059800F04EF9049D2B695A1C2A61012204339B00EB185A602B1C1433022E11D1029A01991268013A91422AD14A1198
:405080001F210198920001400120041C8C40D35823421FD00CE02A69A2420BDD281C0121FFF7B6FD029B01379B689F4200DD2BE701260FE01F24019A01262240141E09D02E
:4050C000039A9B18043B186800F0A9F920210C1BA042E3DB202300E010231E43301C129B1D600A9B1F600DB0F0BD082370B520259A1A9200AD1A436806681C1CAC40D3405A
:4051000034430460436004308842F4D370BDF0B589B000920A68009953119B00CB1802931F231A400790059202D0029B04330293029B00251E1F371C341C079B35601B68AC
:40514000069503930195039B013303931B780493002B3BD00498FFF78FFD002822D1049B202B17D8069B019A9342ECDABC4206D2072D04DC201C391C2A1CFFF7B6FF009BB0
:4051800008259C42DFD90025019B271F3D6006933C1CD8E7049B292B4CD1039B079A0133136013E0019B013501330193082D06DD009B9C42C7D900230125043C236023688D
:4051C0001A010F23184010432060BCE7019B002B30D0BC4206D2072D04DC201C391C2A1CFFF783FF009B9C420AD9043302CC1A1F1160A642F9D2002204C39E42FBD20EE052
:40520000059B002B0BD020220599029B521A01214942D1400A1C043B19680A401A603368002B09D1009B9E4202D10123336003E0043EF4E7042000E0052009B0F0BD000043
:40524000004870474801002008B5034B011C186800F070FC08BDC04644010020C9B28218904204D003788B4202D00130F8E700207047002310B5934203D0CC5CC4540133D2
:40528000F9E710BD70B5466A041C0D1C002E07D11020FFF7D9FF6062466086600660C660666AF368002B09D0626AAB00D268D318186800280ED002681A6017E0201C0421B8
:4052C000212200F0E2FB636AF060DB68002BEBD100200EE001210E1CAE40721D9200201C00F0D3FB0028F3D04560866000230361C36070BD70B5456A061C0C1C002D07D184
:405300001020FFF7A1FF7062456085600560C560002C07D0726A6368D2689B00D3181A6822601C6070BDF7B51E1C14239C46071C0C1C00200D698C44634619881B68514399
:405340001B0C534389190E0CF31889B21E0C1B045B186146013008C18C46A842ECDB002E1BD0A3689D4212DB6368381C591CFFF789FF211C236901909A1C0C3192000C3071
:40538000FFF777FF211C381CFFF7B4FF019C2B1D9B00E31801355E602561201CFEBDF7B5061C181C0C1C083009210193151C00F0E5FD01230021984202DD5B000131FAE7CC
:4053C000301CFFF75FFF089B011C436101230361092D12DD231C09331F1C009364193B78301C303B0A22FFF79EFF0137011CA742F5D1009B5C19083C01E009250A342F1C1D
:40540000019B9F4209DA631BDB5D301C303B0A22FFF789FF0137011CF2E7081CFEBD0022031C010C914201D103041032190E01D108321B02190F01D104321B01990F01D196
:4054400002329B00101C002B03DB20205B0000D5501C70470722036810B5011C1A400CD001240020234223D10222134203D0E340201C0B601CE09B0818E098B2002801D15A
:4054800010221B0CD8B2002801D108321B0A180701D104321B09980701D102329B08D80704D45B082020002B02D00132101C0B6010BD10B50C1C0121FFF7E4FE012344617F
:4054C000036110BDF0B50B69141C126989B00D1C934201DA251C0C1C2F692669AA68BB1969680093934200DD0131FFF7CBFE011C009B1431844698000B1C0818834202D2E9
:40550000002204C3FAE71435BF00EB191434B6000493A31902950693069B9C4256D223880393002B22D00E1C0027029B0193019B039D04CB059601933388079393B26B430B
:40554000079D120CEB183568DB192F0C039D6A43BA181F0CD219170C9BB21204134308C6019A049B9A42E2D3059B5F6023681B0C019321D000220D1C0B68029F03923E88A0
:40558000019A9BB256432A680595120CB218039E9219160433432B6008CF019E1B0C7343AE88120C9B199B181A0C0392049A0435BA42E4D8059A536004340431ACE7043809
:4055C0000368002B05D1009B013B0093009B002BF5DC63466046009A1A6109B0F0BD00000323F7B51340051C0E1C141C002B07D0224A013B9B009A580023FFF794FE061CD0
:40560000A310019337D06C6A002C07D11020FFF71BFE6862446084600460C4606F6ABC68002C10D1281C1649FFF743FF0023B860041C036007E0019B5B1001931BD0206891
:4056400000280FD0041C019BDB07F4D5311C221C281CFFF737FF071C311C281CFFF74AFE3E1CE8E7281C211C221CFFF72BFF002320600360E6E7301CFEBDC046706900000E
:4056800071020000F0B50C1C171C2369551185B0EB180193013300934968A3680290009A9A4202DD01315B00F9E70298FFF7EAFD021C061C00231432AB4204DA002099003E
:4056C00050500133F8E7EB43DB171D40231CAD0055192269143392009A1894461F22174014D00132D21B039200221968281CB9400A4304C504CB0399CA409C45F5D8426044
:40570000002A07D0019B0233009303E004CB04C59C45FBD8009B0298013B3361211CFFF7E9FD301C05B0F0BD03690A6910B59B1A041C181E12D1930014341431E218C9187C
:40574000043A043913680868834204D083429B410120184302E0A242F2D8002010BDF0B5071C85B0081C0C1C111C151CFFF7DCFF061E07D1381C311CFFF784FD0123466139
:40578000036155E000230193984204DA231C2C1C1D1C01230193381C6168FFF773FD019B26692F1CC3601434B300E318021C02932B69002514379B00FB180393143208CC42
:4057C00069469C4608CF0432009363468B808B885D19009B9BB2EB1A65460193009B2D0C190C019B691A1D14131F9C466B4649199B880D1409040B4361460B60039B9F426F
:40580000DDD30299131C8C420BD208CC99B249190D141B0CEB181D1489B21B040B4308C2EFE7043B1A68002A01D1013EF9E7066105B0F0BD0F4B10B519400F4BC91800297D
:4058400002DD00220B1C11E04942091500220023132904DC802000030841031C06E00120322902DC3324611A8840021C101C191C10BDC0460000F07F0000C0FCF7B5061CD5
:40588000036914369B00F3181D1F2C680F1C201C0193FFF7C4FD20231B1A3B601F490A2813DC0B23271C1B1ADF4039439C460B1C0021B54202D901990839096865461530F5
:4058C000E940844021430A1C24E00027B54202D9019D083D2F680B235B429C4684446346002B14D02B23181A63469C4021433C1CC44021430B1C0024B54201D9043D2C6873
:40590000C4406146201C8F403843021C02E021430B1C3A1C101C191C03B0F0BD0000F03FF7B51D1C0121089F141CFFF7ABFC2B036D00061C1B0B6D0D02D08022520313436E
:405940000193002C18D068460094FFF783FD009C002809D02023019A191A131C8B40C24023437361019200E07461019CB461631E9C410134346107E001A8FFF76BFD0124AE
:40598000019B346173612030002D06D00B4BED1835232D183D60181A0BE0094BC018094B3860E3189B00F3185869FFF738FD6401201A099B1860301CFEBDC046CDFBFFFFAA
:4059C000CEFBFFFFFFFFFF3FF0B587B00E1C04A9071CFFF753FF041C0D1C301C05A900940195FFF74BFF049B059A3F699A1A336902900391FB1A5B01D318002B03DD1B05F6
:405A00005B19019302E01B05CB1A039300980199029A039BFBF7E8FD07B0F0BD131C013910B549111269013189001433920041189A18934202D210CB10C0FAE7884202D2C5
:405A4000002308C0FAE710BD30B5041C026914344B1193420CDC0CDA1F22114009D09A00155901202A1CCA408A40AA420CD100E0131C9B00E318A34205D9043B1A68002A0C
:405A8000F9D0012000E0002030BD4A4338B5111C141C00F04FF8051E03D00021221CFCF72BFF281C38BD000030B500293ED004390B68002B00DAC9181D4A1368141C002B67
:405AC00002D14B60116031E099420DD208680A189A4203D11368C3180B6053684B60216024E08A4203D8131C5A68002AF9D11D685C198C420BD10968691858181960904221
:405B000014D110685268091819605A600EE08C4202D90C23036009E008680C18944203D114685268001908604A60596030BDC046DC010020032370B5CC1C9C430834051C31
:405B40000C2C01D20C2405E0002C03DA0C2300202B6042E08C42F9D3204A1368101C191C002913D00A68121B0DD40B2A02D90A608B181FE08B4202D15A6802601BE04A6807
:405B80005A600B1C17E00B1C4968E9E7144E3368002B03D1281C00F07BF93060281C211C00F076F9031C421CD0D00322C61C964386420AD11C60181C07210B301A1D88439C
:405BC000821A0AD05142995007E0311A281C00F05FF9431CBAD0331CECE770BDDC010020D8010020F0B58E6885B0071C0C1C03920193B34245D390238A89DB001A423DD06C
:405C000003250969236801985B1A029363695D43EB0F5D19029B6D1001331B189D4200D21D1C381C53050FD5291CFFF783FF061E13D0029A2169FFF71CFBA289184B1340ED
:405C400080221343A38111E02A1C00F05BF9061E0CD1381C2169FFF727FF0C23402201203B60A38940421343A38117E0029B2661F61826606561019EED1AA560019BB3426C
:405C800000D2019E321C2068039900F027F90020A3689B1BA36023689E19266005B0F0BD7FFBFFFFF0B59FB0029005938B890E1C171C1B0610D50B69002B0DD14021FFF702
:405CC00039FF30603061002804D10C23029A01381360D0E040237361002306AD6B6120336B761033AB763C1C2378002B03D1E31B049312D003E0252BF9D00134F4E7049BA2
:405D00000298311C3A1CFFF76DFF431C00D1ACE06A69049B944663446B612378002B00D1A3E00122002352426A6002A95432521801342B60EB60AB601370AB654F4F217810
:405D4000381C0522FFF78AFA002808D0C01B01278740381C2B68013418432860EEE72B68DA0604D55322202102A8121811701A0704D553222B2102A81218117022782A2A3B
:405D800001D0099B0EE0059A111D12680591002A01DB099204E05242EA60022213432B60013409E02278303A092A04D80A214B4301349B18F6E7099323782E2B18D1637838
:405DC0002A2B09D1059B02341A1D1B680592002B0DDA01235B420AE0002301342278303A092A04D80A214B4301349B18F6E70793234F2178381C0322FFF730FA002807D06A
:405E0000C01B40278740381C2B6801341843286021781C480622671C2976FFF71FFA002812D0194B002B06D10722059B073393430833059314E005AB00930298291C321C84
:405E4000124BFCF7F7FD07E005AB00930298291C321C0E4BFDF79AF80390039B013304D06B69039A9B186B613DE7B3890B985B0601D5012040421FB0F0BDC0467C6900003B
:405E80008269000086690000352A0000E55B000038B50023064C051C081C2360FAF7C0FB431C03D12368002B00D02B6038BDC04630020020002330B59A420DD0013AC45CE6
:405EC000CD5CAC4202D1934202D1251C631B03E00133002CF3D1F8E7181C30BD10B5814208D28B18984205D29B1A013A09D3995C8154FAE70023934203D0CC5CC4540133DE
:405F0000F9E710BDF8B5061C0C1C151C002904D1111CFFF70FFE041C18E0002A03D1FFF7C3FD2C1C12E000F013F8A8420ED2301C291CFFF7FFFD071E07D0211C2A1CFFF79B
:405F400098F9301C211CFFF7AFFD3C1C201CF8BD0B1F1A68101F002A04DA891804390B68D01804387047000002B4714649084900095C49008E4402BC7047C04603460B4374
:405F80007FD4002243088B4274D303098B425FD3030A8B4244D3030B8B4228D3030C8B420DD3FF22090212BA030C8B4202D31212090265D0030B8B4219D300E0090AC30BEA
:405FC0008B4201D3CB03C01A5241830B8B4201D38B03C01A5241430B8B4201D34B03C01A5241030B8B4201D30B03C01A5241C30A8B4201D3CB02C01A5241830A8B4201D3F1
:406000008B02C01A5241430A8B4201D34B02C01A5241030A8B4201D30B02C01A5241CDD2C3098B4201D3CB01C01A524183098B4201D38B01C01A524143098B4201D34B01F2
:40604000C01A524103098B4201D30B01C01A5241C3088B4201D3CB00C01A524183088B4201D38B00C01A524143088B4201D34B00C01A5241411A00D201465241104670470D
:406080005DE0CA0F00D04942031000D34042534000229C4603098B422DD3030A8B4212D3FC22890112BA030A8B420CD3890192118B4208D3890192118B4204D389013AD071
:4060C000921100E08909C3098B4201D3CB01C01A524183098B4201D38B01C01A524143098B4201D34B01C01A524103098B4201D30B01C01A5241C3088B4201D3CB00C01AE2
:40610000524183088B4201D38B00C01A5241D9D243088B4201D34B00C01A5241411A00D20146634652415B10104601D34042002B00D54942704763465B1000D3404201B531
:406140000020FAF727FF02BD0029F8D003B5FFF715FF0EBC4243891A1847C0468446101C62468C46191C634600E0C0461FB500F005F9002801D40021C8421FBD10B500F070
:4061800049F84042013010BD10B500F0F7F8002801DB002010BD012010BDC04610B500F0EDF8002801DD002010BD012010BDC04610B500F073F8002801DC002010BD0120E1
:4061C00010BDC04610B500F069F8002801DA002010BD012010BDC04638B500220C4B041C0D1CFFF7EFFF002804D1201C291C00F02BF938BD064B0022201C291CFBF7B2FF21
:4062000000F022F980231B069C466044F1E7C0460000E041F0B55F464D4644465646F0B41F035C00DB0F99461B4B0E034D00C90F8446360B6D0D8B4690463F0B640D9D42BA
:406240000CD0154B9C4210D00123A54214D0181C3CBC90469946A246AB46F0BD311C01230143F4D10C4B9C42EED13A430123002AEDD10123A542EAD1BE42E8D1C445E6D198
:40628000CB4506D0002DE2D13043031C581E8341DDE70023DBE7C046FF070000F0B5574645464E46E0B40F034E00C90F8A4632491D035C0084463F0B760D90462D0B640D8D
:4062C000DB0F8E420FD08C4239D0002E10D13843414241418946002C27D12A4325D1002000290ED108E0391C01432ED1B44226D0002C0BD09A450DD053465942012319433E
:40630000081C1CBC90469946A246F0BD2A43F3D09A45F1D1A642EFDC1ADA504641424841012341421943081CEBE74A46002AE1D058425841012241421143081CE1E7291C3B
:40634000114302D1002EC2D0D4E702204042D8E7AF42D1D809D00020AF42D2D2504641424841012340421843CBE7C445C4D80020C445F3D3C5E7C046FF070000F0B55F4605
:406380004D46444656468046F0B4061C0803000B84462C484C001F035D00C90F640D8B4691463F0B6D0DDB0F844212D0854225D0002C14D161460E4370424641002D35D002
:4063C000002E21D058425841012143420B43181C0EE06146022031430AD1A5420ED0002D12D13A4310D15B46594201231943081C3CBC90469946A246AB46F0BD391C02205F
:406400001143F5D1002CD5D09B45ECD1AC42EADC05DBBC45E7D80FD00020BC45E8D2584641424841414201200843E1E73A43C7D10020002EDCD1D6E7C845D4D80020C845B2
:40644000EDD3D5E7FF0700000B0330B5134C1A0B4B00051C5B0DC90F0020A34210DD104883420EDC80200F4C40030243E41A1F2C0ADD0D48C31ADA40131C484243405818D3
:4064800030BD0A4BC818FBE7281CE040084CA44663449A40131C0343EFE7C046FE0300001D0400003304000013040000FFFFFF7FEDFBFFFF38B5041E16D0C50F00D0444273
:4064C000201CFCF7C9F9174B1B1A0A2821DC021C211C153291400A1C0B21081AC4405B052403240B5B0D03E000250023002400220021101C24030A0D1205240B14430A4AEF
:406500001B0514401C436400ED0764082C43211C38BD0B3884405B052403240B5B0D0022E6E7C0461E040000FFFF0F8010B5041E10D0FCF791F9144A121A0A281ADC0B2336
:40654000211C1B1AD94015300B03520584401B0B520D01E00022002300211B03201C1C0B0B0D1B052343094C1205234013435B00590810BD031C0B3B9C40520523031B0BA5
:40658000520D0024E8E7C0461E040000FFFF0F80000000000000000006030000F202000030040000FC020000D80300001003000028040000E0030000E8030000F0030000CA
:4065C000F803000000040000080400001004000018040000200400003004000030040000300400001A030000252E3266000000002B0000002D0000002A0000002F000000E7
:406600003D0000006572726F72000000494E50555420534D544800003132332B3435362D3738392A2E303D2F00300F40000400400F40000401000F4028300F4008310F4049
:4066400020320F4013330F4002400F4003410F4002600F40820D405149FF4AFF4BFF4F0150185A045D095F016040624064406540668068806A806C806E80C041C9FFCAFF89
:40668000CBFFCD83CE03CF01D018D280DA04DB04DD99DF01E040E240E440E540E680E880EA80EC80EE80420246824801740176807780D098D2080E012E01300136013E0157
:4066C000404145EC4720482349FF4AFF4BFF4D834E034F015018540158045A045B045C095D995F016040624064406540668068806A806C806E80060217801E801F80468278
:406700004D044F0156025D045E805F0187809A809B809E02C080C480D090D6D06F20DA808720A720E610020111010000030405060708090A0B0C0E0F1011121314151617F5
:4067400018191B1C1D1E1F2021222325262728292A2B2E2F3031323334350000BC170000AA1600009017000096160000901700009A1700009017000096160000AA160000DC
:40678000AA1600009A17000096160000A0160000A0160000A0160000021A00001C1E0000FA1D0000FA1D0000EE1D0000E21C0000E21C0000E21D0000EE1D0000E21C000007
:4067C000E21D0000E21C0000EE1D0000E61C0000E61C0000E61C0000FC1F00004300494E4600696E66004E414E006E616E0030003031323334353637383941424344454627
:40680000003031323334353637383961626364656600000034000000CEFBFFFFCB0300000100000000000000BC89D897B2D29C3C33A7A8D523F649393DA7F444FD0FA5322B
:406840009D978CCF08BA5B25436FAC642806681135000000CEFBFFFFCB0300000100000000000000496E66696E697479004E614E00504F534958002E00000000000000000B
:40688000000000000000F03F000000000000244000000000000059400000000000408F40000000000088C34000000000006AF8400000000080842E4100000000D012634177
:4068C0000000000084D797410000000065CDCD41000000205FA00242000000E876483742000000A2941A6D42000040E59C30A2420000901EC4BCD64200003426F56B0C4380
:406900000080E03779C3414300A0D8855734764300C84E676DC1AB43003D9160E458E143408CB5781DAF154450EFE2D6E41A4B4492D54D06CFF08044F64AE1C7022DB544A9
:40694000B49DD9794378EA440080E03779C34143176E05B5B5B89346F5F93FE9034F384D321D30F94877825A3CBF737FDD4F157505000000190000007D000000232D302BC6
:406980002000686C4C0065666745464700000000F8B5C046F8BC08BC9E467047CD0100009D060000F8B5C046F8BC08BC9E467047A5010000C8690000C8000020B80000001F
:4069C000B80000000000000000000000380200200000E02EC05D00001800000000366E01040404000000000000000000000000000000000000000000000000000000000091
:406A000000000000DC670000000000000000000000000000000000000000000000000000000000000000000000000000000000000000000000000000000000000000000013
:406A400000000000E400002077680000816900008169000081690000816900008169000081690000816900008169000081690000FFFFFFFFFFFFFFFFFFFFFFFFFFFF000007
:406A800000000000000000000000000000000000000000000000000000000000000000000000000000000000000000000000000000000000000000000000000000000000D6
:406AC0000000000000000000000000000000000000000000000000000000000000000000000000000000000000000000000000000000000000000000000000000000000096
:406B00000000000000000000000000000000000000000000000000000000000000000000000000000000000000000000000000000000000000000000000000000000000055
:406B40000000000000000000000000000000000000000000000000000000000000000000000000000000000000000000000000000000000000000000000000000000000015
:0200000490303A
:020000000B2FC4
:0200000490402A
:200000000000000000000000000000000000000000000000000000000000000000000000E0
:0200000490501A
:0C000000000204C81193110104EC1CC2A2
:0200000490600A
:0100000001FE
:00000001FF