:400000000010002011000000DD020000DD02000008B500F015FA00F063F90000F7B572B6624B01221A70E02200219200604800F0FAFF80220021D2005E4800F0F4FF5E4980
:400040005E48802200F0E6FF0023191C5C4C18592434C2B20192071CFF2297434A00A4180022019ED5B2AE4209D05500665D6519B446BC446D78664635700132F1E7C0B21B
:4000800004330918242BE1D14E4B802252001A804D4B01221A704D4B30221A604C4BC02292041A604B4BEE2212021A604A4B02221A604A4B31211960494B40211960494BC5
:4000C000C02149031960484BD821090119604749474B80201960474B802189021960464BC02109031960454999231B040B6044498005086043490C200B60434B0521196044
:40010000424B06211960424B19780A431A70414A117881430420014311701A7816210A431A703D4A80231168DB020B4313603B4B141C18783A4BC0B219783A4BC9B21A789B
:40014000172A05D9384A58789978033B9342F6D1364B19221860364B05201960354B1A6000F042FC344B05201A78344BD2B21A6000F082FD2268324B13402360314A324BB1
:400180001A60324B30221A60314B10221A60314B802212061A60304A304B1A60304A314B1A60314A314B1A60F7BDC0461C700F4080300F4000400F404410000000300F405E
:4001C000C410000000600F4002600F4000000140040001400C00014000000440080004400001044008010440080304400400990000500F4004500F4008500F4010500F4052
:4002000018500F4030500F402000004000800F4000700F4001700F4000010B40CCF1FF0FCDF1FF0FC9F1FF0FBDF1FF0F1CFF0B4020FF0B402CFF0B40E5F1FF0F28FF0B4087
:40024000FFFFFBFF0600008004010B40200202403002024008010B4033000080000002403F010080400002402B0100C08000024010B5064C2378002B07D1054B002B02D09D
:40028000044800E000BF0123237010BDF0000020000000004010000008B5084B002B03D00748084900E000BF07480368002B03D0064B002B00D0984708BDC0460000000074
:4002C00040100000F4000020D00000200000000008B500F079FB00F08BFAFEE7FEE7000070B51048104B0138421C15D01E685C689D680022A118AA4203D0B158A1500432DD
:40030000F8E7DA680D1C4C1B944202D0002410C1F9E710330138E7E700F056FEFFF7D8FFFEE7C046010000003013000008B500239A00032B02D80D49895800E00C490D48C2
:4003400001338150302BF3D1FFF768FE0A4B00221A600A4B1A68002A00D11A608023DB051A6801210A431A6008BDC04600000000DD02000000000020C8000020C000002040
:40038000004770B5051C0E1C141C002802D0002000F04EFC0020002C05D0013CAA19125D8318D8B2F7E770BD013808B509282AD8C901494200F0F4FD0507090B0D0F16147D
:4003C000181B154B08E0154B12E0154B0DE0154B0EE0154B00E0154BC9180878C0B21AE0134B02E0134B00E0134BC9180FE0134BC9180B7848788A78000212041043184332
:40040000CB781B0606E0002000F012FC00210B7848780002184308BDC07F0000C17F0000C57F0000C97F0000D07F0000D17F0000D67F0000D27F0000D47F0000D87F0000D4
:400440000C4B10B51A6810231A400B4B00D11A601A68802A0DD100240220211C1C60FFF7A3FFA04205D0211C0220FFF79DFFFFF787FF10BD00030B40C0000020F8B5051C22
:40048000291C0320FFF790FF291C041C0420FFF78BFF671CFF013F18291C0320FFF784FF00240130C001261CB84209D203785A1ED2B2FD2A00D801261C19E4B20130F3E7EB
:4004C0000120291CFFF770FF6442E4B20623844203D17242564176423340181CF8BD0000F0B5BB4CA544029000F0B6F962B600250A2403942F1C029B002B00D1FF2305AC54
:40050000962108A84900221C00F0C0F9029E002E03D0039B013BDBB20393039E002E02D00028E8D102E0002800D099E02188062900D83FE108A802780423012A5FD12322F0
:400540006A44222614786E4432782402144302195079E61D844610798E4200D92CE19279172A4CD1E3189BB20022002B09D09EAEF118984E013B891909789BB2521892B2C4
:40058000F3E7614652420B0292B218430823904235D16EE0342B00D0AAE0012D00D009E1032C00D006E153A80021802200F03BFD8027E21E53AD69463C19E8192731A4B262
:4005C00000F028FD832C00D0F1E026266E442521307869440B78000218437F4B019C1B6827021A68C019D30980B29BB2550601D001339BB2012598427FD200270A230021E1
:40060000012008AC20706846213003706B4622336A4600201632197058700B1D11809BB29EAEF4186B4E013BA41924789BB2001980B2002BF4D19EAC684E63189C1940428E
:40064000674E80B220709C19000A2070654807311B181720187089B208A8962300F004F9029C002C00D146E7012D00D0ACE0012541E708AE307901907378181C31380A2802
:4006800001D90523BBE700F095FC0B001800FCFF85FF3E00FCFF4100510085FF5F008700012D00D086E0002C00D083E0201CFFF7E5FE4342434133716BE0012D7AD1012CC8
:4006C00078D1019C002C75D1434B1B681B68DA0BD2B2DB09DBB2002A01D080235B0033711B0A7371FF23B3710023F371042187E7012D5FD1022C5DD95BE753A900F088F9BD
:40070000071E11D079E7012D54D157E0012D51D196233E195B009E424ED853A9C819221C09A900F077FCB7B2002368E7002C41D106AB2D4A191C60CA60C109AA21CB21C295
:4007400008210125231C5BE7012D33D1032C31D1B379019C76791B021E4321027118C90100208022FFF70DFE041C019800280DD1FF2E0BD101990520FFF716FE0199241A6E
:400780000620FFF711FEE4B2241AE4B2644208AB1C710023012133E70020FFF76FFE002802D1124B80221A6000F044FA02E00125002701E0042322E7032320E7029C002708
:4007C000BC4200D197E652E79F239B009D44F0BD84FDFFFFA7FDFFFFD4000020ACFDFFFFADFDFFFFAEFDFFFF04130000C000002038B50020FFF742FE0025A84200D0062538
:40080000134C00202368C0211A68C03AFFF7B9FD62681378181AC0B2984203D123681B68002B02D1002000F003FA0A4C2368402B01D0002D03D000202060FFF751FEC820FB
:40084000FFF74EFE8023236000F0F4F938BDC046D4000020C000002008B500F06BFA00F0C9FA00F01BFB08BDF8B5061C0D1C171C00F0C0FA341C2078013400F0E1FAA31B59
:400880009BB2AB42F7D33D800020F8BDF0B50A255D4385B001900391171C0024AC4214DA00F08CFA00280AD000F088FA041C192000F0CCF900F082FAA042F5D808E0012085
:4008C000013400F0C3F9A4B2E8E70521009101E00022009200243C8000F070FA002825D000F06CFA3B880399C21892B2061C3A808A421AD2251C2B1B9BB2B34209D2019AA9
:400900005219029200F02EFA029B01351870ADB2F1E734190199A4B20B19013B1B78172BDAD0052000F092F9D6E73B80009805B0F0BD00000D4B8022D2041A601A680021F3
:400940001A600B4A11601A681A600A4B0C221A60094B01221A60094B31221A60084BFE221A60084B7F221A607047C04600010540080105402401054038010540280105402A
:40098000140105400C01054038B50C1C051C00F035F8034BA5401D6000F034F838BDC0460800054010B500F029F8064B01241A6822431A6000F026F8201C1821FFF7E4FF1B
:4009C00010BDC0460000054010B5054C2378002B03D1FFF7AFFF01232370FFF7E3FF10BD0C010020000000000230800804D0C0460138FDD1C046C046C0467047EFF310802C
:400A000072B6704780F310887047C046C046C046F0B50024CBB0069404900794FF2800D9A4E0A14200D1A1E008AD8022281C00F0F1FA231C211C221C029498002858002837
:400A400002D01218014302930133202BF5D1002A05D1002900D08EE00191039102E0002001900390484F7F2328AE291C80222AA82897464C736000F0CDFA454A454B266061
:400A800013602168090F0A2903D022680F23134000E000230693069F002F69D1FFF7AEFF3D4A3E4B116807971960069B0590002B14D13B4A04982892289A01040A43289231
:400AC00028AA22603249374A0A602268120F0A2A03D02E4B1A680F2313400693069F002F38D1019A002A35D0391C8022281C00F09AFA0298039A08A983005A50224B2AA8B7
:400B0000289380227F23736000F084FA214820492660086023681B0F0A2B03D01B4B1F680F231F400697069B002B13D11E4A04982892289A01040A43289215491B4A266058
:400B40000A602268120F0A2A03D0104B1A680F2313400693079B002B04D1104A0E481268026007930598FFF74DFF01E00423069306984BB0F0BD02998B00E85801210390B5
:400B8000EA5001916EE7C046B6D7000008000040040000400400008008010B4010010020B6D8000005000080B6D90000060000801F2800D901BE034A800083181868196084
:400BC0007047C0464000002038B5041C0D1E032D00D901BE1F2C00D901BEFFF70FFFA308084A9B009B1803221440944019680634A2409143A5400C1C2C431C60FFF702FFF9
:400C000038BDC04600E400E01F23184001238340181C014B1860704700E100E01F23184001238340181C014B1860704780E100E001BE7047034B04491A6892B20A431A60F5
:400C40007047C0460CED00E00400FA0510B5041C8022074B1202944205D91868FFF7C4FE044BE418F4E758686043FFF7BDFE10BDDC0000200080FFFF08B5034B1B7A584346
:400C8000FFF7B2FE08BDC046DC00002008B510490020FFF78DFF00200321FFF795FF0D4B72221A700C4B20221A700C490220FFF77FFF02200321FFF787FF094B07221A70F4
:400CC000084B48221A70084B02221A7008BDC046D10E000080000F4081000F40410F000023000F4033000F4082000F4038B5FFF785FE0D4B20211A7810240A431A700B4B5C
:400D0000051C1A78002022431A70FFF77DFF084B02201A7814431C70FFF776FF00F036F9281CFFF76FFE38BD90000F4091000F4092000F4010B5054C2378002B03D1FFF729
:400D4000A5FF01232370FFF7D1FF10BD1401002008B50020FFF758FF08BD08B50020FFF75DFF08BD38B5FFF7F8FF114A53789178D078DBB2C9B2002801D18B4211D00D4916
:400D80003F20CC5C00210133DBB20D1C98424D41684203405370D378E4B28B4204D0D17002E0054B1C78E4B2FFF7D2FF201C38BD140100201C01002040000F4010B5FFF7B6
:400DC000CCFF0B4B59789A78914204D1DC78631E9C41A40108E059789A789C785B78914200D34034E41AE4B2FFF7B2FF201C10BD1401002008B5FFF701FE0A4B01221978F0
:400E000011431970197891431970FFF7FBFDFFF7A4FF054B00225A709A70DA701A71FFF797FF08BD90000F401401002008B50220FFF7EAFE08BD08B50220FFF7EFFE08BDD7
:400E400030B512498B794A79D2B2934202D2541E1C1B01E09C1A3F3C65426C41E4B2002CF1D19A4206D10A4A1278540702D4094B187009E000223F249C4252415242134047
:400E8000054AD05401338B7130BDC0461401002062000F4042000F405C01002008B5FFF7ADFD094B0122197811431970197891431970FFF7A7FDFFF7BEFF044B00225A71EF
:400EC0009A71FFF7B3FF08BD92000F401401002010B5144A1378111CDBB29A0621D51248124B1A7804781248D2B2E4B28454114A1078002802D010480124047018780130C6
:400F0000C0B2187018783F2801D90020187018780A4B1B78984201D1012313700B78DBB2DBE710BD61000F4040000F40160100201C0100201701002018010020150100207A
:400F40000D4B0E491A780978914214D00C4A117804220A400FD119783F2900D91A701A780849D2B2895C084AC9B211701A780132D2B21A70E4E77047190100201A01002009
:400F800062000F405C01002042000F40034B8022196812060A431A607047C0460000024002B4714649084900095C49008E4402BC7047C04603B47146490840004900095E72
:400FC00049008E4403BC704770B50E4B0E4D0024ED1AAD101E1CAC4204D0A300F35898470134F8E700F092F9084B094D0024ED1AAD101E1CAC4204D0A300F35898470134B8
:40100000F8E770BD1813000018130000181300002013000010B50023934203D0CC5CC4540133F9E710BD031C8218934202D019700133FAE770470000601300009A0000007D
:401040000000000000100000F3180C000008F300827F0000413C00420F3CF041C36700181C00E30408000000040000030C040000FF000000C01F2C200F401C0000202802CF
:401080000000000463050400010E00C021FFFFFF62A0F0410C00000000000212040404040000000100000000000040020010301000101012000000000000000000000000AB
:4010C0000000000003000F4013300F403C310F4062320F4041330F400B400F4008410F4004430F4002600F4080728138820F83018C0892029A01A004AA01AE02B002B1014B
:40110000B201B408B604BE55D418D604D804D904DB04DF0100440308048009010A260D010F8410801140132815201641180419161A201B401E091F052110220527402820AD
:401140002920311432013340382839C03A023B803D02402141014210430849104B8452015A085D02674A680469046A4070947202732887408A01C087C25FC4DFCA06CC0FE1
:40118000CE8FD00BD20CD682D8B0E680010602030309040906F0071D089C09200A2214301507164C1718181419071B082480251226102701282C2AD1301F3101331E34E0CD
:4011C000352037203A203B083F414034410245EB47C0482349FF4AFF4BFF4EF04F44500C54015604580459045A045B045F0166C06A406B0284E7871789188B038C448E313C
:401200009080951897059801990E9A0EA022A251A4E7A902B060B280B318B407B507B618B908BBA0BE40BF04C003C501C705C811C9FFCA07CBFFCC40CD20CEF0CF05D0085F
:40124000D804D904DA04DF01E040E1A8E240E32000480404051106400A440D080F0811061520161018411A141D111F102174222024042508260827822A102B082F103118B5
:401280003628380439203C243F0241044528470248104C404D014F08530857015D115E085F806780874089108B019104924094C1958096149E40A004A101A204A921C07599
:4012C000C26AC46CCA44CC66CEE6D0E2D6F0D880E61003405F106E80712086408B10C010D620DA80DC20E640620485208E04A520AB40D840E210EC8018808C40C608E60821
:40130000100111019311C804111E0101F8B5C046F8BC08BC9E467047990200002D030000F8B5C046F8BC08BC9E4670477102000040130000D000002020000000B00000000C
:4013400000000000381000003C1000000000E02EC05D00001800000000366E01000000000000000000000000000000000000000000000000000000000000000000000000F1
:40138000000000000000000000000000000000000000000000000000000000000000000000000000000000000000000000000000000000000000000000000000000000002D
:4013C00000000000000000000000000000000000000000000000000000000000000000000000000000000000000000000000000000000000000000000000000000000000ED
:4014000000000000000000000000000000000000000000000000000000000000000000000000000000000000000000000000000000000000000000000000000000000000AC
:40144000000000000000000000000000000000000000000000000000000000000000000000000000000000000000000000000000000000000000000000000000000000006C
:407FC0000000000000000000000000000000000000000000010000000000000000000000000000000000000000000000000000000000000000000000000000000000000080
:0200000490303A
:020000005B2182
:0200000490402A
:200000000000000000000000000000000000000000000000000000000000000000000000E0
:0200000490501A
:0C000000000204C81193110104CE6CB47E
:0200000490600A
:0100000001FE
:00000001FF