:400000000010002011000000BD050000BD05000008B500F0D5FAC04638B50F4C23688022D20213432360182000F06EFD22680B4B134023600A4A0B4B1A60063A0A4B1A60DB
:40004000002525600920094900F02AFD092000F01BFD074B1D6038BD00010B40FFFFFBFF0600008004010B4008010B403D0D00000C020B4010B572B60122304B1A70002405
:4000800010E02F4863001A195200821891881B195B001A5AC31858880004104300F0F2FA0134E4B2012CECD92549081C0C302C3100F0CEFAEE221202224B1A6099231B04C7
:4000C000214A1360214A1360A8210904204A1160204A1360204A1360AA2212061F4B1A6001221F4B1A6001321E4B1A601E4B19780A431A701D4802783C218A4328390A436C
:400100000270197816220A431A701022184B1A60184A194B1A600E22184B1A60184A194B1A60194A194B1A60F022194B1A60194A194B1A60FFF770FF10BDC0461C700F408C
:40014000840F00000C00014000500F4010500F4014500F4020500F4030500F4034500F402000004000800F4000700F4001700F400000044086210000080004400001044013
:400180009004180008010440B66D1B000802044000030440802D49000803044010B5064C2378002B07D1054B002B02D0044800E000BF0123237010BDF000002000000000AD
:4001C000A00E000008B5084B002B03D00748084900E000BF07480368002B00D108BD064B002BFBD09847F9E700000000A00E0000F4000020C80000200000000010B5041CF4
:400200002A2000F0F5FA034A1378591C1170024AD45410BD0C0100204801002010B5041C00F036FE021C201C002100F01FFE0022044B1A70012000F0DFFA0020042100F045
:4002400037FB10BD0C01002010B5041C00F016FE002820D1013000F0CFFA0020012100F027FB1A4B1B78002B0CD0194800F0B2FA002000F0C9FD012000F0BAFD0022134BF8
:400280001A7012E0002B10D1124800F0A3FA01220E4B1A7009E0012000F0AEFA0020012100F006FB0C4800F095FA201C00F0F0FD021C201C002100F0D9FD0022074B1A70C9
:4002C0000020042100F0F4FA10BDC046CC000020280F0000380F0000480F00000C01002008B51C4B1B78002B13D000F079FD01280FD100F081FA0120002100F0D9FA164818
:4003000000F068FA012000F07FFD002000F070FD1EE0104B1B78002B14D000F061FD002810D1013000F068FA01200E2100F0C0FA0A4800F04FFA002000F066FD012000F083
:4003400057FD05E0002000F05FFD012000F050FD08BDC046CC000020580F0000680F000010B500F05DF800F093FA62B60120002100F09EFAFFF7B4FF00F07CF8244B187078
:400380002338C3B2162B35D89800224B1B589F46214B59682148FFF757FFEBE71F48FFF73DFFE7E73120FFF729FFE3E73220FFF725FFDFE73320FFF721FFDBE73420FFF7C7
:4003C0001DFFD7E73520FFF719FFD3E73620FFF715FFCFE73720FFF711FFCBE73820FFF70DFFC7E73920FFF709FFC3E73020FFF705FFBFE7094C201C00F04AFD021C201CC6
:40040000002100F033FD202000F0F2F9B2E7C04644010020CC0E0000CC0000204801002008B5034800F0FAFA00F0C6FA08BDC0461105000007490A78531CDBB20B7001382E
:400440000549085C05498854092B02D90022014B1A70704710010020740F000050010020034A13785078181A431E9841C0B270471001002008B5FFF7F3FF0028FBD0064970
:400480004A78531CDBB24B700449885C092B02D90022014B5A7008BD1001002050010020002306E0C20701D5181C05E00133DBB24008072BF6D9FF207047C04638B50F2021
:4004C00000F014FAF82000F0B7FA00F01BFA041E0F2C18D0072000F0AFFA201C00F006FA00F0B6FA051E072D0FD0E043C0B2FFF7D7FF041CE843C0B2FFF7D2FF8000204371
:400500000130C0B202E0002000E0002038BDC04638B500F00DFA284CA5786B1CA370FFF7CDFF65192871A378092B02D90022224B9A70FF24002305E05A1C1F49CB181B79F0
:400540001C40D3B2092BF7D9E3B21B4A917BCAB2181C104302D1184B9C732CE0101C984304D0154B9C730022DA7324E0934307D0201CFFF75FFF104B0022DA739C731AE06F
:40058000214218D00C4BDB7B4F2B05D80A4A0133D373002313740CE0074A137C0133DBB21374272B05D90022034B1A74201CFFF741FF014B9C7338BD10010020FEE7C04654
:4005C00070B50F4E0F4D13E029686B68AC68002202E001C901C30432A242FAD1E868002202E0002102C304328242FAD11035013E002EE9D100F014FCFFF7B2FEFEE7C0463F
:4006000001000000DC10000008B500230AE0032B03D89A000A49505800E00A4899000A4A885001332F2BF2D9FFF724FD0022074B1A608022D205116801230B43136008BD74
:4006400000000000BD05000000000020C0000020F0B50025002711E0BB00C658F3B2FF22964308E06A008A181478A419527822700135013BDBB2002BF4D10137072FEBD9A4
:40068000F0BDC04608B50A1C002100F0EFFB08BD10B50B4C23686022934323602368513A9343236022681023184310432060012000F020FA236810229343236010BDC046F4
:4006C0000002044038B5051C0E4C22682023134323602368402293432360002000F00AFA23680F229343236023681020284318432060012000F0FEF9236810229343236018
:4007000038BDC04600020440F8B5274A13687F218B43136025490B681B0B1B03244803430B60136820218B431360116840230B431360CA277F00002000F0DCF91A4C2368DC
:40074000102633432360012000F0D4F9194B1D682368B3432360002000F0CCF908231D40236833432360012000F0C4F92368B3432360002D02D10A2000F0BCF9013F002D90
:4007800001D0002FD7D1084B1A6840218A431A601A683F318A431A60044A13681B0B1B0305490B431360F8BD00020440080204404902000004020440B60D000010B5041C39
:4007C000FFF7A2FF2009FFF77DFF0F202040FFF779FF10BD38B5051C0078012404E0FFF7EDFF285D0134E4B20028F8D138BDC04608B5FFF7E3FF08BD10B5041CFFF784FF98
:400800002009FFF745FF0F202040FFF741FF10BD08B5282000F056F90320FFF739FF052000F050F90320FFF733FF0F2000F04AF90320FFF72DFF012000F044F90220FFF778
:4008400027FF052000F03EF90620FFF7D5FF0E20FFF7D2FF2C20FFF7CFFF0820FFF7CCFF0120FFF7C9FF0C20FFF7C6FF0320FFF7C3FF052000F026F908BDC04608B50C209F
:40088000FFF7BAFF0122014B1A7008BD2401002008B5064B5B78002B04D1FFF7B9FF0122024B5A70FFF7EAFF08BDC0462401002008B501280BD0002804D002280CD00328E0
:4008C0000FD012E08039C8B2FFF796FF0DE04039C8B2FFF791FF08E06C39C8B2FFF78CFF03E02C39C8B2FFF787FF08BD044A11680F230B400001C0B2184310607047C04639
:4009000000030440024B18680006000F7047C04604030440024A117880230B431370704771000F40014B18707047C04682000F40014B1878C0B2704762000F4008B5011CD4
:40094000014800F093F908BD20000F4008B5024800F096F908BDC04640000F4008B5011C014800F083F908BD00000F4008B501E0FFF7ECFFFFF7DCFF0307F9D408BDC04609
:4009800010B50B4C201CFFF7D9FF201CFFF7E6FF00F070F8074A117810230B43137000F06DF8FFF7E3FF0120FFF7BCFF10BDC046BFD4010092000F4008B5064B1B78002BB1
:4009C00004D1FFF7DDFF0122024B1A70FFF7A2FF08BDC04626010020014B18647047C0460000002010B5041C00F044F8044A1368C0218B43A4011C43146000F03FF810BD13
:400A000000E400E00122014B1A60704700E100E00122014B1A60704780E100E010B5041CFFF7F6FF201CFFF7D7FF0320FFF7DAFFFFF7E8FF10BDC04604490A68F1231A4009
:400A40004000E33B184010430860704700010440024B18680007400F7047C046040104400230800804D0C0460138FDD1C046C046C0467047EFF3108072B6704780F3108820
:400A80007047C046C046C0461F2318401E3B8340181C014B1860704700E100E001BE704738B5041C0D1C1F2802D90020FFF7F6FFA400034B9C4664442068256038BDC046EA
:400AC0004000002010B5041C06E0084B1868FFF7C7FF074B9C46644480231B029C42F4D8024B58686043FFF7BBFF10BDD80000200080FFFF08B5034B1B7A5843FFF7B0FF73
:400B000008BDC046D8000020F0B557464E46C0B483B0041CFFF7AEFF0190E71E2D2F74D83F4B1B78DBB2A34208D33E4B1B78DBB29A463D4B1B78DBB2994631E03B4B1B78D0
:400B4000DBB2A34208D33A4B1B78DBB29A46394B1B78DBB2994623E0374B1B78DBB2A34208D3364B1B78DBB29A46354B1B78DBB2994615E0334B1B78DBB2A34208D3324BEB
:400B80001B78DBB29A46314B1B78DBB2994607E02F4B1B78DBB29A462E4B1B78DBB299462D4BDE5D2F2E09D92A2C07D919222B4B1A600520FFF754FF192503E0274B1D6808
:400BC0003F231D40AE4206D2234BDA5D234B1A600520FFF745FF1F4B9C4664442378DBB21F4A13601F4B52461A601F4B4A461A600520FFF77FFFAE420AD9174BDA5D174B33
:400C00001A600520FFF72CFF02E00020FFF746FF0198FFF733FF03B00CBC91469A46F0BDC0F1FF0FC1F1FF0FC2F1FF0FC3F1FF0FC4F1FF0FC5F1FF0FC6F1FF0FC7F1FF0F03
:400C4000C8F1FF0FC9F1FF0FCAF1FF0FCBF1FF0FCCF1FF0FCDF1FF0F881000002CFF0B4028FF0B401CFF0B4020FF0B40CBB203700B0ADBB24370090CC9B281707047C046E8
:400C8000027843781B0213438078000418437047034B1868C0231B02184000D00120704700010B4008B5FFF7E5FE044A1368C02109020B431360FFF7E1FE08BD00010B4072
:400CC00010B5FFF7D7FE08490A68084B1A408024E40122430A600A6813408022120213430B60FFF7CBFE10BD00010B40FF3FFFFF70B5061CFFF7BEFE041CFFF7C9FF00284D
:400D000003D0FFF7DDFF012500E000250848331C0340084A106808490840184310601368012D01D1FFF7BEFF201CFFF7A7FE70BD0404040010020B40FBFBFBFF10B5244B14
:400D40001B685B0715D5234B1B685B070ED5224B9969042001401F4C22688A4322609A6982439A61DB68002B00D098470420FFF7BFFF174B1B685B0518D5164B1B685B0528
:400D800010D5154B99698022D2001140114802688A4302609969114A0A409A611B69002B00D098478020C000FFF7A2FF084B1B685B030CD5074B1B685B0304D5064B5B6908
:400DC000002B00D098478020C002FFF791FF10BD10020B40E800002028010020FFFBFFFF024B1868C006C00F7047C0460400044004490A68BF231A4080017F3B1840104376
:400E0000086070470001044004490A68FB231A408000F73B1840104308607047000004400E4B70B500251E1C0D4CE41AA410A54204D0AB00F35898470135F8E700F03CF9A5
:400E4000084B00251E1C084CE41AA410A54204D0AB00F35898470135F8E770BDC4100000C4100000C4100000CC100000031C8218934202D019700133FAE7704702780B78DE
:400E8000002A03D0013001319A42F7D0D01A70470023C25C0133002AFBD1581E704700001000000000000000017A5200027C0E011B0C0D001000000018000000C0FFFFFF73
:400EC0001400000000000000000000009C030000F4030000F4030000F4030000F4030000F4030000F403000090030000F4030000F4030000F4030000F4030000F40300000F
:400F0000EC030000A4030000AC030000B4030000BC030000C4030000CC030000D4030000DC030000E4030000416C61726D2064697361626C65640000416C61726D20656E9E
:400F400061626C656400000057726F6E672070617373776F726400004D6F74696F6E20636F756768740000004F4B000031313131000000003134372A323538303336392301
:400F80000000000000300F40000400400F40000401000F4028300F4008310F4020320F4013330F4002400F4003410F4002600F40820D405149FF4AFF4BFF4F0150185A0480
:400FC0005D095F016040624064406540668068806A806C806E80C041C9FFCAFFCBFFCD83CE03CF01D018D280DA04DB04DD99DF01E040E240E440E540E680E880EA80EC8045
:40100000EE80420246824801740176807780D098D2080E012E01300136013E01404145EC4720482349FF4AFF4BFF4D834E034F015018540158045A045B045C095D995F0103
:401040006040624064406540668068806A806C806E80060217801E801F8046824D044F0156025D045E805F0187809A809B809E02C080C480D090D6D06F20DA808720A7205A
:40108000E610020111010000030405060708090A0B0C0E0F101112131415161718191B1C1D1E1F2021222325262728292A2B2E2F3031323334350000F8B5C046F8BC08BC0A
:4010C0009E467047C501000009060000F8B5C046F8BC08BC9E4670479D010000F0100000C800002028000000700000000000000000000000010000006C0F0000580F0000B9
:401100000000E02EC05D00001800000000366E01040404000000000000000000000000000000000000000000000000000000000000000000000000000000000000000000BB
:40114000000000000000000000000000000000000000000000000000000000000000000000000000000000000000000000000000000000000000000000000000000000006F
:40118000000000000000000000000000000000000000000000000000000000000000000000000000000000000000000000000000000000000000000000000000000000002F
:4011C00000000000000000000000000000000000000000000000000000000000000000000000000000000000000000000000000000000000000000000000000000000000EF
:4012000000000000000000000000000000000000000000000000000000000000000000000000000000000000000000000000000000000000000000000000000000000000AE
:0200000490303A
:02000000009E60
:0200000490402A
:200000000000000000000000000000000000000000000000000000000000000000000000E0
:0200000490501A
:0C000000000204C81193110104CE12315B
:0200000490600A
:0100000001FE
:00000001FF