:400000000010002011000000610700006107000008B500F0A7FBC04638B5164C23688022D20213432360182000F03EFD2268124B13402360114A124B1A602022114B1A60C7
:40004000103A114B1A6080221206104B1A60002525600F4A0F4B1A600F4A104B1A6009200F4900F0C7FC092000F0AEFC0D4B1D6038BDC04600010B40FFFFFBFF060000803B
:4000800004010B40080202400C02024008010B401400008000000240CF00008040000240B90C00000C020B4010B572B60122374B1A70002410E0364863001A19520082180B
:4000C00091881B195B001A5AC31858880004104300F0AAFB0134E4B2012CECD92C49081C0C302C3100F086FBEE221204294B1A60EE221202284B1A600922284B1A609923E4
:400100001B04274A1360274A1360A8210904264A1160264A1360264A1360AA221206254B1A600522244B1A600132244B1A60244B1978043A0A431A70224802783C218A433E
:4001400028390A430270197816220A431A7030221D4B1A601D4A1E4B1A600E221D4B1A601D4A1E4B1A6020221D4B1A60802252021C4B1A60F0221C4B1A601C4A1C4B1A60B0
:4001800001221C4B1A60FFF747FF10BD1C700F40C8170000000001400C0001401000014000500F4010500F4014500F4020500F4030500F4034500F402000004000800F4008
:4001C00000700F4001700F40000004408041020008000440000104409004180008010440000204400802044000030440802D4900080304400804044010B5064C2378002BA2
:4002000007D1054B002B02D0044800E000BF0123237010BDF000002000000000FC16000008B5084B002B03D00748084900E000BF07480368002B00D108BD064B002BFBD0F9
:400240009847F9E700000000FC160000F4000020C80000200000000008B50F4B1B78002B19D00D4A5368013353600C4A934212D1094B00221A705A6000F0C2F9012000F076
:4002800079FD012000F06AFD0020012100F0C8F9034800F0F9F908BD0C01002050C300002817000010B5344B1B78002B62D100F063FF324B1860002856D0022802D00328FB
:4002C0000AD04AE02E4C201C01F010FA021C201C002101F0F9F94DE02A4B1968284801F0FBF900281CD100F08BF90020002100F097F9254800F0C8F90020012100F090F950
:40030000224800F0C1F91E4800F0BEF9002000F031FD012000F022FD0122174B1A7018E000F06EF90020002100F07AF9184800F0ABF90020012100F073F9144800F0A4F9B1
:40034000012000F017FD002000F008FD00220A4B1A700022084BDA600CE0074AD368591CD160074AD05405E0012000F003FD012000F0F4FC10BDC0460C0100209401002054
:400380005C010020CC00002038170000481700005017000008B500F01FF800F00DFD00F093FE00F04BFF0A4800F07CFF094B187910210222002300F0BDF800F075F962B611
:4003C0000020012100F02CF9FFF76CFFFCE7C04659020000CC00002008B5034800F0BCFA00F088FA08BDC0468904000007490A78531CDBB20B7001380549085C054988543F
:40040000092B02D90022014B1A7070471C010020A817000098010020002306E0C20701D5181C05E00133DBB24008072BF6D9FF207047C04638B50F2000F0FCF9F82000F099
:4004400099FA00F003FA041E0F2C18D0072000F091FA201C00F0EEF900F098FA051E072D0FD0E043C0B2FFF7D7FF041CE843C0B2FFF7D2FF800020430130C0B202E00020DD
:4004800000E0002038BDC04638B500F0F5F9284CA5786B1CA370FFF7CDFF65192871A378092B02D90022224B9A70FF24002305E05A1C1F49CB181B791C40D3B2092BF7D94A
:4004C000E3B21B4A917BCAB2181C104302D1184B9C732CE0101C984304D0154B9C730022DA7324E0934307D0201CFFF77FFF104B0022DA739C731AE0214218D00C4BDB7BBD
:40050000072B05D80A4A0133D373002313740CE0074A137C0133DBB21374032B05D90022034B1A74201CFFF761FF014B9C7338BD1C01002010B5064C207006480170064942
:400540000A70064A13700822054B1A7010BDC046A3010020A8010020A9010020A5010020A201002010B50C1C002100F09BFC201C00F04AFD00F002FD10BDC04608B5054BA0
:400580001A78054B1B78011C1943101CFFF7EAFF08BDC046A3010020A201002010B5041C04202043FFF7EAFF012000F073FA0423201C9843FFF7E2FF322000F06BFA10BD9E
:4005C00010B5041CFFF7DAFF201CFFF7E7FF10BD38B50D1C0F23021C9A43131C0001C4B20B43181CFFF7ECFF201C2843FFF7E8FF38BDC04608B50021FFF7EAFF08BDC0460F
:4006000008B50120FFF7F6FF022000F02BFA08BD08B50220FFF7EEFF022000F023FA08BD70B584B06B460C4A70CA70C31C1C136823600A4B1B78994201D9591EC9B2890024
:400640006B46CB58C01880235B421843C0B2FFF7D1FF04B070BDC046B8170000A901002008B5054A107804231843107004331843FFF7C0FF08BDC046A401002008B501212F
:40068000FFF7A6FF08BDC04670B5061C01F02EF8051C002403E0305DFFF7F0FF0134EBB2A342F8D870BDC04610B50022254B1A70254B1B78012B02D90821224A1170234AB4
:4006C0001278002A06D0012B04D11E4A117804230B431370322000F0C5F91D4B1878FFF74DFFFA20800000F0BDF93020FFF768FF184C201C00F0CEF93020FFF761FF201C26
:4007000000F0C8F93020FFF75BFF962000F0C2F92020FFF755FF0B4B187820231843FFF769FF04220C4B1A70FFF79AFFFFF768FF02220A4B1A700620FFF75CFFFFF768FFD1
:4007400010BDC046A7010020A9010020A5010020A201002094110000A4010020A6010020FEE7C04670B50F4E0F4D13E029686B68AC68002202E001C901C30432A242FAD1AF
:40078000E868002202E0002102C304328242FAD11035013E002EE9D100F070FFFFF7FAFDFEE7C046010000008419000008B500230AE0032B03D89A000A49505800E00A485F
:4007C00099000A4A885001332F2BF2D9FFF76CFC0022074B1A608022D205116801230B43136008BD000000006107000000000020C0000020F0B50025002711E0BB00C658D0
:40080000F3B2FF22964308E06A008A181478A419527822700135013BDBB2002BF4D10137072FEBD9F0BDC04608B50A1C002100F04BFF08BD044A11680F230B400001C0B2F2
:40084000184310607047C04600030440024B18680006000F7047C04604030440024A117880230B431370704771000F40014B18707047C04681000F40014B1878C0B2704799
:4008800061000F40014B18807047C04640100F40014B188880B2704780100F40014B18807047C04600100F4008B501E0FFF7F0FFFFF7E2FF0307F9D408BDC04610B50B4C7C
:4008C000201CFFF7DFFF201CFFF7E8FF00F072F8074A117810230B43137000F06FF8FFF7E3FF0120FFF7C2FF10BDC046DF2E000091000F4008B5064B1B78002B04D1FFF739
:40090000DDFF0122024B1A70FFF7A8FF08BDC04630010020014B18647047C0460000002010B5041C00F046F8044A1368C0218B43A4011C43146000F041F810BD00E400E0C6
:400940000122014B1A60704700E100E00122014B1A60704780E100E010B5041CFFF7F6FF201CFFF7D7FF0320FFF7DAFFFFF7E8FF10BDC04604490A68F1231A404000E33B30
:40098000184010430860704700010440024B18680007400F7047C04604010440000000000230800804D0C0460138FDD1C046C046C0467047EFF3108072B6704780F310883F
:4009C0007047C046C046C0461F2318401E3B8340181C014B1860704700E100E01F2318401E3B8340181C014B1860704780E100E001BE704738B5041C0D1C1F2802D9002074
:400A0000FFF7F6FFA400034B9C4664442068256038BDC0464000002070B5041C0E1E032E02D90020FFF7E4FF1F2C02D90020FFF7DFFF03252540ED000635FFF7BBFFA40846
:400A4000A400074B9C46644423680322AA409343AE40351C1D432560FFF7B0FF70BDC04600E400E010B5041C06E0084B1868FFF797FF074B9C46644480231B029C42F4D856
:400A8000024B58686043FFF78BFF10BDDC0000200080FFFF08B5034B1B7A5843FFF780FF08BDC046DC000020F0B557464E46C0B483B0041CFFF77EFF0190E71E2D2F74D8FA
:400AC0003F4B1B78DBB2A34208D33E4B1B78DBB29A463D4B1B78DBB2994631E03B4B1B78DBB2A34208D33A4B1B78DBB29A46394B1B78DBB2994623E0374B1B78DBB2A34273
:400B000008D3364B1B78DBB29A46354B1B78DBB2994615E0334B1B78DBB2A34208D3324B1B78DBB29A46314B1B78DBB2994607E02F4B1B78DBB29A462E4B1B78DBB29946B6
:400B40002D4BDE5D2F2E09D92A2C07D919222B4B1A600520FFF724FF192503E0274B1D683F231D40AE4206D2234BDA5D234B1A600520FFF715FF1F4B9C4664442378DBB26D
:400B80001F4A13601F4B52461A601F4B4A461A600520FFF77FFFAE420AD9174BDA5D174B1A600520FFF7FCFE02E00020FFF720FF0198FFF703FF03B00CBC91469A46F0BDEC
:400BC000C0F1FF0FC1F1FF0FC2F1FF0FC3F1FF0FC4F1FF0FC5F1FF0FC6F1FF0FC7F1FF0FC8F1FF0FC9F1FF0FCAF1FF0FCBF1FF0FCCF1FF0FCDF1FF0F301900002CFF0B4069
:400C000028FF0B401CFF0B4020FF0B40034B1868C0231B02184000D00120704700010B4008B5FFF7C7FE044A1368C02109020B431360FFF7C3FE08BD00010B4010B5FFF7E7
:400C4000B9FE08490A68084B1A408024E40122430A600A6813408022120213430B60FFF7ADFE10BD00010B40FF3FFFFF70B5061CFFF7A0FE041CFFF7C9FF002803D0FFF719
:400C8000DDFF012500E000250848331C0340084A106808490840184310601368012D01D1FFF7BEFF201CFFF789FE70BD0404040010020B40FBFBFBFF10B5244B1B685B0797
:400CC00015D5234B1B685B070ED5224B9969042001401F4C22688A4322609A6982439A61DB68002B00D098470420FFF7BFFF174B1B685B0518D5164B1B685B0510D5154B49
:400D000099698022D2001140114802688A4302609969114A0A409A611B69002B00D098478020C000FFF7A2FF084B1B685B030CD5074B1B685B0304D5064B5B69002B00D0D2
:400D400098478020C002FFF791FF10BD10020B40EC00002034010020FFFBFFFF04490A68BF231A4080017F3B18401043086070470001044004490A68FB231A408000F73BFB
:400D800018401043086070470000044008B50B20FFF71AFE08BDC04608B500F01DF808BD08B5044A1368802109060B431360FFF7EDFF08BD0000074008B5064B1B78002B2C
:400DC00004D1FFF7E9FF0122024B1A70FFF7E8FF08BDC0465001002010B51D4A11680C230B43136000241B4B1C601B4A1B4B1A601B4B1C4A13601C4A14601C4A14601C4AF4
:400E000013601C4B1C600B20FFF7E8FD0B200321FFF702FE0B201849FFF7ECFD174B1C60174B1C60174B1C601422FF32164B1A60164B1C60164B1C60043AFF3A154B1A70AF
:400E4000154B1C80154B1C60154B1C6010BDC04670000740000007406408008060000740070100800003074004030740100307400002074004020740C1120000C80E07405A
:400E8000880E0740480F0740080F0740C80F0740880F0740AA010020B8010020C8010020B001002038B52E4B1B78102B53D12D4B1B68DB0751D40D1C041C0B20FFF78EFDB0
:400EC0006000FF231840002D03D12422244B1A7004E02522224B1A7001231843224B1860224A234B1A600222224B1A60204B1A680823FF331A42F9D01D4B1B685B0714D44F
:400F00001B4B1B689B0713D4194B1B68DB0705D51022134B1A70012001210BE01022104B1A7080204000012104E00020002101E0022000210822FF320D4B1A6000290DD0BF
:400F40000D4A13685B005B0813601368802109060B43136002E0042000E0082038BDC046AA010020640007404002074017030000000F074068000740000007401D4B1B7819
:400F80009B0634D51C4B1B689B0601D5182200E010221A4B1A601A4B1A681223FF331A42F9D0174B1B68DB0606D4154B1B68DB0705D50120012105E00020002102E080205E
:400FC000400001211222FF320D4B1A60023AFF3A084B1A7000290BD00A4A13685B005B0813601368802109060B43136000E004207047C046AA010020640007406800074030
:40100000000F074000000740214B1B789B063CD5204B1860204B1A680823FF331A42F9D01D4B1B685B0705D56022194B1A700020002119E0184B1B689B0705D56022144BFC
:401040001A70022000210FE0134B1B68DB0705D510220F4B1A700120012105E010220C4B1A708020400001210822FF320A4B1A6000290BD0094A13685B005B08136013681C
:40108000802109060B43136000E004207047C046AA01002040020740000F07400000074008B500F067F808BD08B500F01DF808BD08B5044A1368802109060B431360FFF7C8
:4010C000EFFF08BD0000064008B5064B1B78002B04D1FFF7E9FF0122024B1A70FFF7E8FF08BDC04658010020114A124B1A600023114A13600121114A11601148114A106028
:40110000072211480260114803601148016011490A60114A1360114A1360114A1360114A1360114A1360114A1360114A136070470B000002000006404000064048000640D1
:4011400007000080000306400403064010030640440006400002064004020640880E0640C80E0640480F0640080F0640C80F0640880F06407047C04608B500F077FA0028EC
:4011800002D000F06DFA00E00020054B1A68D8239B001A4203D01A1C014B1A60002008BDC00F0640024A117880230B431370704773000F40014B18707047C04683000F4054
:4011C000014B1878C0B2704763000F40014B18807047C04644100F40014B188880B2704784100F40014B18807047C04604100F4008B501E0FFF7F0FFFFF7E2FF0307F9D407
:4012000008BDC04610B50B4C201CFFF7DFFF201CFFF7E8FFFFF7CEFB074A117810230B431370FFF7CBFBFFF7E3FF0020FFF7C2FF10BDC0465F09000093000F4008B5064B6B
:401240001B78002B04D1FFF7DDFF0122024B1A70FFF7A8FF08BDC04659010020014B98647047C0460000002010B5041CFFF7A2FB044A1168044B0B40A4051C431460FFF7BD
:401280009DFB10BD00E400E0FFFF3FFF0422014B1A60704700E100E00422014B1A60704780E100E010B5041CFFF7F6FF201CFFF7D5FF0320FFF7D8FFFFF7E8FF10BDC0460B
:4012C00010B5C04B1B68002B00D09847BE4B1B68DB0702D50022BD4B1A60BD4B1B789B0628D5BC4B1B68DB0507D5BB4A1188C0239B000B431380012300E00023B54A1268BC
:40130000D20706D5B44A118890239B000B4313800123002B0FD0AE4A1278D20701D5012200E00222AC49088802430A800021A84A117000E00023A64A1278920600D414E1E7
:40134000A44A1268D20611D51022A44B1A60A04B1B78DB0701D5012300E002239E4A11880B43138010229A4B1A7029E1984A1278120720D5974A126892070AD50222974BED
:401380001A60954A118888239B000B431380012311E08F4A1278D20703D525218C4A117009E024218A4A11708D4A1268002A02D014398C4A1160864A1278520700D4ABE0D8
:4013C000834A1278D20749D5874A1268120727D5864A1268864909680F240C40854909686418141B082C09D8002C16D1824A1168824B0B401360012308340EE008240CE0EE
:401400007C4A11687E48006841187E480068C0B20870116801311160013C002CF0D119E0714A1268520715D5724A116874480068411874480068C0B208701168013111603B
:4014400011686A4A1268914203D204216E4A116000E001236D496E4A11605DE05D4A1268920726D502225D4B1A606A4A13680F211940136880221202134000D00123CB18A1
:40148000654A1168CB1A13601268644B1A60524A118884239B000B431380614B1A68802149020A431A6019685E4A0A401A60012332E05D4A1268D20612D424E0564A1168B1
:4014C000474A1268914211D2534A11685748006841180978C9B2564801601168013111604C4A12680F210A40082AE7D14A4A11683B4A1268914202D140213A4A11604D498C
:401500004D4A116008E0484A1268520604D5424B1A68424B1A600123002B51D0364A1168364B0B4013600023444A13602D4A1360434B1B789B070ED5254B1B78DB0701D551
:40154000092300E00A23244A11880B43138060221F4B1A7034E03B4B1B689B0601D5182200E01022284B1A602AE0194B1B78DB0626D4354A13685B005B0813601021144B70
:4015800019701D4B18683149014019601868304901401960002329490B6012490B601B49254B196023491A4B19602A492A4B19602A490A4B19601368802109060B431360E8
:4015C00010BDC046540100208C0E0740880E0740AA0100200C0F0740B8010020000F0740B4010020880F0740CC0F0740C401002008030740C801002060000740FFFEFFFFF2
:40160000BC0100204003074068000740ED0F0000C00F074008020740AC010020B001002004020740FFFFFEFF8C0F0740CC01002040020740F3070000800F0740C80F074005
:40164000C00100206400074000000740FF5FFFFFFFFCFFFFFF0F0000400F074017030000014B18687047C04640030640024B1B680F2018407047C046080306400E4B70B58F
:4016800000251E1C0D4CE41AA410A54204D0AB00F35898470135F8E700F062F9084B00251E1C084CE41AA410A54204D0AB00F35898470135F8E770BD6C1900006C1900003C
:4016C0006C19000074190000031C8218934202D019700133FAE7704702780B78002A03D0013001319A42F7D0D01A70470023C25C0133002AFBD1581E7047000010000000DA
:4017000000000000017A5200027C0E011B0C0D001000000018000000C0FFFFFF140000000000000000000000446F6F7220636C6F73656421000000004163636573732067FA
:4017400072616E746564210049443A20000000004163636573732064656E696564210000416C61726D2064697361626C65640000416C61726D20656E61626C6564000000CA
:4017800057726F6E672070617373776F726400003039303038423331364244380000000031313131000000003134372A323538303336392300000000000000004000000090
:4017C000140000005400000000300F40000400400F40000402000F4033300F4015310F4033320F4015330F4004400F4005410F4002600F40810D830D405149FF4AFF4BFF25
:401800004F0150185A045D095F016040624064406540668068806A806C806E8082019E01B001B601BE01C041C5ECC602C807C9FFCAFFCBFFCD83CE03CF01D018D280D401C2
:40184000D804DA04DB04DC09DD99DF01E040E240E440E540E680E880EA80EC80EE8006400D801E801F8041804580464048014D044F0155805D045E805F0174017640C01082
:40188000C280D098D208D6D0404549FF4AFF4BFF4F0150185A045D095F016040624064406540668068806A806C806E808E019201B001B601BE40C054C5ECC720C823C9FFBE
:4018C000CAFFCBFFCD83CE03CF01D018D280D401D804DA04DB04DC09DD99DF01E040E240E440E540E680E880EA80EC80EE8002020B4019401A804101468049054B404E0271
:40190000510152025945728073408240AF80C001C208D081D218D60B6B406F20DA80DC2083409F40AF20E680EE10020111010000030405060708090A0B0C0E0F10111213FE
:401940001415161718191B1C1D1E1F2021222325262728292A2B2E2F3031323334350000F8B5C046F8BC08BC9E46704721020000AD070000F8B5C046F8BC08BC9E467047C2
:40198000F901000098190000C800002028000000E00000000000000000000000901700002700000001000000A01700000000E02EC05D00001800000000366E010404040012
:4019C00000000000000000000000000000000000000000000000000000000000000000000000000000000000000000000000000000000000000000000000000000000000E7
:401A000000000000000000000000000000000000000000000000000000000000000000000000000000000000000000000000000000000000000000000000000000000000A6
:401A40000000000000000000000000000000000000000000000000000000000000000000000000000000000000000000000000000000000000000000000000000000000066
:401A80000000000000000000000000000000000000000000000000000000000000000000000000000000000000000000000000000000000000000000000000000000000026
:0200000490303A
:02000000791B6A
:0200000490402A
:200000000000000000000000000000000000000000000000000000000000000000000000E0
:0200000490501A
:0C000000000204C81193110104D08AAE64
:0200000490600A
:0100000001FE
:00000001FF