:400000000010002011000000AD070000AD07000008B500F0CDFBC04638B5134C23688022D20213432360182000F06AFD22680F4B134023600E4A0F4B1A6010220E4B1A60FC
:40004000802212060D4B1A60002525600C4A0D4B1A6009200C4900F0F9FC092000F0E0FC0A4B1D6038BDC04600010B40FFFFFBFF0600008004010B400C02024008010B403F
:400080001400008000000240350D00000C020B4010B572B60122344B1A70002410E0334863001A195200821891881B195B001A5AC31858880004104300F0DCFB0134E4B2E5
:4000C000012CECD92949081C0C302C3100F0B8FBEE221204264B1A60EE221202254B1A6099231B04244A1360244A1360A8210904234A1160234A1360234A1360AA22120628
:40010000224B1A600122224B1A600132214B1A60214B19780A431A70204802783C218A4328390A430270197816220A431A7030221B4B1A601B4A1C4B1A600E221B4B1A608D
:400140001B4A1C4B1A6020221B4B1A60802252021A4B1A60F0221A4B1A601A4A1A4B1A60FFF75AFF10BDC0461C700F401C160000000001400C00014000500F4010500F4003
:4001800014500F4020500F4030500F4034500F402000004000800F4000700F4001700F40000004408041020008000440000104409004180008010440000204400802044058
:4001C00000030440802D49000803044010B5064C2378002B07D1054B002B02D0044800E000BF0123237010BDF0000020000000003C15000008B5084B002B03D007480849F3
:4002000000E000BF07480368002B00D108BD064B002BFBD09847F9E7000000003C150000F4000020C80000200000000010B5041C00F04AFA034A1378591C1170024AD454F6
:4002400010BDC0460C0100205001002010B5041C01F06CF9021C201C002101F055F90022044B1A7000F0F2F90020012100F0FEF910BDC0460C01002010B5041C01F04CF9FE
:4002800000281FD100F0E2F90120002100F0EEF9194B1B78002B0CD0184800F01BFA002000F0A6FD012000F097FD0022124B1A7011E0002B0FD1124800F00CFA01220E4BB6
:4002C0001A7008E000F0C2F90120002100F0CEF90C4800F0FFF9201C01F028F9021C201C002101F011F90022074B1A700020012100F0BCF910BDC046CC000020C41500006B
:40030000D4150000E41500000C01002010B500F093F8244B18702338C3B2162B35D89800214B1B589F46214B59682148FFF7A4FF37E01F48FFF78AFF33E03120FFF776FF02
:400340002FE03220FFF772FF2BE03320FFF76EFF27E03420FFF76AFF23E03520FFF766FF1FE03620FFF762FF1BE03720FFF75EFF17E03820FFF75AFF13E03920FFF756FF01
:400380000FE03020FFF752FF0BE0094C201C01F0CDF8021C201C002101F0B6F8202000F093F910BD4C01002068150000CC0000205001002008B500F015F800F03BFD084B66
:4003C000187A10210222002300F0DAF800F092F962B60020012100F049F9FFF797FFFCE7CC00002008B5034800F0E2FA00F0AEFA08BDC046D504000007490A78531CDBB2F1
:400400000B7001380549085C05498854092B02D90022014B1A70704710010020FC15000058010020034A13785078181A431E9841C0B270471001002008B5FFF7F3FF002880
:40044000FBD006494A78531CDBB24B700449885C092B02D90022014B5A7008BD1001002058010020002306E0C20701D5181C05E00133DBB24008072BF6D9FF207047C0465B
:4004800038B50F2000F0FCF9F82000F09FFA00F003FA041E0F2C18D0072000F097FA201C00F0EEF900F09EFA051E072D0FD0E043C0B2FFF7D7FF041CE843C0B2FFF7D2FF0A
:4004C000800020430130C0B202E0002000E0002038BDC04638B500F0F5F9284CA5786B1CA370FFF7CDFF65192871A378092B02D90022224B9A70FF24002305E05A1C1F49DE
:40050000CB181B791C40D3B2092BF7D9E3B21B4A917BCAB2181C104302D1184B9C732CE0101C984304D0154B9C730022DA7324E0934307D0201CFFF75FFF104B0022DA7341
:400540009C731AE0214218D00C4BDB7B4F2B05D80A4A0133D373002313740CE0074A137C0133DBB21374272B05D90022034B1A74201CFFF741FF014B9C7338BD1001002076
:4005800010B5064C20700648017006490A70064A13700822054B1A7010BDC046630100206801002069010020650100206201002010B50C1C002100F0B3FC201C00F062FD8A
:4005C00000F01AFD10BDC04608B5054B1A78054B1B78011C1943101CFFF7EAFF08BDC046630100206201002010B5041C04202043FFF7EAFF012000F079FA0423201C98433C
:40060000FFF7E2FF322000F071FA10BD10B5041CFFF7DAFF201CFFF7E7FF10BD38B50D1C0F23021C9A43131C0001C4B20B43181CFFF7ECFF201C2843FFF7E8FF38BDC04605
:4006400008B50021FFF7EAFF08BDC04608B50120FFF7F6FF022000F031FA08BD08B50220FFF7EEFF022000F029FA08BD70B584B06B460C4A70CA70C31C1C136823600A4B13
:400680001B78994201D9591EC9B289006B46CB58C01880235B421843C0B2FFF7D1FF04B070BDC0460C1600006901002008B5054A107804231843107004331843FFF7C0FF88
:4006C00008BDC0466401002008B50121FFF7A6FF08BDC04670B5061C00F028FF051C002403E0305DFFF7F0FF0134EBB2A342F8D870BDC04610B50022254B1A70254B1B78CF
:40070000012B02D90821224A1170234A1278002A06D0012B04D11E4A117804230B431370322000F0CBF91D4B1878FFF74DFFFA20800000F0C3F93020FFF768FF184C201CE8
:4007400000F0D4F93020FFF761FF201C00F0CEF93020FFF75BFF962000F0C8F92020FFF755FF0B4B187820231843FFF769FF04220C4B1A70FFF79AFFFFF768FF02220A4B44
:400780001A700620FFF75CFFFFF768FF10BDC04667010020690100206501002062010020941100006401002066010020FEE7C04670B50F4E0F4D13E029686B68AC680022E6
:4007C00002E001C901C30432A242FAD1E868002202E0002102C304328242FAD11035013E002EE9D100F06AFEFFF7E4FDFEE7C046010000007417000008B500230AE0032B9B
:4008000003D89A000A49505800E00A4899000A4A885001332F2BF2D9FFF73AFC0022074B1A608022D205116801230B43136008BD00000000AD07000000000020C00000208E
:40084000F0B50025002711E0BB00C658F3B2FF22964308E06A008A181478A419527822700135013BDBB2002BF4D10137072FEBD9F0BDC04608B50A1C002100F045FE08BDB5
:40088000044A11680F230B400001C0B2184310607047C04600030440024B18680006000F7047C04604030440024A117880230B431370704771000F40014B18707047C04677
:4008C00082000F40014B1878C0B2704762000F4008B5011C014800F0C5F908BD20000F4008B5024800F0C8F908BDC04640000F4008B5011C014800F0B5F908BD00000F4085
:4009000008B501E0FFF7ECFFFFF7DCFF0307F9D408BDC04610B50B4C201CFFF7D9FF201CFFF7E6FF00F072F8074A117810230B43137000F06FF8FFF7E3FF0120FFF7BCFF4F
:4009400010BDC046BFD4010092000F4008B5064B1B78002B04D1FFF7DDFF0122024B1A70FFF7A2FF08BDC04624010020014B18647047C0460000002010B5041C00F046F863
:40098000044A1368C0218B43A4011C43146000F041F810BD00E400E00122014B1A60704700E100E00122014B1A60704780E100E010B5041CFFF7F6FF201CFFF7D7FF032050
:4009C000FFF7DAFFFFF7E8FF10BDC04604490A68F1231A404000E33B184010430860704700010440024B18680007400F7047C04604010440000000000230800804D0C04621
:400A00000138FDD1C046C046C0467047EFF3108072B6704780F310887047C046C046C0461F2318401E3B8340181C014B1860704700E100E01F2318401E3B8340181C014B65
:400A40001860704780E100E001BE704738B5041C0D1C1F2802D90020FFF7F6FFA400034B9C4664442068256038BDC0464000002070B5041C0E1E032E02D90020FFF7E4FFD3
:400A80001F2C02D90020FFF7DFFF03252540ED000635FFF7BBFFA408A400074B9C46644423680322AA409343AE40351C1D432560FFF7B0FF70BDC04600E400E010B5041C76
:400AC00006E0084B1868FFF797FF074B9C46644480231B029C42F4D8024B58686043FFF78BFF10BDD80000200080FFFF08B5034B1B7A5843FFF780FF08BDC046D800002085
:400B0000F0B557464E46C0B483B0041CFFF77EFF0190E71E2D2F74D83F4B1B78DBB2A34208D33E4B1B78DBB29A463D4B1B78DBB2994631E03B4B1B78DBB2A34208D33A4BF1
:400B40001B78DBB29A46394B1B78DBB2994623E0374B1B78DBB2A34208D3364B1B78DBB29A46354B1B78DBB2994615E0334B1B78DBB2A34208D3324B1B78DBB29A46314B41
:400B80001B78DBB2994607E02F4B1B78DBB29A462E4B1B78DBB299462D4BDE5D2F2E09D92A2C07D919222B4B1A600520FFF724FF192503E0274B1D683F231D40AE4206D22D
:400BC000234BDA5D234B1A600520FFF715FF1F4B9C4664442378DBB21F4A13601F4B52461A601F4B4A461A600520FFF77FFFAE420AD9174BDA5D174B1A600520FFF7FCFE5B
:400C000002E00020FFF720FF0198FFF703FF03B00CBC91469A46F0BDC0F1FF0FC1F1FF0FC2F1FF0FC3F1FF0FC4F1FF0FC5F1FF0FC6F1FF0FC7F1FF0FC8F1FF0FC9F1FF0F8A
:400C4000CAF1FF0FCBF1FF0FCCF1FF0FCDF1FF0F201700002CFF0B4028FF0B401CFF0B4020FF0B40CBB203700B0ADBB24370090CC9B281707047C046027843781B02134330
:400C80008078000418437047034B1868C0231B02184000D00120704700010B4008B5FFF7B5FE044A1368C02109020B431360FFF7B1FE08BD00010B4010B5FFF7A7FE0849C9
:400CC0000A68084B1A408024E40122430A600A6813408022120213430B60FFF79BFE10BD00010B40FF3FFFFF70B5061CFFF78EFE041CFFF7C9FF002803D0FFF7DDFF0125C3
:400D000000E000250848331C0340084A106808490840184310601368012D01D1FFF7BEFF201CFFF777FE70BD0404040010020B40FBFBFBFF10B5244B1B685B0715D5234BD2
:400D40001B685B070ED5224B9969042001401F4C22688A4322609A6982439A61DB68002B00D098470420FFF7BFFF174B1B685B0518D5164B1B685B0510D5154B996980227C
:400D8000D2001140114802688A4302609969114A0A409A611B69002B00D098478020C000FFF7A2FF084B1B685B030CD5074B1B685B0304D5064B5B69002B00D09847802077
:400DC000C002FFF791FF10BD10020B40E800002028010020FFFBFFFF04490A68BF231A4080017F3B18401043086070470001044004490A68FB231A408000F73B184010435F
:400E0000086070470000044008B50B20FFF708FE08BDC04608B500F01DF808BD08B5044A1368802109060B431360FFF7EDFF08BD0000074008B5064B1B78002B04D1FFF79D
:400E4000E9FF0122024B1A70FFF7E8FF08BDC0464401002010B51D4A11680C230B43136000241B4B1C601B4A1B4B1A601B4B1C4A13601C4A14601C4A14601C4A13601C4B70
:400E80001C600B20FFF7D6FD0B200321FFF7F0FD0B201849FFF7DAFD174B1C60174B1C60174B1C601422FF32164B1A60164B1C60164B1C60043AFF3A154B1A70154B1C8044
:400EC000154B1C60154B1C6010BDC046700007400000074064080080600007400701008000030740040307401003074000020740040207401D110000C80E0740880E07409E
:400F0000480F0740080F0740C80F0740880F07406A01002078010020880100207001002038B52E4B1B78102B53D12D4B1B68DB0751D40D1C041C0B20FFF77CFD6000FF239C
:400F40001840002D03D12422244B1A7004E02522224B1A7001231843224B1860224A234B1A600222224B1A60204B1A680823FF331A42F9D01D4B1B685B0714D41B4B1B6867
:400F80009B0713D4194B1B68DB0705D51022134B1A70012001210BE01022104B1A7080204000012104E00020002101E0022000210822FF320D4B1A6000290DD00D4A136856
:400FC0005B005B0813601368802109060B43136002E0042000E0082038BDC0466A010020640007404002074017030000000F074068000740000007401D4B1B789B0634D501
:401000001C4B1B689B0601D5182200E010221A4B1A601A4B1A681223FF331A42F9D0174B1B68DB0606D4154B1B68DB0705D50120012105E00020002102E080204000012125
:401040001222FF320D4B1A60023AFF3A084B1A7000290BD00A4A13685B005B0813601368802109060B43136000E004207047C0466A0100206400074068000740000F0740FB
:4010800000000740214B1B789B063CD5204B1860204B1A680823FF331A42F9D01D4B1B685B0705D56022194B1A700020002119E0184B1B689B0705D56022144B1A70022026
:4010C00000210FE0134B1B68DB0705D510220F4B1A700120012105E010220C4B1A708020400001210822FF320A4B1A6000290BD0094A13685B005B08136013688021090698
:401100000B43136000E004207047C0466A01002040020740000F07400000074010B5C04B1B68002B00D09847BE4B1B68DB0702D50022BD4B1A60BD4B1B789B0628D5BC4B26
:401140001B68DB0507D5BB4A1188C0239B000B431380012300E00023B54A1268D20706D5B44A118890239B000B4313800123002B0FD0AE4A1278D20701D5012200E0022293
:40118000AC49088802430A800021A84A117000E00023A64A1278920600D414E1A44A1268D20611D51022A44B1A60A04B1B78DB0701D5012300E002239E4A11880B431380E7
:4011C00010229A4B1A7029E1984A1278120720D5974A126892070AD50222974B1A60954A118888239B000B431380012311E08F4A1278D20703D525218C4A117009E02421E4
:401200008A4A11708D4A1268002A02D014398C4A1160864A1278520700D4ABE0834A1278D20749D5874A1268120727D5864A1268864909680F240C40854909686418141BC5
:40124000082C09D8002C16D1824A1168824B0B401360012308340EE008240CE07C4A11687E48006841187E480068C0B20870116801311160013C002CF0D119E0714A1268BE
:40128000520715D5724A116874480068411874480068C0B2087011680131116011686A4A1268914203D204216E4A116000E001236D496E4A11605DE05D4A1268920726D59D
:4012C00002225D4B1A606A4A13680F211940136880221202134000D00123CB18654A1168CB1A13601268644B1A60524A118884239B000B431380614B1A68802149020A43B3
:401300001A6019685E4A0A401A60012332E05D4A1268D20612D424E0564A1168474A1268914211D2534A11685748006841180978C9B2564801601168013111604C4A1268B6
:401340000F210A40082AE7D14A4A11683B4A1268914202D140213A4A11604D494D4A116008E0484A1268520604D5424B1A68424B1A600123002B51D0364A1168364B0B40F3
:4013800013600023444A13602D4A1360434B1B789B070ED5254B1B78DB0701D5092300E00A23244A11880B43138060221F4B1A7034E03B4B1B689B0601D5182200E01022D4
:4013C000284B1A602AE0194B1B78DB0626D4354A13685B005B0813601021144B19701D4B18683149014019601868304901401960002329490B6012490B601B49254B1960FE
:4014000023491A4B19602A492A4B19602A490A4B19601368802109060B43136010BDC046480100208C0E0740880E07406A0100200C0F074078010020000F07407401002069
:40144000880F0740CC0F074084010020080307408801002060000740FFFEFFFF7C0100204003074068000740ED0F0000C00F0740080207406C010020700100200402074086
:40148000FFFFFEFF8C0F07408C01002040020740F3070000800F0740C80F0740800100206400074000000740FF5FFFFFFFFCFFFFFF0F0000400F0740170300000E4B70B507
:4014C00000251E1C0D4CE41AA410A54204D0AB00F35898470135F8E700F03AF9084B00251E1C084CE41AA410A54204D0AB00F35898470135F8E770BD5C1700005C1700004A
:401500005C17000064170000031C8218934202D019700133FAE7704702780B78002A03D0013001319A42F7D0D01A70470023C25C0133002AFBD1581E7047000010000000BF
:4015400000000000017A5200027C0E011B0C0D001000000018000000C0FFFFFF140000000000000000000000320300008A0300008A0300008A0300008A0300008A030000EE
:401580008A030000260300008A0300008A0300008A0300008A0300008A030000820300003A030000420300004A030000520300005A030000620300006A0300007203000067
:4015C0007A030000416C61726D2064697361626C65640000416C61726D20656E61626C656400000057726F6E672070617373776F7264000031313131000000003134372A27
:401600003235383033363923000000000000000040000000140000005400000000300F40000400400F40000401000F4028300F4008310F4020320F4013330F4002400F4012
:4016400003410F4002600F40820D405149FF4AFF4BFF4F0150185A045D095F016040624064406540668068806A806C806E80C041C9FFCAFFCBFFCD83CE03CF01D018D280AB
:40168000DA04DB04DD99DF01E040E240E440E540E680E880EA80EC80EE80420246824801740176807780D098D2080E012E01300136013E01404145EC4720482349FF4AFF87
:4016C0004BFF4D834E034F015018540158045A045B045C095D995F016040624064406540668068806A806C806E80060217801E801F8046824D044F0156025D045E805F0145
:4017000087809A809B809E02C080C480D090D6D06F20DA808720A720E610020111010000030405060708090A0B0C0E0F101112131415161718191B1C1D1E1F202122232570
:40174000262728292A2B2E2F3031323334350000F8B5C046F8BC08BC9E467047F5010000F9070000F8B5C046F8BC08BC9E467047CD01000088170000C800002028000000EB
:40178000A0000000000000000000000001000000F4150000270000000000E02EC05D00001800000000366E0104040400000000000000000000000000000000000000000064
:4017C00000000000000000000000000000000000000000000000000000000000000000000000000000000000000000000000000000000000000000000000000000000000E9
:4018000000000000000000000000000000000000000000000000000000000000000000000000000000000000000000000000000000000000000000000000000000000000A8
:401840000000000000000000000000000000000000000000000000000000000000000000000000000000000000000000000000000000000000000000000000000000000068
:401880000000000000000000000000000000000000000000000000000000000000000000000000000000000000000000000000000000000000000000000000000000000028
:0200000490303A
:02000000B564E5
:0200000490402A
:200000000000000000000000000000000000000000000000000000000000000000000000E0
:0200000490501A
:0C000000000204C81193110104CFC6F7E0
:0200000490600A
:0100000001FE
:00000001FF