:400000000010002011000000CD010000CD01000008B500F0F5F8C04638B50F4C23688022D20213432360182000F0A2FA22680B4B134023600A4A0B4B1A60063A0A4B1A6074
:40004000002525600920094900F05EFA092000F04FFA074B1D6038BD00010B40FFFFFBFF0600008004010B4008010B40810700000C020B4010B572B6002410E01B486300D7
:400080001A195200821891881B195B001A5AC31858880004104300F0FBF80134E4B2012CECD9EE221202124B1A6099231B04114A1360114A1360114B197802220A431A70F9
:4000C0000F4802783C218A4328390A430270197816220A431A700B4A0B4B1A60D82212010A4B1A60FFF798FF10BDC046981900000C00014020500F4030500F4000700F4099
:4001000001700F40B66D1B00080204400803044010B5064C2378002B07D1054B002B02D0044800E000BF0123237010BD88010020000000008019000008B5084B002B03D063
:400140000748084900E000BF07480368002B00D108BD064B002BFBD09847F9E700000000801900008C010020C80000200000000010B582B001A800F04BFE01A800F064FCBF
:4001800062B600F087F901A800F042FE01A800F05BFC041C0020002100F08CF9201C00F0E9FB00F01DF90120002100F083F9054800F016F90120082100F07CF9024800F01F
:4001C0000FF9E0E7841900008C190000FEE7C04608B5031C084A1068C318084A9A1A802A02DC054A136005E000F002FC0C2303600120404208BDC046CC000020D80100207A
:4002000070B50F4E0F4D13E029686B68AC68002202E001C901C30432A242FAD1E868002202E0002102C304328242FAD11035013E002EE9D100F0E2FBFFF79AFFFEE7C0464C
:4002400001000000E81A000008B500230AE0032B03D89A000A49505800E00A4899000A4A885001332F2BF2D9FFF704FF0022074B1A608022D205116801230B43136008BD40
:4002800000000000CD01000000000020C000002008B50A1C002100F0E1FC08BD10B50B4C23686022934323602368513A9343236022681023184310432060012000F04EF9A6
:4002C000236810229343236010BDC0460002044038B5051C0E4C22682023134323602368402293432360002000F038F923680F229343236023681020284318432060012003
:4003000000F02CF9236810229343236038BDC04600020440F8B5274A13687F218B43136025490B681B0B1B03244803430B60136820218B431360116840230B431360CA270A
:400340007F00002000F00AF91A4C2368102633432360012000F002F9194B1D682368B3432360002000F0FAF808231D40236833432360012000F0F2F82368B3432360002D98
:4003800002D10A2000F0EAF8013F002D01D0002FD7D1084B1A6840218A431A601A683F318A431A60044A13681B0B1B0305490B431360F8BD000204400802044049020000F3
:4003C00004020440B60D000010B5041CFFF7A2FF2009FFF77DFF0F202040FFF779FF10BD38B5051C0078012404E0FFF7EDFF285D0134E4B20028F8D138BDC04610B5041C7D
:40040000FFF788FF2009FFF749FF0F202040FFF745FF10BD08B5282000F088F80320FFF73DFF052000F082F80320FFF737FF0F2000F07CF80320FFF731FF012000F076F83F
:400440000220FFF72BFF052000F070F80620FFF7D5FF0E20FFF7D2FF2C20FFF7CFFF0820FFF7CCFF0120FFF7C9FF0C20FFF7C6FF0320FFF7C3FF052000F058F808BDC0460E
:4004800008B50C20FFF7BAFF0122014B1A7008BDA401002008B5064B5B78002B04D1FFF7B9FF0122024B5A70FFF7EAFF08BDC046A401002008B501280BD0002804D0022802
:4004C0000CD003280FD012E08039C8B2FFF796FF0DE04039C8B2FFF791FF08E06C39C8B2FFF78CFF03E02C39C8B2FFF787FF08BD1F2318401E3B8340181C014B1860704710
:4005000000E100E001BE704738B5041C0D1C1F2802D90020FFF7F6FFA400034B9C4664442068256038BDC0464000002010B5041C06E0084B186800F077F9074B9C46644463
:4005400080231B029C42F4D8024B5868604300F06BF910BDD00000200080FFFF08B5034B1B7A584300F060F908BDC046D0000020F0B557464E46C0B483B0041C00F05EF9AF
:400580000190E71E2D2F74D83F4B1B78DBB2A34208D33E4B1B78DBB29A463D4B1B78DBB2994631E03B4B1B78DBB2A34208D33A4B1B78DBB29A46394B1B78DBB2994623E001
:4005C000374B1B78DBB2A34208D3364B1B78DBB29A46354B1B78DBB2994615E0334B1B78DBB2A34208D3324B1B78DBB29A46314B1B78DBB2994607E02F4B1B78DBB29A46ED
:400600002E4B1B78DBB299462D4BDE5D2F2E09D92A2C07D919222B4B1A60052000F004F9192503E0274B1D683F231D40AE4206D2234BDA5D234B1A60052000F0F5F81F4B45
:400640009C4664442378DBB21F4A13601F4B52461A601F4B4A461A600520FFF77FFFAE420AD9174BDA5D174B1A60052000F0DCF802E00020FFF746FF019800F0E3F803B0DE
:400680000CBC91469A46F0BDC0F1FF0FC1F1FF0FC2F1FF0FC3F1FF0FC4F1FF0FC5F1FF0FC6F1FF0FC7F1FF0FC8F1FF0FC9F1FF0FCAF1FF0FCBF1FF0FCCF1FF0FCDF1FF0F41
:4006C000A41900002CFF0B4028FF0B401CFF0B4020FF0B40034B1868C0231B02184000D00120704700010B4008B500F0A7F8044A1368C02109020B43136000F0A3F808BD59
:4007000000010B4010B500F099F808490A68084B1A408024E40122430A600A6813408022120213430B6000F08DF810BD00010B40FF3FFFFF70B5061C00F080F8041CFFF794
:40074000C9FF002803D0FFF7DDFF012500E000250848331C0340084A106808490840184310601368012D01D1FFF7BEFF201C00F069F870BD0404040010020B40FBFBFBFF68
:4007800010B5244B1B685B0715D5234B1B685B070ED5224B9969042001401F4C22688A4322609A6982439A61DB68002B00D098470420FFF7BFFF174B1B685B0518D5164B9D
:4007C0001B685B0510D5154B99698022D2001140114802688A4302609969114A0A409A611B69002B00D098478020C000FFF7A2FF084B1B685B030CD5074B1B685B0304D500
:40080000064B5B69002B00D098478020C002FFF791FF10BD10020B40E0000020A8010020FFFBFFFF000000000230800804D0C0460138FDD1C046C046C0467047EFF3108020
:4008400072B6704780F310887047C046C046C046002243088B4274D303098B425FD3030A8B4244D3030B8B4228D3030C8B420DD3FF22090212BA030C8B4202D312120902DE
:4008800065D0030B8B4219D300E0090AC30B8B4201D3CB03C01A5241830B8B4201D38B03C01A5241430B8B4201D34B03C01A5241030B8B4201D30B03C01A5241C30A8B4207
:4008C00001D3CB02C01A5241830A8B4201D38B02C01A5241430A8B4201D34B02C01A5241030A8B4201D30B02C01A5241CDD2C3098B4201D3CB01C01A524183098B4201D380
:400900008B01C01A524143098B4201D34B01C01A524103098B4201D30B01C01A5241C3088B4201D3CB00C01A524183088B4201D38B00C01A524143088B4201D34B00C01A19
:400940005241411A00D20146524110467047FFE701B5002000F00CF802BDC0460029F7D003B5FFF775FF0EBC4243891A1847C0467047C046094B70B51C68061C256C002D58
:4009800007D11A2000F060F9291C20641A2200F065F9301C216C00F003F870BD44010020032310B50C1C82690D495A438A18016986B04B430B49CB18C16800918168019106
:4009C00041680291016803914169074809180491201C064900F0FAF9201C06B010BDC046181A0000D41900006C070000F8190000014B18687047C046440100200E4B70B5CD
:400A000000251E1C0D4CE41AA410A54204D0AB00F35898470135F8E701F054F8084B00251E1C084CE41AA410A54204D0AB00F35898470135F8E770BDD01A0000D01A00000C
:400A4000D01A0000D81A000038B5074B051C1C68E36B002B03D1242000F0F6F8E063281CE16B00F003F838BD44010020F7B50C1C071C00F0A7FA211C051C381C00F0A6FA65
:400A80006D4A4369041C9E18B30706D1301C642100F064FF0123002906D1C821301C490000F05CFF4B424B4130214B4363495B18019300F073FA624B1B68002B20D06B6835
:400AC0009E4205D129683A68E869002908D110E0301C00F0B3F90028F4D101235B420FE0002382420CDBA86B0121824207DB191C05E00123824203DAA86B824200DB0B1CE4
:400B00002362236A012B01D1EF6B00E02F6AE121381C090100F022FF0E1C081C3C2100F01DFF2368301C5D1A25603C2100F030FEE121636809011E1A6660381C00F028FE1D
:400B4000A3681B1AA3603B2D03DD013666603C3D04E0002D03DA013E66603C35256062683B2A03DD0133A3603C3A04E0002A03DA013BA3603C326260A268172A21DDE369E0
:400B80000133E361A3690133062B00DD0023A361183AE368A260226901330198E360910009588B4243DD5B1AE360531C0C2B01D023613CE000226369226101336361E261B4
:400BC00035E0002A33DAE369013BE361A369013B00D50623A361E368591E131C1833E160A360002923D12369013B01D4236119E00B236569134A23616B1E6361AD189B074B
:400C000006D1281C642100F0A9FE0123002906D1C821281C490000F0A1FE4B424B416D33FF33E3612369019A9B009B58E36000F0B6F9201CFEBDC0466C070000301A0000D4
:400C4000CC0100206B07000008B5034B011C186800F052F808BDC04644010020031C8218934202D019700133FAE7704730B500293ED004390B68002B00DAC9181D4A1368BA
:400C8000141C002B02D14B60116031E099420DD208680A189A4203D11368C3180B6053684B60216024E08A4203D8131C5A68002AF9D11D685C198C420BD10968691858189F
:400CC0001960904214D110685268091819605A600EE08C4202D90C23036009E008680C18944203D114685268001908604A60596030BDC046C8010020032370B5CC1C9C43E6
:400D00000834051C0C2C01D20C2405E0002C03DA0C2300202B6042E08C42F9D3204A1368101C191C002913D00A68121B0DD40B2A02D90A608B181FE08B4202D15A680260E5
:400D40001BE04A685A600B1C17E00B1C4968E9E7144E3368002B03D1281C00F025F83060281C211C00F020F8031C421CD0D00322C61C964386420AD11C60181C07210B302D
:400D80001A1D8843821A0AD05142995007E0311A281C00F009F8431CBAD0331CECE770BDC8010020C401002038B50023064C051C081C2360FFF70CFA431C03D12368002BC3
:400DC00000D02B6038BDC046D00100200EB410B59DB002A9029008610B48822488604861012040421FABC881084804CBA400006801938C8100F0F6F90023029A13701DB038
:400E000010BC08BC03B01847FFFFFF7F4401002013B5094B041C69461868002200F0C0F8002805DB002C01D0009B2360009801E00120404216BDC04644010020F0B587B0A1
:400E4000051C00F0BFF84D4B071C00209D4200DC91E04B4B6421EC186E23FF336343181C484B4942EC18A310C418474B7D60E81800F08EFCC821454B24184900E81800F05F
:400E800087FC64212318281C019300F067FD0391C821281C490000F061FD0B1C59425941CBB202933B1C3C1C40330834059323784A2B12D1E368019AD218A90702D1039925
:400EC000002903D100210298884203D001213B2B00DC0021511801393AE0442B03D1019BE268991834E0029AAB0703D1039B002B00D0012230235343254A66689B1804931F
:400F00001A1C019B00930123B34205DA009802CA013341180091F7E7002E00DC0126009B0721181D00F01AFDE3685B1A00D50733A268511E07225143C918164BF618049BD0
:400F4000B600F358994201DB0739FBE7009B5918114B59432369C918A369C918059B61611C349C42A3D1FA69B96B01238A4200DB002301203B6007B0F0BDC046B1070000E2
:400F80004EF8FFFF4FF8FFFF93F8FFFFBFF9FFFF301A0000FFFFFF3F805101007047704738B50023064C051C081C111C236000F0DFFC431C03D12368002B00D02B6038BD48
:400FC000D00100200048704748010020F7B505680C1C281C484900F0DBFB4749061C281C00F0BCFC0D1E01DB444B02E0424BCD18434BE121281C0901F71800F0C9FBE12191
:40100000A0600901281C00F0A9FC0D1C081C3C2100F0BEFB3C216060281C00F09FFCF81C2160072100F09AFC002900DA07310023A16101939F4204DA324BFF1801235B4243
:401040000193381C304900F0A3FB051E042D00D1013D2E4E2E496E43BE19301C00F098FB6E212C4B071C4343F618301CFF3100F08FFB021E042A00D1013A274901980B1C97
:401080005343F618C8235B004343FA20C000181864236B43C318B8001B1800209B18824204D10130002F01D168426841321C051C3B326D351218FF35954202DA091A5218AE
:4010C0000133E261154A9B186361022314499A008A58964209DBB61A0B2100220133D80F9942424152421340F0E7236100230136E660201C2362FEBD80510100F7D4FFFF59
:40110000F6D4FFFFB13A0200AC8E00005471FFFFB50500004BFAFFFF93FEFFFF94F8FFFF601A0000F0B58E6885B0071C0C1C03920193B34245D390238A89DB001A423DD012
:4011400003250969236801985B1A029363695D43EB0F5D19029B6D1001331B189D4200D21D1C381C53050FD5291CFFF7C5FD061E13D0029A216900F0BCFAA289184B13401F
:4011800080221343A38111E02A1C00F0CFFA061E0CD1381C2169FFF769FD0C23402201203B60A38940421343A38117E0029B2661F61826606561019EED1AA560019BB342C2
:4011C00000D2019E321C2068039900F09BFA0020A3689B1BA36023689E19266005B0F0BD7FFBFFFFF0B59FB0029005938B890E1C171C1B0610D50B69002B0DD14021FFF798
:401200007BFD30603061002804D10C23029A01381360D0E040237361002306AD6B6120336B761033AB763C1C2378002B03D1E31B049312D003E0252BF9D00134F4E7049B6C
:401240000298311C3A1CFFF76DFF431C00D1ACE06A69049B944663446B612378002B00D1A3E00122002352426A6002A95432521801342B60EB60AB601370AB654F4F21781B
:40128000381C052200F02AFA002808D0C01B01278740381C2B68013418432860EEE72B68DA0604D55322202102A8121811701A0704D553222B2102A81218117022782A2AAC
:4012C00001D0099B0EE0059A111D12680591002A01DB099204E05242EA60022213432B60013409E02278303A092A04D80A214B4301349B18F6E7099323782E2B18D1637843
:401300002A2B09D1059B02341A1D1B680592002B0DDA01235B420AE0002301342278303A092A04D80A214B4301349B18F6E70793234F2178381C032200F0D0F9002807D0DB
:40134000C01B40278740381C2B6801341843286021781C480622671C297600F0BFF9002812D0194B002B06D10722059B073393430833059314E005AB00930298291C321CF6
:40138000124B00E000BF07E005AB00930298291C321C0E4B00F08AF80390039B013304D06B69039A9B186B613DE7B3890B985B0601D5012040421FB0F0BDC046901A0000DD
:4013C000961A00009A1A00000000000025110000F7B5171C01930A698B6800900C1C934200DA131C221C3B6043321278002A01D001333B6023689B0602D53B6802333B60CC
:40140000062523681D401ED0231C43331B785A1E9341226892061CD53020E1184031C870211C5A1C45310978A21840320233D1700FE0221C0123009801991932089EB0475B
:40144000431C0ED00135E3683A689B1A9D42F0DBDAE7221C009801994332089DA847431C02D10120404220E006232068E1683A6803400025042B03D18D1AEB43DB171D4073
:40148000A3682269934201DD9B1AED180027AF420ADA221C0123009801991A32089EB047431CDED00137F2E70020FEBDF0B58BB006920A1C43320793059004920A7E0C1C2F
:4014C000109B6E2A00D1A8E011D8632A22D009D8002A00D1B2E0582A00D0C2E045310A707C4A4FE0642A1DD0692A1BD0B9E0732A00D1A7E009D86F2A29D0702A00D0B0E0AD
:40150000202209680A43226037E0752A1FD0782A33D0A6E00E1C1A684236111D196013683370A1E021681A68080606D4490604D5111D19600023D55E02E0111D19601568D1
:40154000002D3BDA2D23049A6D42137036E021681A68080606D4490604D51568111D1960ADB202E0111D196015685A4B227E03930A276F2A1DD108271BE0221C7821453244
:401580001170554A19680392081D226818600D68100602D4500600D5ADB2D30702D520231A4322601027002D03D1202322689A432260231C002243331A7002E00A27454BA8
:4015C00003936368A360002B03DB0422216891432160002D02D1049E002B0ED0049E281C391CFFF7BBF9039B013E5B5C281C3370391CFFF72DF9051EF1D1082F09D123687D
:40160000DB0706D563682269934202DC3023013E3370049B9B1B23612BE009681A68080607D4490605D5111D19601368A28A1A8004E0111D1960136862691A600023049ECE
:40164000236116E01A68111D196016680021301C626800F043F8002801D0801B6060636803E0261C42363270012323610023049A1370079B05980093211C069B09AAFFF744
:40168000A7FE431C02D10120404221E0236905980699321C079DA847431CF4D023689B0705D4099BE068984212DA181C10E00025E368099A9B1A9D42F3DA221C0123059894
:4016C00006991932079EB047431CDCD00135EFE70BB0F0BDA11A0000B21A0000C9B28218904204D003788B4202D00130F8E700207047002310B5934203D0CC5CC45401339E
:40170000F9E710BD10B5814208D28B18984205D29B1A013A09D3995C8154FAE70023934203D0CC5CC4540133F9E710BDF8B5061C0C1C151C002904D1111CFFF7DDFA041CA3
:4017400018E0002A03D1FFF791FA2C1C12E000F013F8A8420ED2301C291CFFF7CDFA071E07D0211C2A1CFFF7C4FF301C211CFFF77DFA3C1C201CF8BD0B1F1A68101F002A29
:4017800004DA891804390B68D01804387047000003460B437FD4002243088B4274D303098B425FD3030A8B4244D3030B8B4228D3030C8B420DD3FF22090212BA030C8B4252
:4017C00002D31212090265D0030B8B4219D300E0090AC30B8B4201D3CB03C01A5241830B8B4201D38B03C01A5241430B8B4201D34B03C01A5241030B8B4201D30B03C01AE1
:401800005241C30A8B4201D3CB02C01A5241830A8B4201D38B02C01A5241430A8B4201D34B02C01A5241030A8B4201D30B02C01A5241CDD2C3098B4201D3CB01C01A524130
:4018400083098B4201D38B01C01A524143098B4201D34B01C01A524103098B4201D30B01C01A5241C3088B4201D3CB00C01A524183088B4201D38B00C01A524143088B4296
:4018800001D34B00C01A5241411A00D201465241104670475DE0CA0F00D04942031000D34042534000229C4603098B422DD3030A8B4212D3FC22890112BA030A8B420CD353
:4018C000890192118B4208D3890192118B4204D389013AD0921100E08909C3098B4201D3CB01C01A524183098B4201D38B01C01A524143098B4201D34B01C01A524103091B
:401900008B4201D30B01C01A5241C3088B4201D3CB00C01A524183088B4201D38B00C01A5241D9D243088B4201D34B00C01A5241411A00D20146634652415B10104601D331
:401940004042002B00D54942704763465B1000D3404201B50020FFF70BF802BD0029F8D003B5FFF715FF0EBC4243891A1847C04658220120014B40421A607047D001002017
:401980000000000053797374656D3A00696E6163746976650000000000300F40000400400F400004030405060708090A0B0C0E0F101112131415161718191B1C1D1E1F2019
:4019C00021222325262728292A2B2E2F30313233343500004A616E4665624D61724170724D61794A756E4A756C4175675365704F63744E6F76446563252E337320252E33AC
:401A00007325336420252E32643A252E32643A252E32642025640A0053756E4D6F6E5475655765645468754672695361744300001F0000001C0000001F0000001E00000092
:401A40001F0000001E0000001F0000001F0000001E0000001F0000001E0000001F0000001F0000001D0000001F0000001E0000001F0000001E0000001F0000001F0000007D
:401A80001E0000001F0000001E0000001F000000232D302B2000686C4C00656667454647003031323334353637383941424344454600303132333435363738396162636484
:401AC00065660000F8B5C046F8BC08BC9E4670473901000049020000F8B5C046F8BC08BC9E46704711010000F81A0000C8000020C00000005000000000000000D8010020F5
:401B00000000E02EC05D00001800000000366E010404040000000000000000000000000000000000000000000000000000000000000000002D1A000000000000000000006A
:401B400000000000000000000000000000000000000000000000000000000000000000000000000000000000000000000000000000000000E4000020010000000000000060
:401B80004A0000000000000000000000000000000000000000000000000000004A000000000000000000000000000000000000000000000000000000000000000000000091
:401BC00000000000000000000000000000000000000000000000000000000000000000000000000000000000000000000000000000000000000000000000000000000000E5
:401C000000000000000000000000000000000000000000000000000000000000000000000000000000000000000000000000000000000000000000000000000000000000A4
:401C40000000000000000000000000000000000000000000000000000000000000000000000000000000000000000000000000000000000000000000000000000000000064
:401C80000000000000000000000000000000000000000000000000000000000000000000000000000000000000000000000000000000000000000000000000000000000024
:0200000490303A
:020000001EBA26
:0200000490402A
:200000000000000000000000000000000000000000000000000000000000000000000000E0
:0200000490501A
:0C000000000204C81193110104D1304D1E
:0200000490600A
:0100000001FE
:00000001FF