:400000000010002011000000250300002503000008B500F089F9C04638B5194C23688022D20213432360182001F08AF92268154B13402360144A154B1A602022144B1A600F
:40004000103A144B1A602032134B1A6080221206124B1A6000252560114A124B1A60124A124B1A60124A134B1A600920124901F00DF9092001F0F4F8104B1D6038BDC0460B
:4000800000010B40FFFFFBFF0600008004010B4014020240180202402002024008010B40FE00008000000240FE0000C0400002400100008080000240511500000C020B40B8
:4000C00010B572B6002410E0344863001A195200821891881B195B001A5AC31858880004104300F083F90134E4B2012CECD92B49081C0C30283100F05FF9294A294B1A60D4
:40010000C0229204284B1A60EE221202274B1A6099231B04264A13602649274A1160274A13608022920526490A6026490B6026490B60264B1A60264B197802220A431A70A9
:40014000244802783C218A4328390A430270197816220A431A70204B14221A60C322D2011E4B1A607E221E4B1A60C02252031D4B1A603E221C4B1A601C4A1D4B1A60D822DA
:4001800012011C4B1A6004231B4A13601B4A1360FFF742FF00F050F910BDC0463C1C00000003030000000140040001400C00014000500F400000450108500F4010500F40C5
:4001C00018500F4020500F4030500F4038500F4000700F4001700F400000044008000440000104400801044018010440B66D1B000802044008030440000404401804044062
:4002000010B5064C2378002B07D1054B002B02D0044800E000BF0123237010BD1801002000000000081C000008B5084B002B03D00748084900E000BF07480368002B00D1ED
:4002400008BD064B002BFBD09847F9E700000000081C00001C010020C80000200000000010B500F04FFF002000F0D2FD1C4B18801C4B984202D10022194B1A80184B1B884F
:40028000194A128893422AD0174A1380002B26D0012000F08BF9124C2088000100F02AFF2488642C06D1012000F080F90F4800F06BF914E0012C06D1012000F077F90C4893
:4002C00000F062F90BE0012000F070F9094800F05BF9201C00F0C6F9252000F063F910BD94010020FFFF0000960100200C1C00001C1C00002C1C000008B562B600F054FF46
:4003000000F0A0F900F0EAFB00F042FC00F06EFD00F042FB00F02CFA0028FBD1FFF7A0FFF4E7C046FEE7C04670B50F4E0F4D13E029686B68AC68002202E001C901C304322D
:40034000A242FAD1E868002202E0002102C304328242FAD11035013E002EE9D101F026FCFFF7CAFFFEE7C04601000000E01D000008B500230AE0032B03D89A000A49505840
:4003800000E00A4899000A4A885001332F2BF2D9FFF796FE0022074B1A608022D205116801230B43136008BD000000002503000000000020C0000020F0B50025002711E0CF
:4003C000BB00C658F3B2FF22964308E06A008A181478A419527822700135013BDBB2002BF4D10137062FEBD9F0BDC04608B50A1C002101F001FC08BD0C4B1B68002803D08D
:4004000080221206134301E05B005B08074A1360074B1B68002803D080229204134301E0044A1340024A13607047C04680031A4008010B40FFFFFFFD08B50120FFF7DCFF13
:4004400008BDC04610B50B4C23686022934323602368513A9343236022681023184310432060012000F062FF236810229343236010BDC0460002044038B5051C0E4C226842
:400480002023134323602368402293432360002000F04CFF23680F229343236023681020284318432060012000F040FF236810229343236038BDC04600020440F8B5274AA4
:4004C00013687F218B43136025490B681B0B1B03244803430B60136820218B431360116840230B431360CA277F00002000F01EFF1A4C2368102633432360012000F016FFE1
:40050000194B1D682368B3432360002000F00EFF08231D40236833432360012000F006FF2368B3432360002D02D10A2000F0FEFE013F002D01D0002FD7D1084B1A6840212A
:400540008A431A601A683F318A431A60044A13681B0B1B0305490B431360F8BD00020440080204404902000004020440B60D000010B5041CFFF7A2FF2009FFF77DFF0F20F8
:400580002040FFF779FF10BD38B5051C0078012404E0FFF7EDFF285D0134E4B20028F8D138BDC04608B5FFF7E3FF08BD10B5041CFFF784FF2009FFF745FF0F202040FFF753
:4005C00041FF10BD08B5282000F098FE0320FFF739FF052000F092FE0320FFF733FF0F2000F08CFE0320FFF72DFF012000F086FE0220FFF727FF052000F080FE0620FFF7B2
:40060000D5FF0E20FFF7D2FF2C20FFF7CFFF0820FFF7CCFF0120FFF7C9FF0C20FFF7C6FF0320FFF7C3FF052000F068FE08BDC04608B50C20FFF7BAFF0122014B1A7008BDBB
:400640003401002008B5064B5B78002B04D1FFF7B9FF0122024B5A70FFF7EAFF08BDC0463401002030B585B0051C002201AB9A7209240DE0281C0A2101F09CF9303101AB2C
:400680001955281C0A2101F00FF9051C013CE4B2092DEFD8281C0A2101F08CF9303101A801550019FFF770FF05B030BD38B517480368DBB2164A13700F24A343191C154D37
:4006C0002A780F2313400B43F02293431A1C2B78A34313430360104A104B1A60104A114B1A60114A1168114B0B40C021C9000B4313600F2000F0BEFD0F200D4900F0C6FDCE
:400700000F20032100F0D4FD38BDC04600FF08409801002062F1FF0F00020001080008400008A0010400084010000140FFF0FFFF8D0E000008B500F06DFD00F04FFD0020B5
:40074000002100F053FD0020002100F06BFD00F057FD00F039FD044A136804490B4313600F2000F07DFD08BD0400084000100880024B1878012318407047C046380100208D
:400780004000024B181880887047C04638010020F8B5104F3C5C3818027A55005519EDB29200D6B200F052FDA4003B191C6922680F21B1408A43111C0422B2400A435E6AE4
:4007C00033680721A9408B433360226000F042FDF8BDC046B01C0000F8B519490C5C0B181E7AB200D2B275007519EDB2154B185CA300CB181F693B680F2191408B433B60BB
:40080000022800D10020012801D1002700E0062700F01CFDA4000A4B1C19616A0B680722AA4093431A1C3B1CAB4013430B6000F011FDA16B0B680122B24093430B60F8BD4F
:40084000B01C0000BC01002010B5002403E0201CFFF7C2FF0134042CF9D910BD03231840024B1A68400210431860704704000840CA0807231940063B8B40191C835C1942DF
:4008800001D0012000E000207047C04610B5041C0134E4B2052C06D004480430211CFFF7E7FF0028F4D0201C10BDC046CC000020F8B5041C234B4C331B5C9B00224A9E5824
:4008C0002248211CFFF7D4FF214B9E4203D88640FF20000406431F4B185D013880B2002100F084FC1C4B185D013880B2002100F099FC0F2000F0BEFC18490A68184B1A40FE
:40090000184B185D184B1B5D1B04034313430B60164F3D68164B1D40164B1D430F2000F09FFC201CFFF734FF00F090FC041C3D60002000F081FC104B1E60201C00F08AFCE5
:40094000F8BDC046B01C0000CC0000209C010020FFFFFEFFC4010020A40100200800084000FF80FFAC010020B401002004000840FF1FDFFF200020000C00084008B5054B49
:4009800000221A70C2B29A7381221A70FFF790FF08BDC0463801002010B50B4C00232370FF33A373A07BC0B2FFF770FFA073A37BDBB2042B07D8217801220A432270A07BA6
:4009C000C0B2FFF775FF10BD3801002038B5051C174B1C68A4B24300164AD3189C80164B4C331B5C9B00154A9A58154B9A4208D81448291CFFF73CFF6B000E4AD3180441DD
:400A00009C80281CFFF7E8FE0F2000F033FC0E4A11680E4B0B40A02109020B4313600C4A11680C4B0B4013600F2000F019FC38BD0C00084038010020B01C0000CC000020B8
:400A4000FFFFFEFF9C01002004000840FF1FDFFF0800084000FF80FF10B5CC0807231940063B8B40D9B2002A04D0041923781943217003E0041923788B43237010BDC04683
:400A800070B5061C002400250BE0301CFFF776FFFFF76EFE0128FBD0301CFFF771FE24180135002DF1D0A0B270BDC046014B19547047C046BC01002010B5002404E0201CBC
:400AC0000021FFF7F3FF0134042CF8D9FFF7EEFD0020FFF7C3FEFFF7B7FE10BD08B50B4BDB7B002B04D1FFF7E7FF0122074BDA73FFF720FE00F090FA0122044B1A74044AA4
:400B000013688021C9030B43136008BD3801002004000840F0B5002714E00C4BDE5D0C4BDB5D9E191A1C002404E08D5CA54200D92C1C0132B242F8D301E0CC540133B342BF
:400B4000FBD301378742E8D3F0BDC046181D00001C1D00004300054A9A5A05495A52081800210173017503495A5270473C0100204C010020DC01002010B5041CFFF7FEFED2
:400B8000FFF7F6FD0028FBD1201CFFF7E3FF10BD10B5002403E0201CFFF7EEFF0134042CF9D910BD70B5094D14352D180026FF20002308E0EC5C944203D9A64201D2261C38
:400BC000181C0133DBB28B42F4D370BD4C010020F0B583B0041C0192009308AB1878344B14335918002C02D0661EF6B200E00026631CDDB20B5D9C462D4B243362465A7071
:400C0000002C07D12A4B002624229E544A5D24339A7012E0019A013A944207D1895D244B24229954243300229A7006E08E5D204B24229E544A5D24339A7024231C4AD35CFC
:400C4000834204D91B1A242219498B5403E000212423174AD154164A243253781B1ADBB253709278824204D9101A114A2432907003E000210E4A243291700D490A1C243234
:400C800092782420095C501AC9188918000200F09BFE240204196B460020185E6043FE23DB019C466044000CC0B203B0F0BDC0464C01002043184900C818800880B2704714
:400CC000F0B5474680B482B0041C3B4B1E5C3B4B9B5D019342003A4BD75A3A4B5B7A002B08D0394D9046515B381CFFF7E3FF071C43465853E1B23548314A00F03BFD630034
:400D0000334A9A5ABA4207D80021324B1955BD1AADB20123984603E0D51BADB2002398464346002B15D12C4B9B5DAB4211D2294B1B5D244A12191279934206D3201CFFF727
:400D400009FF0022234B1A551CE00133214A135518E06B469B88AB4206D21F4B9B5DAB4210D94346002B0DD11302194801190E7B3343FF18BF1A3A0A6300C2520F73002230
:400D8000144B1A556B469E88AE420DD24346002B0AD0FF2D04D90E4B1C19FF23237507E00B4B1C19257503E0094B1C190023237502B004BC9046F0BDFC1C0000CC010020B3
:400DC0003C010020E8000020DC0100202C0200204C010020D0010020D801002010B5041C00F0A2F8201CFFF76BFF10BD10B5002409E00648211CFFF73BFD002802D0201C53
:400E0000FFF7ECFF0134042CF3D910BDD000002030B583B0041C194B1B181D7B184B1A5C00200521FFF7BEFEFF2820D0154B1B5D009300210522C8235B01FFF7C9FE011CC0
:400E400080B26B1CDBB20D4A5219127B002A06D10A4AD3181973551901232B730CE0074CE418217BFFF726FF031C237304E0034B5D1900232B73044803B030BDE8000020DD
:400E8000EC010020CC010020FFFF000010B50F2000F0F0F901221E4B1A601E4B1878C0B2FFF794FD1C4B1B785BB2002B05DA1A4A137801218B43137026E0164C2078C0B290
:400EC000FFF7E4FC20702378DBB2042B05D8114B1878C0B2FFF7ECFC16E00F4B1A7801218A431A701B785B060ED500220B4B1A7006E00B4AD15C0B4AD1540133074A1370FE
:400F0000064B1B78002BF4D00F2000F0A9F910BD14000840460100203801002074010020A0010020D000002070B582B0154B1C5CC1B2154E154D00951548221C331C00F018
:400F400097FC335D295D134A1155DB2B03D8DB08114A135514E0EC2B03D81B090E4A13550EE0F42B03D85B090B4A135508E0F92B03D89B09084A135502E00022064B1A55A2
:400F800002B070BDFC1C0000EC010020CC0100202C020020D8010020E8010020024A136840218B431360704704000840044A1168044B0B40802189000B4313607047C0467B
:400FC00008000840FFFCFFFC38B5002208E00D498B5C5D080C4CA55401335B088B54013203789342F3D80F2000F044F9074A1168074B0B4007490B4313600F2000F030F9E1
:4010000038BDC046AC010020B401002008000840FFFCFFFC0002000170B5254B05221A70012159709A701332DA80224A9A80224A9A60FFF7B3FF002304E099001F48204AEB
:40104000885001331A4A52789A42F6D8002306E004211C4AD15402391B4AD1540133042BF6D9FFF7A3FF124C184E201C311C00F0E1FA174D0120291CFFF74CFD201C00F0F7
:40108000EAFA201C311C00F0D5FA0120291CFFF741FD201C00F000FB201CFFF795FF002403E0201CFFF740FF0134042CF9D970BD2C020020CC040000201D00000000FF0F38
:4010C000CC000020A4010020C40100209A0D0000AC0100200004000C014B18607047C046080105400004000C014B18607047C046140105400004000C014B18607047C0468B
:401100000C010540024B18680004000C7047C0460C01054038B5041C0D1C00F097F8AC40024B1C6000F096F838BDC0460800054008B500F08BF8064A116801230B43136063
:4011400000F088F801201821FFF7E4FF08BDC04600000540014B18607047C0463801054010B50E4C8023DB042360236823600020FFF7B0FF236823600C22094B1A6001209B
:40118000FFF7E8FF3122074B1A60FA208000FFF7A9FF0020FFF7AEFF10BDC04600010540240105402801054008B5064B1B78002B04D1FFF7D5FF0122024B1A70FFF7B8FF35
:4011C00008BDC04675010020034A1368802109060B4313607047C04600000240024A13685B005B081360704700000240034A13681B0C1B04184310607047C046000002408D
:40120000034A1368802109060B4313607047C04640000240024A13685B005B081360704740000240034A13681B0C1B04184310607047C046400002400230800804D0C04659
:401240000138FDD1C046C046C0467047EFF3108072B6704780F310887047C046C046C0461F2318401E3B8340181C014B1860704700E100E01F2318401E3B8340181C014B1D
:401280001860704780E100E001BE704738B5041C0D1C1F2802D90020FFF7F6FFA400034B9C4664442068256038BDC0464000002070B5041C0E1E032E02D90020FFF7E4FF8B
:4012C0001F2C02D90020FFF7DFFF03252540ED000635FFF7BBFFA408A400074B9C46644423680322AA409343AE40351C1D432560FFF7B0FF70BDC04600E400E010B5041C2E
:4013000006E0084B1868FFF797FF074B9C46644480231B029C42F4D8024B58686043FFF78BFF10BD000100200080FFFF08B5034B1B7A5843FFF780FF08BDC04600010020EA
:40134000F0B557464E46C0B483B0041CFFF77EFF0190E71E2D2F74D83F4B1B78DBB2A34208D33E4B1B78DBB29A463D4B1B78DBB2994631E03B4B1B78DBB2A34208D33A4BA9
:401380001B78DBB29A46394B1B78DBB2994623E0374B1B78DBB2A34208D3364B1B78DBB29A46354B1B78DBB2994615E0334B1B78DBB2A34208D3324B1B78DBB29A46314BF9
:4013C0001B78DBB2994607E02F4B1B78DBB29A462E4B1B78DBB299462D4BDE5D2F2E09D92A2C07D919222B4B1A600520FFF724FF192503E0274B1D683F231D40AE4206D2E5
:40140000234BDA5D234B1A600520FFF715FF1F4B9C4664442378DBB21F4A13601F4B52461A601F4B4A461A600520FFF77FFFAE420AD9174BDA5D174B1A600520FFF7FCFE12
:4014400002E00020FFF720FF0198FFF703FF03B00CBC91469A46F0BDC0F1FF0FC1F1FF0FC2F1FF0FC3F1FF0FC4F1FF0FC5F1FF0FC6F1FF0FC7F1FF0FC8F1FF0FC9F1FF0F42
:40148000CAF1FF0FCBF1FF0FCCF1FF0FCDF1FF0F8C1D00002CFF0B4028FF0B401CFF0B4020FF0B40034B1868C0231B02184000D00120704700010B4008B5FFF7C7FE044AC1
:4014C0001368C02109020B431360FFF7C3FE08BD00010B4010B5FFF7B9FE08490A68084B1A408024E40122430A600A6813408022120213430B60FFF7ADFE10BD00010B40CC
:40150000FF3FFFFF70B5061CFFF7A0FE041CFFF7C9FF002803D0FFF7DDFF012500E000250848331C0340084A106808490840184310601368012D01D1FFF7BEFF201CFFF74E
:4015400089FE70BD0404040010020B40FBFBFBFF10B5244B1B685B0715D5234B1B685B070ED5224B9969042001401F4C22688A4322609A6982439A61DB68002B00D098472D
:401580000420FFF7BFFF174B1B685B0518D5164B1B685B0510D5154B99698022D2001140114802688A4302609969114A0A409A611B69002B00D098478020C000FFF7A2FFE8
:4015C000084B1B685B030CD5074B1B685B0304D5064B5B69002B00D098478020C002FFF791FF10BD10020B401001002078010020FFFBFFFFF7B59C180023071C082680258E
:40160000019100922370237800982B432370BB689B6C9847019B984202D22378AB432370013E6D08002EEED12378F82B01D9F8232370F7BD70B5051C0E1C00242B789C42A0
:4016400008D2AB68221C281C311C1B68FFF7D2FF0134F3E770BD38B5051C00242B789C4219D2AA6813681B5DDB080F2B00D90F23D16BD268C95C1155AA68042B04D9936D3E
:40168000906B211C012203E0936D906B211C002298470134E2E738BDF0B5041C002687B063789E4262D2A3685A6C925D0392002A01D1013203921A6C925D0192019922785A
:4016C000914251D29A689B69515C0F221140B2000492002205910499019D5A50019B5B000293039B019A9B189D423DD2A768E388A0885843FB68595D00F066F93B68595D76
:4017000000F0D2F8059B5843194B40005A2802D95B084008FAE7BA6904991B0C1B045350A36882085B6B01215855A368C008DB69029F5A550F22A36849421B6A5855A368E9
:401740005B6A5A55A368986AC1530021D86AC153186B9B68C1535B19197801350A401A703B1C02330293BCE7013699E707B0F0BD0000FFFFF0B585684E002B6B925B9B19C0
:401780001C8887B0141B0094AC6A1A80A45B6B6A0294EC6A5F5CA45B2B6A03946C6B7F00645C5B180494AC680193645C1B780594009CE40FA4460F24251C6744009C3D40CF
:4017C000AC46E51764196C409C4203D2012B05D0013B00E00133FF273F2B00D89F00019D2B7065460F2D29D0002D24D0BC4225D8059C029F24090094974200D9171C039D0A
:40180000954200D2151C009A092A01D8141C01343A1C0A2C14D1EA1B934206D9049A92089A42924152429B1A00E001338268D26953543A1C04E0151C644601E0151C00243E
:401840006746836824015B6A5F5483689F6ABA53DA6A9B6895530F225B181D782A401A7083689B6859180B781C430C7007B0F0BD70B58068446BC069655C405CFF213F28EC
:4018800001D88100C9B246B2FF24002E01DB4000C4B28D4201D9291C6C08012081439954049B9C5470BD0000002243088B4274D303098B425FD3030A8B4244D3030B8B4230
:4018C00028D3030C8B420DD3FF22090212BA030C8B4202D31212090265D0030B8B4219D300E0090AC30B8B4201D3CB03C01A5241830B8B4201D38B03C01A5241430B8B427B
:4019000001D34B03C01A5241030B8B4201D30B03C01A5241C30A8B4201D3CB02C01A5241830A8B4201D38B02C01A5241430A8B4201D34B02C01A5241030A8B4201D30B02BB
:40194000C01A5241CDD2C3098B4201D3CB01C01A524183098B4201D38B01C01A524143098B4201D34B01C01A524103098B4201D30B01C01A5241C3088B4201D3CB00C01AB2
:40198000524183088B4201D38B00C01A524143088B4201D34B00C01A5241411A00D20146524110467047FFE701B5002000F0FCF802BDC0460029F7D003B5FFF775FF0EBC77
:4019C0004243891A1847C04603460B437FD4002243088B4274D303098B425FD3030A8B4244D3030B8B4228D3030C8B420DD3FF22090212BA030C8B4202D31212090265D054
:401A0000030B8B4219D300E0090AC30B8B4201D3CB03C01A5241830B8B4201D38B03C01A5241430B8B4201D34B03C01A5241030B8B4201D30B03C01A5241C30A8B4201D3D6
:401A4000CB02C01A5241830A8B4201D38B02C01A5241430A8B4201D34B02C01A5241030A8B4201D30B02C01A5241CDD2C3098B4201D3CB01C01A524183098B4201D38B0136
:401A8000C01A524143098B4201D34B01C01A524103098B4201D30B01C01A5241C3088B4201D3CB00C01A524183088B4201D38B00C01A524143088B4201D34B00C01A524181
:401AC000411A00D201465241104670475DE0CA0F00D04942031000D34042534000229C4603098B422DD3030A8B4212D3FC22890112BA030A8B420CD3890192118B4208D3C8
:401B0000890192118B4204D389013AD0921100E08909C3098B4201D3CB01C01A524183098B4201D38B01C01A524143098B4201D34B01C01A524103098B4201D30B01C01A26
:401B40005241C3088B4201D3CB00C01A524183088B4201D38B00C01A5241D9D243088B4201D34B00C01A5241411A00D20146634652415B10104601D34042002B00D5494269
:401B8000704763465B1000D3404201B5002000F00BF802BD0029F8D003B5FFF715FF0EBC4243891A1847C0467047C0460E4B70B500251E1C0D4CE41AA410A54204D0AB0068
:401BC000F35898470135F8E700F0F8F8084B00251E1C084CE41AA410A54204D0AB00F35898470135F8E770BDC81D0000C81D0000C81D0000D01D0000031C8218934202D040
:401C000019700133FAE7704700000000566F6C756D65206C766C3A204D415800566F6C756D65206C766C3A204D494E00566F6C756D65206C766C3A200000000000300F4046
:401C4000000400400F40000404300F4001310F4003330F4004400F4006410F4003420F4010430F4038803E4058045F011801B401E2A0E61053045F02D420D68062048B06B4
:401C80008E0497089F02D8406C407008DC031908200823016102880489088F01A102B448B502C608C808D802E205E608EC080000010101010100000001020304050000000F
:401CC0000000014004000140080001400C00014010000140080004400801044008020440080304400804044000000440000104400002044000030440000404400000000093
:401D00000000000002000000040000000800000010000000200000000500000000000000AC010020B4010020F8000020A4010020C4010020FC1C0000CC0000200C020020CA
:401D4000F0010020F8010020200200200002002014020020380200209C0100207C1D00001C1D0000181D0000810A0000B10800008107000071080000590A000001010102D4
:401D8000020202040404040404040404030405060708090A0B0C0E0F101112131415161718191B1C1D1E1F2021222325262728292A2B2E2F3031323334350000F8B5C04656
:401DC000F8BC08BC9E4670472902000071030000F8B5C046F8BC08BC9E46704701020000F01D0000C80000205000000028010000000000000000FF0F1F0000000801044080
:401E000008010440080104400801044008010440010000001E1E1E1E1E0100000100000002020202020000000000E02EC05D00001800000000366E010404040000000000D7
:401E40000000000000000000000000000000000000000000000000000000000000000000000000000000000000000000000000000000000000000000000000000000000062
:401E80000000000000000000000000000000000000000000000000000000000000000000000000000000000000000000000000000000000000000000000000000000000022
:401EC00000000000000000000000000000000000000000000000000000000000000000000000000000000000000000000000000000000000000000000000000000000000E2
:401F000000000000000000000000000000000000000000000000000000000000000000000000000000000000000000000000000000000000000000000000000000000000A1
:0200000490303A
:02000000FD679A
:0200000490402A
:200000000000000000000000000000000000000000000000000000000000000000000000E0
:0200000490501A
:0C000000000204C81193110104D20EFA92
:0200000490600A
:0100000001FE
:00000001FF